{
  "address": "0x64C9B0d04c596D3238fc557369987ac0A0D7406c",
  "abi": [
    {
      "anonymous": false,
      "inputs": [
        {
          "indexed": false,
          "internalType": "address",
          "name": "oldAdmin",
          "type": "address"
        },
        {
          "indexed": false,
          "internalType": "address",
          "name": "newAdmin",
          "type": "address"
        }
      ],
      "name": "AdminChanged",
      "type": "event"
    },
    {
      "anonymous": false,
      "inputs": [
        {
          "indexed": true,
          "internalType": "address",
          "name": "owner",
          "type": "address"
        },
        {
          "indexed": true,
          "internalType": "address",
          "name": "approved",
          "type": "address"
        },
        {
          "indexed": true,
          "internalType": "uint256",
          "name": "tokenId",
          "type": "uint256"
        }
      ],
      "name": "Approval",
      "type": "event"
    },
    {
      "anonymous": false,
      "inputs": [
        {
          "indexed": true,
          "internalType": "address",
          "name": "owner",
          "type": "address"
        },
        {
          "indexed": true,
          "internalType": "address",
          "name": "operator",
          "type": "address"
        },
        {
          "indexed": false,
          "internalType": "bool",
          "name": "approved",
          "type": "bool"
        }
      ],
      "name": "ApprovalForAll",
      "type": "event"
    },
    {
      "anonymous": false,
      "inputs": [
        {
          "indexed": true,
          "internalType": "uint256",
          "name": "oldId",
          "type": "uint256"
        },
        {
          "indexed": true,
          "internalType": "uint256",
          "name": "newId",
          "type": "uint256"
        },
        {
          "components": [
            {
              "internalType": "uint256[]",
              "name": "landIds",
              "type": "uint256[]"
            },
            {
              "internalType": "uint256[]",
              "name": "gameIds",
              "type": "uint256[]"
            },
            {
              "internalType": "bytes32",
              "name": "uri",
              "type": "bytes32"
            }
          ],
          "indexed": false,
          "internalType": "struct EstateBaseToken.EstateCRUDData",
          "name": "update",
          "type": "tuple"
        }
      ],
      "name": "EstateTokenUpdated",
      "type": "event"
    },
    {
      "anonymous": false,
      "inputs": [
        {
          "indexed": true,
          "internalType": "uint256",
          "name": "oldId",
          "type": "uint256"
        },
        {
          "indexed": true,
          "internalType": "uint256",
          "name": "newId",
          "type": "uint256"
        },
        {
          "components": [
            {
              "internalType": "uint256[][]",
              "name": "landAndGameAssociationsToAdd",
              "type": "uint256[][]"
            },
            {
              "internalType": "uint256[][]",
              "name": "landAndGameAssociationsToRemove",
              "type": "uint256[][]"
            },
            {
              "internalType": "uint256[]",
              "name": "gameIdsToReuse",
              "type": "uint256[]"
            },
            {
              "internalType": "uint256[]",
              "name": "landIdsToAdd",
              "type": "uint256[]"
            },
            {
              "internalType": "uint256[]",
              "name": "landIdsToRemove",
              "type": "uint256[]"
            },
            {
              "internalType": "bytes32",
              "name": "uri",
              "type": "bytes32"
            }
          ],
          "indexed": false,
          "internalType": "struct EstateBaseToken.UpdateEstateData",
          "name": "update",
          "type": "tuple"
        }
      ],
      "name": "EstateTokenUpdatedII",
      "type": "event"
    },
    {
      "anonymous": false,
      "inputs": [
        {
          "indexed": true,
          "internalType": "uint256",
          "name": "oldId",
          "type": "uint256"
        },
        {
          "indexed": true,
          "internalType": "uint256",
          "name": "newId",
          "type": "uint256"
        },
        {
          "components": [
            {
              "internalType": "uint256[]",
              "name": "landIds",
              "type": "uint256[]"
            },
            {
              "internalType": "uint256[]",
              "name": "gameIds",
              "type": "uint256[]"
            }
          ],
          "indexed": false,
          "internalType": "struct EstateBaseToken.EstateData",
          "name": "update",
          "type": "tuple"
        }
      ],
      "name": "EstateTokenUpdatedV3",
      "type": "event"
    },
    {
      "anonymous": false,
      "inputs": [
        {
          "indexed": false,
          "internalType": "address",
          "name": "oldMinter",
          "type": "address"
        },
        {
          "indexed": false,
          "internalType": "address",
          "name": "newMinter",
          "type": "address"
        }
      ],
      "name": "MinterChanged",
      "type": "event"
    },
    {
      "anonymous": false,
      "inputs": [
        {
          "indexed": false,
          "internalType": "address",
          "name": "superOperator",
          "type": "address"
        },
        {
          "indexed": false,
          "internalType": "bool",
          "name": "enabled",
          "type": "bool"
        }
      ],
      "name": "SuperOperator",
      "type": "event"
    },
    {
      "anonymous": false,
      "inputs": [
        {
          "indexed": true,
          "internalType": "address",
          "name": "from",
          "type": "address"
        },
        {
          "indexed": true,
          "internalType": "address",
          "name": "to",
          "type": "address"
        },
        {
          "indexed": true,
          "internalType": "uint256",
          "name": "tokenId",
          "type": "uint256"
        }
      ],
      "name": "Transfer",
      "type": "event"
    },
    {
      "inputs": [
        {
          "internalType": "address",
          "name": "operator",
          "type": "address"
        },
        {
          "internalType": "uint256",
          "name": "id",
          "type": "uint256"
        }
      ],
      "name": "approve",
      "outputs": [],
      "stateMutability": "nonpayable",
      "type": "function"
    },
    {
      "inputs": [
        {
          "internalType": "address",
          "name": "sender",
          "type": "address"
        },
        {
          "internalType": "address",
          "name": "operator",
          "type": "address"
        },
        {
          "internalType": "uint256",
          "name": "id",
          "type": "uint256"
        }
      ],
      "name": "approveFor",
      "outputs": [],
      "stateMutability": "nonpayable",
      "type": "function"
    },
    {
      "inputs": [
        {
          "internalType": "address",
          "name": "owner",
          "type": "address"
        }
      ],
      "name": "balanceOf",
      "outputs": [
        {
          "internalType": "uint256",
          "name": "",
          "type": "uint256"
        }
      ],
      "stateMutability": "view",
      "type": "function"
    },
    {
      "inputs": [
        {
          "internalType": "address",
          "name": "from",
          "type": "address"
        },
        {
          "internalType": "address",
          "name": "to",
          "type": "address"
        },
        {
          "internalType": "uint256[]",
          "name": "ids",
          "type": "uint256[]"
        },
        {
          "internalType": "bytes",
          "name": "data",
          "type": "bytes"
        }
      ],
      "name": "batchTransferFrom",
      "outputs": [],
      "stateMutability": "nonpayable",
      "type": "function"
    },
    {
      "inputs": [
        {
          "internalType": "uint256",
          "name": "id",
          "type": "uint256"
        }
      ],
      "name": "burn",
      "outputs": [],
      "stateMutability": "nonpayable",
      "type": "function"
    },
    {
      "inputs": [
        {
          "internalType": "address",
          "name": "from",
          "type": "address"
        },
        {
          "internalType": "uint256",
          "name": "id",
          "type": "uint256"
        }
      ],
      "name": "burnFrom",
      "outputs": [],
      "stateMutability": "nonpayable",
      "type": "function"
    },
    {
      "inputs": [
        {
          "internalType": "address",
          "name": "newAdmin",
          "type": "address"
        }
      ],
      "name": "changeAdmin",
      "outputs": [],
      "stateMutability": "nonpayable",
      "type": "function"
    },
    {
      "inputs": [
        {
          "internalType": "address",
          "name": "newMinter",
          "type": "address"
        }
      ],
      "name": "changeMinter",
      "outputs": [],
      "stateMutability": "nonpayable",
      "type": "function"
    },
    {
      "inputs": [
        {
          "internalType": "address",
          "name": "from",
          "type": "address"
        },
        {
          "internalType": "address",
          "name": "to",
          "type": "address"
        },
        {
          "components": [
            {
              "internalType": "uint256[]",
              "name": "landIds",
              "type": "uint256[]"
            },
            {
              "internalType": "uint256[]",
              "name": "gameIds",
              "type": "uint256[]"
            },
            {
              "internalType": "bytes32",
              "name": "uri",
              "type": "bytes32"
            }
          ],
          "internalType": "struct EstateBaseToken.EstateCRUDData",
          "name": "creation",
          "type": "tuple"
        }
      ],
      "name": "createEstate",
      "outputs": [
        {
          "internalType": "uint256",
          "name": "",
          "type": "uint256"
        }
      ],
      "stateMutability": "nonpayable",
      "type": "function"
    },
    {
      "inputs": [],
      "name": "getAdmin",
      "outputs": [
        {
          "internalType": "address",
          "name": "",
          "type": "address"
        }
      ],
      "stateMutability": "view",
      "type": "function"
    },
    {
      "inputs": [
        {
          "internalType": "uint256",
          "name": "id",
          "type": "uint256"
        }
      ],
      "name": "getApproved",
      "outputs": [
        {
          "internalType": "address",
          "name": "",
          "type": "address"
        }
      ],
      "stateMutability": "view",
      "type": "function"
    },
    {
      "inputs": [
        {
          "internalType": "uint256",
          "name": "estateId",
          "type": "uint256"
        }
      ],
      "name": "getEstateData",
      "outputs": [
        {
          "components": [
            {
              "internalType": "uint256[]",
              "name": "landIds",
              "type": "uint256[]"
            },
            {
              "internalType": "uint256[]",
              "name": "gameIds",
              "type": "uint256[]"
            }
          ],
          "internalType": "struct EstateBaseToken.EstateData",
          "name": "",
          "type": "tuple"
        }
      ],
      "stateMutability": "view",
      "type": "function"
    },
    {
      "inputs": [
        {
          "internalType": "uint256",
          "name": "gameId",
          "type": "uint256"
        }
      ],
      "name": "getLandsForGame",
      "outputs": [
        {
          "internalType": "uint256[]",
          "name": "",
          "type": "uint256[]"
        }
      ],
      "stateMutability": "view",
      "type": "function"
    },
    {
      "inputs": [],
      "name": "getMinter",
      "outputs": [
        {
          "internalType": "address",
          "name": "",
          "type": "address"
        }
      ],
      "stateMutability": "view",
      "type": "function"
    },
    {
      "inputs": [
        {
          "internalType": "uint256",
          "name": "tokenId",
          "type": "uint256"
        }
      ],
      "name": "getStorageId",
      "outputs": [
        {
          "internalType": "uint256",
          "name": "",
          "type": "uint256"
        }
      ],
      "stateMutability": "pure",
      "type": "function"
    },
    {
      "inputs": [],
      "name": "getTrustedForwarder",
      "outputs": [
        {
          "internalType": "address",
          "name": "trustedForwarder",
          "type": "address"
        }
      ],
      "stateMutability": "view",
      "type": "function"
    },
    {
      "inputs": [
        {
          "internalType": "address",
          "name": "trustedForwarder",
          "type": "address"
        },
        {
          "internalType": "contract LandToken",
          "name": "land",
          "type": "address"
        },
        {
          "internalType": "contract GameBaseToken",
          "name": "gameToken",
          "type": "address"
        },
        {
          "internalType": "uint8",
          "name": "chainIndex",
          "type": "uint8"
        }
      ],
      "name": "initV1",
      "outputs": [],
      "stateMutability": "nonpayable",
      "type": "function"
    },
    {
      "inputs": [
        {
          "internalType": "address",
          "name": "owner",
          "type": "address"
        },
        {
          "internalType": "address",
          "name": "operator",
          "type": "address"
        }
      ],
      "name": "isApprovedForAll",
      "outputs": [
        {
          "internalType": "bool",
          "name": "isOperator",
          "type": "bool"
        }
      ],
      "stateMutability": "view",
      "type": "function"
    },
    {
      "inputs": [
        {
          "internalType": "uint256",
          "name": "estateId",
          "type": "uint256"
        }
      ],
      "name": "isBurned",
      "outputs": [
        {
          "internalType": "bool",
          "name": "",
          "type": "bool"
        }
      ],
      "stateMutability": "view",
      "type": "function"
    },
    {
      "inputs": [
        {
          "internalType": "uint256",
          "name": "id",
          "type": "uint256"
        },
        {
          "internalType": "uint256[]",
          "name": "landIds",
          "type": "uint256[]"
        }
      ],
      "name": "isItInArray",
      "outputs": [
        {
          "internalType": "bool",
          "name": "",
          "type": "bool"
        }
      ],
      "stateMutability": "pure",
      "type": "function"
    },
    {
      "inputs": [
        {
          "internalType": "address",
          "name": "who",
          "type": "address"
        }
      ],
      "name": "isSuperOperator",
      "outputs": [
        {
          "internalType": "bool",
          "name": "",
          "type": "bool"
        }
      ],
      "stateMutability": "view",
      "type": "function"
    },
    {
      "inputs": [
        {
          "internalType": "address",
          "name": "forwarder",
          "type": "address"
        }
      ],
      "name": "isTrustedForwarder",
      "outputs": [
        {
          "internalType": "bool",
          "name": "",
          "type": "bool"
        }
      ],
      "stateMutability": "view",
      "type": "function"
    },
    {
      "inputs": [],
      "name": "name",
      "outputs": [
        {
          "internalType": "string",
          "name": "",
          "type": "string"
        }
      ],
      "stateMutability": "pure",
      "type": "function"
    },
    {
      "inputs": [
        {
          "internalType": "address",
          "name": "",
          "type": "address"
        },
        {
          "internalType": "address",
          "name": "",
          "type": "address"
        },
        {
          "internalType": "uint256[]",
          "name": "",
          "type": "uint256[]"
        },
        {
          "internalType": "bytes",
          "name": "",
          "type": "bytes"
        }
      ],
      "name": "onERC721BatchReceived",
      "outputs": [
        {
          "internalType": "bytes4",
          "name": "",
          "type": "bytes4"
        }
      ],
      "stateMutability": "pure",
      "type": "function"
    },
    {
      "inputs": [
        {
          "internalType": "address",
          "name": "",
          "type": "address"
        },
        {
          "internalType": "address",
          "name": "",
          "type": "address"
        },
        {
          "internalType": "uint256",
          "name": "",
          "type": "uint256"
        },
        {
          "internalType": "bytes",
          "name": "",
          "type": "bytes"
        }
      ],
      "name": "onERC721Received",
      "outputs": [
        {
          "internalType": "bytes4",
          "name": "",
          "type": "bytes4"
        }
      ],
      "stateMutability": "pure",
      "type": "function"
    },
    {
      "inputs": [
        {
          "internalType": "uint256",
          "name": "id",
          "type": "uint256"
        }
      ],
      "name": "ownerOf",
      "outputs": [
        {
          "internalType": "address",
          "name": "owner",
          "type": "address"
        }
      ],
      "stateMutability": "view",
      "type": "function"
    },
    {
      "inputs": [
        {
          "internalType": "address",
          "name": "from",
          "type": "address"
        },
        {
          "internalType": "address",
          "name": "to",
          "type": "address"
        },
        {
          "internalType": "uint256[]",
          "name": "ids",
          "type": "uint256[]"
        },
        {
          "internalType": "bytes",
          "name": "data",
          "type": "bytes"
        }
      ],
      "name": "safeBatchTransferFrom",
      "outputs": [],
      "stateMutability": "nonpayable",
      "type": "function"
    },
    {
      "inputs": [
        {
          "internalType": "address",
          "name": "from",
          "type": "address"
        },
        {
          "internalType": "address",
          "name": "to",
          "type": "address"
        },
        {
          "internalType": "uint256",
          "name": "id",
          "type": "uint256"
        }
      ],
      "name": "safeTransferFrom",
      "outputs": [],
      "stateMutability": "nonpayable",
      "type": "function"
    },
    {
      "inputs": [
        {
          "internalType": "address",
          "name": "from",
          "type": "address"
        },
        {
          "internalType": "address",
          "name": "to",
          "type": "address"
        },
        {
          "internalType": "uint256",
          "name": "id",
          "type": "uint256"
        },
        {
          "internalType": "bytes",
          "name": "data",
          "type": "bytes"
        }
      ],
      "name": "safeTransferFrom",
      "outputs": [],
      "stateMutability": "nonpayable",
      "type": "function"
    },
    {
      "inputs": [
        {
          "internalType": "address",
          "name": "operator",
          "type": "address"
        },
        {
          "internalType": "bool",
          "name": "approved",
          "type": "bool"
        }
      ],
      "name": "setApprovalForAll",
      "outputs": [],
      "stateMutability": "nonpayable",
      "type": "function"
    },
    {
      "inputs": [
        {
          "internalType": "address",
          "name": "sender",
          "type": "address"
        },
        {
          "internalType": "address",
          "name": "operator",
          "type": "address"
        },
        {
          "internalType": "bool",
          "name": "approved",
          "type": "bool"
        }
      ],
      "name": "setApprovalForAllFor",
      "outputs": [],
      "stateMutability": "nonpayable",
      "type": "function"
    },
    {
      "inputs": [
        {
          "internalType": "address",
          "name": "superOperator",
          "type": "address"
        },
        {
          "internalType": "bool",
          "name": "enabled",
          "type": "bool"
        }
      ],
      "name": "setSuperOperator",
      "outputs": [],
      "stateMutability": "nonpayable",
      "type": "function"
    },
    {
      "inputs": [
        {
          "internalType": "bytes4",
          "name": "id",
          "type": "bytes4"
        }
      ],
      "name": "supportsInterface",
      "outputs": [
        {
          "internalType": "bool",
          "name": "",
          "type": "bool"
        }
      ],
      "stateMutability": "pure",
      "type": "function"
    },
    {
      "inputs": [],
      "name": "symbol",
      "outputs": [
        {
          "internalType": "string",
          "name": "",
          "type": "string"
        }
      ],
      "stateMutability": "pure",
      "type": "function"
    },
    {
      "inputs": [
        {
          "internalType": "uint256",
          "name": "id",
          "type": "uint256"
        }
      ],
      "name": "tokenURI",
      "outputs": [
        {
          "internalType": "string",
          "name": "uri",
          "type": "string"
        }
      ],
      "stateMutability": "view",
      "type": "function"
    },
    {
      "inputs": [
        {
          "internalType": "address",
          "name": "from",
          "type": "address"
        },
        {
          "internalType": "address",
          "name": "to",
          "type": "address"
        },
        {
          "internalType": "uint256",
          "name": "id",
          "type": "uint256"
        }
      ],
      "name": "transferFrom",
      "outputs": [],
      "stateMutability": "nonpayable",
      "type": "function"
    },
    {
      "inputs": [
        {
          "internalType": "address",
          "name": "sender",
          "type": "address"
        },
        {
          "internalType": "address",
          "name": "to",
          "type": "address"
        },
        {
          "internalType": "uint256",
          "name": "estateId",
          "type": "uint256"
        },
        {
          "components": [
            {
              "internalType": "uint256[]",
              "name": "landIds",
              "type": "uint256[]"
            },
            {
              "internalType": "uint256[]",
              "name": "gameIds",
              "type": "uint256[]"
            }
          ],
          "internalType": "struct EstateBaseToken.EstateData",
          "name": "associatioToRetrieve",
          "type": "tuple"
        }
      ],
      "name": "transferFromBurnedEstate",
      "outputs": [],
      "stateMutability": "nonpayable",
      "type": "function"
    },
    {
      "inputs": [
        {
          "internalType": "address",
          "name": "from",
          "type": "address"
        },
        {
          "internalType": "address",
          "name": "to",
          "type": "address"
        },
        {
          "internalType": "uint256",
          "name": "estateId",
          "type": "uint256"
        },
        {
          "components": [
            {
              "internalType": "uint256[][]",
              "name": "landAndGameAssociationsToAdd",
              "type": "uint256[][]"
            },
            {
              "internalType": "uint256[][]",
              "name": "landAndGameAssociationsToRemove",
              "type": "uint256[][]"
            },
            {
              "internalType": "uint256[]",
              "name": "gameIdsToReuse",
              "type": "uint256[]"
            },
            {
              "internalType": "uint256[]",
              "name": "landIdsToAdd",
              "type": "uint256[]"
            },
            {
              "internalType": "uint256[]",
              "name": "landIdsToRemove",
              "type": "uint256[]"
            },
            {
              "internalType": "bytes32",
              "name": "uri",
              "type": "bytes32"
            }
          ],
          "internalType": "struct EstateBaseToken.UpdateEstateData",
          "name": "update",
          "type": "tuple"
        }
      ],
      "name": "updateEstateV2",
      "outputs": [
        {
          "internalType": "uint256",
          "name": "",
          "type": "uint256"
        }
      ],
      "stateMutability": "nonpayable",
      "type": "function"
    }
  ],
  "transactionHash": "0xe8ecfc17ff9317ab3959e364494b5d6979fdee1bbced6c6616f8fd5d4b6008eb",
  "args": [],
  "solcInputHash": "c98e50b6aaa9e2d9246638fbda3bd3e3",
  "bytecode": "0x608060405234801561001057600080fd5b506156f380620000216000396000f3fe608060405234801561001057600080fd5b50600436106102925760003560e01c80636e9960c311610160578063a22cb465116100d8578063db44fe071161008c578063eeb5a5d111610071578063eeb5a5d114610604578063f366751714610617578063f56baa0e1461063057610292565b8063db44fe07146105c1578063e985e9c5146105f157610292565b8063b88d4fde116100bd578063b88d4fde1461058a578063c87b56dd1461059d578063ce1b815f146105b057610292565b8063a22cb46514610564578063ac9fe4211461057757610292565b80639381da6e1161012f5780639d765813116101145780639d7658131461052b5780639d7a3b871461053e5780639df4c3bf1461055157610292565b80639381da6e146104d257806395d89b41146104f257610292565b80636e9960c31461048857806370a082311461049957806379cc6790146104ac5780638f283970146104bf57610292565b806323b872dd1161020e57806342966c68116101c2578063572b6c05116101a7578063572b6c05146104275780636352211e14610449578063654b748a1461045c57610292565b806342966c68146104065780634b808c461461041957610292565b80632b991746116101f35780632b991746146103cd5780632c4d4d18146103e057806342842e0e146103f357610292565b806323b872dd146103a757806328cfbd46146103ba57610292565b80630a148eb31161026557806315ddc5351161024a57806315ddc5351461035357806321ab0c711461036657806322e695391461038757610292565b80630a148eb314610314578063150b7a021461032757610292565b806301ffc9a71461029757806306fdde03146102bf578063081812fc146102d4578063095ea7b3146102ff575b600080fd5b6102aa6102a5366004614ea7565b610643565b60405190151581526020015b60405180910390f35b6102c76106ae565b6040516102b691906151a6565b6102e76102e2366004614edf565b6106e6565b6040516001600160a01b0390911681526020016102b6565b61031261030d366004614e7c565b610785565b005b610312610322366004614c53565b6108d0565b61033a610335366004614b26565b610b10565b6040516001600160e01b031990911681526020016102b6565b61031261036136600461497b565b610b81565b610379610374366004614edf565b610bf3565b6040519081526020016102b6565b61039a610395366004614edf565b610c02565b6040516102b69190615193565b6103126103b5366004614ae6565b610cec565b6103126103c836600461497b565b610dba565b6103126103db366004614ae6565b610e2f565b6103126103ee36600461490b565b610fc7565b610312610401366004614ae6565b6110b0565b610312610414366004614edf565b6110cb565b61033a61033536600461497b565b6102aa61043536600461490b565b6002546001600160a01b0390811691161490565b6102e7610457366004614edf565b611103565b6102aa61046a36600461490b565b6001600160a01b031660009081526001602052604090205460ff1690565b6000546001600160a01b03166102e7565b6103796104a736600461490b565b611166565b6103126104ba366004614e7c565b6111da565b6103126104cd36600461490b565b61138e565b6104e56104e0366004614edf565b61145e565b6040516102b6919061521d565b60408051808201909152600681527f455354415445000000000000000000000000000000000000000000000000000060208201526102c7565b610312610539366004614e27565b61163d565b6102aa61054c366004614ef7565b611788565b61037961055f366004614cc1565b6117ed565b610312610572366004614df3565b611e20565b610312610585366004614df3565b611e32565b610312610598366004614b97565b611f15565b6102c76105ab366004614edf565b611fa2565b6002546001600160a01b03166102e7565b6102aa6105cf366004614edf565b63ffffffff1916600090815260046020526040902054600160a01b9081161490565b6102aa6105ff366004614943565b61202d565b610312610612366004614a3a565b61207f565b6102e7600754630100000090046001600160a01b031690565b61037961063e366004614a80565b612170565b60007f01ffc9a7000000000000000000000000000000000000000000000000000000006001600160e01b0319831614806106a657507f80ac58cd000000000000000000000000000000000000000000000000000000006001600160e01b03198316145b90505b919050565b60408051808201909152601981527f5468652053616e64626f783a2045535441544520746f6b656e0000000000000060208201525b90565b60008060006106f484612324565b90925090506001600160a01b0382166107545760405162461bcd60e51b815260206004820152601160248201527f4e4f4e4558495354454e545f544f4b454e00000000000000000000000000000060448201526064015b60405180910390fd5b801561077a575050506000818152600660205260409020546001600160a01b03166106a9565b6000925050506106a9565b63ffffffff198116600090815260046020526040812054906107a683612369565b905060006107b26123c2565b90506001600160a01b03821661080a5760405162461bcd60e51b815260206004820152601160248201527f4e4f4e4558495354454e545f544f4b454e000000000000000000000000000000604482015260640161074b565b806001600160a01b0316826001600160a01b0316148061084257506001600160a01b03811660009081526001602052604090205460ff165b8061087257506001600160a01b0380831660009081526005602090815260408083209385168352929052205460ff165b6108be5760405162461bcd60e51b815260206004820152601560248201527f554e415554484f52495a45445f415050524f56414c0000000000000000000000604482015260640161074b565b6108c983868661240c565b5050505050565b63ffffffff198216600090815260046020526040902054600160a01b9081161461093c5760405162461bcd60e51b815260206004820152601060248201527f41535345545f4e4f545f4255524e454400000000000000000000000000000000604482015260640161074b565b6001600160a01b0384163014156109955760405162461bcd60e51b815260206004820152600d60248201527f4e4f545f46524f4d5f5448495300000000000000000000000000000000000000604482015260640161074b565b63ffffffff19821660006109a76123c2565b9050856001600160a01b0316816001600160a01b031614806109e157506001600160a01b03811660009081526001602052604090205460ff165b610a2d5760405162461bcd60e51b815260206004820152600e60248201527f4e4f545f415554484f52495a4544000000000000000000000000000000000000604482015260640161074b565b610a3786856124c2565b610abf8585610a4960208701876152ff565b80806020026020016040519081016040528093929190818152602001838360200280828437600092019190915250610a889250505060208801886152ff565b8080602002602001604051908101604052809392919081815260200183836020028082843760009201919091525061258f92505050565b610b088286610ace86806152ff565b80806020026020016040519081016040528093929190818152602001838360200280828437600092019190915250600192506127c6915050565b505050505050565b60405162461bcd60e51b815260206004820152603260248201527f706c656173652063616c6c20637265617465457374617465206f72207570646160448201527f74654573746174652066756e6374696f6e730000000000000000000000000000606482015260009060840161074b565b610b08868686868080602002602001604051908101604052809392919081815260200183836020028082843760009201919091525050604080516020601f8a01819004810282018101909252888152925088915087908190840183828082843760009201829052509250612a06915050565b600063ffffffff1982166106a6565b6000818152600a6020526040812060609190610c1d90612e0a565b67ffffffffffffffff811115610c4357634e487b7160e01b600052604160045260246000fd5b604051908082528060200260200182016040528015610c6c578160200160208202803683370190505b50905060005b6000848152600a60205260409020610c8990612e0a565b811015610ce5576000848152600a60205260409020610ca89082612e14565b828281518110610cc857634e487b7160e01b600052603260045260246000fd5b602090810291909101015280610cdd816155c1565b915050610c72565b5092915050565b610cf7838383612e20565b50610d03838383613038565b6001600160a01b0382163b15158015610d415750610d41827f5e8bf644000000000000000000000000000000000000000000000000000000006130fd565b15610db557610d69610d516123c2565b848484604051806020016040528060008152506131c4565b610db55760405162461bcd60e51b815260206004820152601860248201527f4552433732315f5452414e534645525f52454a45435445440000000000000000604482015260640161074b565b505050565b610b08868686868080602002602001604051908101604052809392919081815260200183836020028082843760009201919091525050604080516020601f8a01819004810282018101909252888152925088915087908190840183828082843760009201919091525060019250612a06915050565b63ffffffff19811660009081526004602052604081205490610e4f6123c2565b90506001600160a01b038516610ea75760405162461bcd60e51b815260206004820152601360248201527f5a45524f5f414444524553535f53454e44455200000000000000000000000000604482015260640161074b565b846001600160a01b0316816001600160a01b03161480610edf57506001600160a01b03811660009081526001602052604090205460ff165b80610f0f57506001600160a01b0380861660009081526005602090815260408083209385168352929052205460ff165b610f5b5760405162461bcd60e51b815260206004820152601560248201527f554e415554484f52495a45445f415050524f56414c0000000000000000000000604482015260640161074b565b846001600160a01b0316826001600160a01b031614610fbc5760405162461bcd60e51b815260206004820152601060248201527f4f574e45525f4e4f545f53454e44455200000000000000000000000000000000604482015260640161074b565b6108c982858561240c565b6000546001600160a01b031633146110215760405162461bcd60e51b815260206004820152600a60248201527f41444d494e5f4f4e4c5900000000000000000000000000000000000000000000604482015260640161074b565b600754604080516001600160a01b0363010000009093048316815291831660208301527f3b0007eb941cf645526cbb3a4fdaecda9d28ce4843167d9263b536a1f1edc0f6910160405180910390a1600780546001600160a01b039092166301000000027fffffffffffffffffff0000000000000000000000000000000000000000ffffff909216919091179055565b610db583838360405180602001604052806000815250611f15565b60006110d56123c2565b90506110e2816002613283565b6110ec81836133da565b6110ff816110f984612369565b8461352d565b5050565b600061110e82612369565b90506001600160a01b0381166106a95760405162461bcd60e51b815260206004820152601160248201527f4e4f4e4558495354414e545f544f4b454e000000000000000000000000000000604482015260640161074b565b60006001600160a01b0382166111be5760405162461bcd60e51b815260206004820152601260248201527f5a45524f5f414444524553535f4f574e45520000000000000000000000000000604482015260640161074b565b506001600160a01b031660009081526003602052604090205490565b6001600160a01b0382166112305760405162461bcd60e51b815260206004820152601560248201527f4e4f545f46524f4d5f5a45524f5f414444524553530000000000000000000000604482015260640161074b565b60008061123c83612324565b90925090506001600160a01b0382166112975760405162461bcd60e51b815260206004820152601160248201527f4e4f4e4558495354454e545f544f4b454e000000000000000000000000000000604482015260640161074b565b60006112a16123c2565b9050846001600160a01b0316816001600160a01b031614806112e457508180156112e457506000848152600660205260409020546001600160a01b038281169116145b8061130757506001600160a01b03811660009081526001602052604090205460ff165b8061133757506001600160a01b0380861660009081526005602090815260408083209385168352929052205460ff165b6113835760405162461bcd60e51b815260206004820152601160248201527f554e415554484f52495a45445f4255524e000000000000000000000000000000604482015260640161074b565b6108c985848661352d565b6000546001600160a01b031633146113e85760405162461bcd60e51b815260206004820152601360248201527f41444d494e5f4143434553535f44454e49454400000000000000000000000000604482015260640161074b565b600054604080516001600160a01b03928316815291831660208301527f7e644d79422f17c01e4894b5f4f588d331ebfa28653d42ae832dc59e38c9798f910160405180910390a16000805473ffffffffffffffffffffffffffffffffffffffff19166001600160a01b0392909216919091179055565b6040805180820190915260608082526020820152600063ffffffff1983166000818152600960205260408120919250906114979061362b565b90506114d76040518060400160405280601781526020017f6c656e6774682066726f6d206573746174652064617461000000000000000000815250613636565b6114e0816136aa565b60008167ffffffffffffffff81111561150957634e487b7160e01b600052604160045260246000fd5b604051908082528060200260200182016040528015611532578160200160208202803683370190505b50905060008267ffffffffffffffff81111561155e57634e487b7160e01b600052604160045260246000fd5b604051908082528060200260200182016040528015611587578160200160208202803683370190505b50905060005b8381101561162257600085815260096020526040812081906115af908461371d565b91509150818584815181106115d457634e487b7160e01b600052603260045260246000fd5b6020026020010181815250508084848151811061160157634e487b7160e01b600052603260045260246000fd5b6020026020010181815250505050808061161a906155c1565b91505061158d565b50604080518082019091529182526020820152949350505050565b60075462010000900460ff1661165e57600754610100900460ff1615611662565b303b155b6116d45760405162461bcd60e51b815260206004820152602e60248201527f496e697469616c697a61626c653a20636f6e747261637420697320616c72656160448201527f647920696e697469616c697a6564000000000000000000000000000000000000606482015260840161074b565b60075462010000900460ff1615801561172157600780547fffffffffffffffffffffffffffffffffffffffffffffffffffffffffffff00ff62ff0000199091166201000017166101001790555b600c805473ffffffffffffffffffffffffffffffffffffffff199081166001600160a01b0386811691909117909255600b80549091169186169190911790556007805460ff191660ff841617905580156108c9576007805462ff0000191690555050505050565b805160009081805b828110156117e257858582815181106117b957634e487b7160e01b600052603260045260246000fd5b602002602001015114156117d057600191506117e2565b806117da816155c1565b915050611790565b509150505b92915050565b60006117f985846133da565b600063ffffffff19841660a08401516000828152600860205260409020559050611824866001613283565b6000836000015160018151811061184b57634e487b7160e01b600052603260045260246000fd5b60200260200101515190506000846020015160018151811061187d57634e487b7160e01b600052603260045260246000fd5b6020026020010151519050600085604001515190506118a1848a886060015161373b565b8115611caa576118e56040518060400160405280601181526020017f77652073686f756c642062652068657265000000000000000000000000000000815250613636565b856020015160008151811061190a57634e487b7160e01b600052603260045260246000fd5b60200260200101515182146119615760405162461bcd60e51b815260206004820152601c60248201527f444946464552454e545f4c454e4754485f4c414e44535f47414d455300000000604482015260640161074b565b8286604001515111156119dc5760405162461bcd60e51b815260206004820152602e60248201527f47414d45535f544f5f52455553455f4d5553545f42455f50524553454e545f4960448201527f4e5f47414d45535f544f5f414444000000000000000000000000000000000000606482015260840161074b565b8186604001515110611a565760405162461bcd60e51b815260206004820152603160248201527f47414d45535f544f5f52455553455f4d5553545f42455f50524553454e545f4960448201527f4e5f47414d45535f544f5f52454d4f5645000000000000000000000000000000606482015260840161074b565b60005b81811015611b6457865180516001908110611a8457634e487b7160e01b600052603260045260246000fd5b60200260200101518181518110611aab57634e487b7160e01b600052603260045260246000fd5b602002602001015187604001518281518110611ad757634e487b7160e01b600052603260045260246000fd5b602002602001015114611b525760405162461bcd60e51b815260206004820152602e60248201527f47414d45535f544f5f52455553455f4d5553545f42455f50524553454e545f4960448201527f4e5f47414d45535f544f5f414444000000000000000000000000000000000000606482015260840161074b565b80611b5c816155c1565b915050611a59565b506000611b718284615545565b905060008167ffffffffffffffff811115611b9c57634e487b7160e01b600052604160045260246000fd5b604051908082528060200260200182016040528015611bc5578160200160208202803683370190505b509050825b84811015611c6e578860200151600181518110611bf757634e487b7160e01b600052603260045260246000fd5b60200260200101518181518110611c1e57634e487b7160e01b600052603260045260246000fd5b6020026020010151828583611c339190615545565b81518110611c5157634e487b7160e01b600052603260045260246000fd5b602090810291909101015280611c66816155c1565b915050611bca565b50611ca78b878a60200151600181518110611c9957634e487b7160e01b600052603260045260246000fd5b60200260200101518461258f565b50505b8215611d8c5785518051600090611cd157634e487b7160e01b600052603260045260246000fd5b6020026020010151518314611d285760405162461bcd60e51b815260206004820152601c60248201527f444946464552454e545f4c454e4754485f4c414e44535f47414d455300000000604482015260640161074b565b611d8c89858860000151600081518110611d5257634e487b7160e01b600052603260045260246000fd5b60200260200101518960000151600181518110611d7f57634e487b7160e01b600052603260045260246000fd5b6020026020010151613801565b611dad60405180606001604052806021815260200161567c60219139613636565b611dbe848a886080015160006127c6565b6000611dca8989613c60565b90506000611dd78661145e565b905081897f9e7c7d8ddece27ce406d7f0d11566fca4d42b7f4a641c0ef4efa85e359c6e4a58a604051611e0a9190615256565b60405180910390a3505050505050949350505050565b6110ff611e2b6123c2565b8383613d62565b6000546001600160a01b03163314611eb25760405162461bcd60e51b815260206004820152602c60248201527f6f6e6c792061646d696e20697320616c6c6f77656420746f206164642073757060448201527f6572206f70657261746f72730000000000000000000000000000000000000000606482015260840161074b565b6001600160a01b038216600081815260016020908152604091829020805460ff19168515159081179091558251938452908301527f44f92d27abdf4cfb6a7d712c3af68f3be086d4ca747ab802c36f67d6790060d8910160405180910390a15050565b611f20848484612e20565b50611f2c848484613038565b6001600160a01b0383163b15611f9c57611f50611f476123c2565b858585856131c4565b611f9c5760405162461bcd60e51b815260206004820152601860248201527f4552433732315f5452414e534645525f52454a45435445440000000000000000604482015260640161074b565b50505050565b60606000611faf83612369565b6001600160a01b031614156120065760405162461bcd60e51b815260206004820152601660248201527f4255524e45445f4f525f4e455645525f4d494e54454400000000000000000000604482015260640161074b565b63ffffffff19821660008181526008602052604090205461202690613e38565b9392505050565b6001600160a01b03808316600090815260056020908152604080832093851683529290529081205460ff16806120265750506001600160a01b031660009081526001602052604090205460ff16919050565b6001600160a01b0383166120d55760405162461bcd60e51b815260206004820152601660248201527f496e76616c69642073656e646572206164647265737300000000000000000000604482015260640161074b565b60006120df6123c2565b9050836001600160a01b0316816001600160a01b0316148061211957506001600160a01b03811660009081526001602052604090205460ff165b6121655760405162461bcd60e51b815260206004820152601c60248201527f554e415554484f52495a45445f415050524f56455f464f525f414c4c00000000604482015260640161074b565b611f9c848484613d62565b600061217d846001613283565b61218a60208301836152ff565b905061219683806152ff565b9050146121e55760405162461bcd60e51b815260206004820152601c60248201527f444946464552454e545f4c454e4754485f4c414e44535f47414d455300000000604482015260640161074b565b60008061224186866007601781819054906101000a900467ffffffffffffffff1680929190612213906155dc565b91906101000a81548167ffffffffffffffff021916908367ffffffffffffffff160217905550600180613e69565b6000818152600860205260409081902090870135905590925090506122e1868261226b87806152ff565b808060200260200160405190810160405280939291908181526020018383602002808284376000920191909152506122aa9250505060208901896152ff565b8080602002602001604051908101604052809392919081815260200183836020028082843760009201919091525061402a92505050565b8160007f0e1331b3d93257377695e09c5f57e70594445e5b47ebdd513b8db11f7ce9ed7b8660405161231391906151b9565b60405180910390a350949350505050565b63ffffffff1981166000908152600460205260408120548190600160a01b80821614156123545760009250612358565b8092505b600160ff1b80821614915050915091565b63ffffffff1981166000908152600460205260408120548260c882901c63ffffffff16600160a01b80841614806123a857508061ffff168261ffff1614155b156123b957600093505050506106a9565b50909392505050565b6002546000906001600160a01b031633141561240557507fffffffffffffffffffffffffffffffffffffffffffffffffffffffffffffffec36013560601c6106e3565b50336106e3565b600061241782612369565b90506001600160a01b0383166124395761243482858360006140ed565b61247b565b61244682858360016140ed565b6000828152600660205260409020805473ffffffffffffffffffffffffffffffffffffffff19166001600160a01b0385161790555b81836001600160a01b0316826001600160a01b03167f8c5be1e5ebec7d5bd14f71427d1e84f3dd0314c0f7b2291e5b200ac8c7c3b92560405160405180910390a450505050565b6001600160a01b0382166125185760405162461bcd60e51b815260206004820152601360248201527f53454e4445525f5a45524f5f4144445245535300000000000000000000000000604482015260640161074b565b63ffffffff1981166000908152600460205260409020546001600160a01b0316826001600160a01b0316146110ff5760405162461bcd60e51b815260206004820152601b60248201527f4c4153545f4f574e45525f4e4f545f455155414c5f53454e4445520000000000604482015260640161074b565b6125cd6040518060400160405280601081526020017f646f204920656e74657220686572653f00000000000000000000000000000000815250613636565b6125d782516136aa565b6125e181516136aa565b606060005b83518110156127585761262d6040518060400160405280601881526020017f67616d654173736f63696174696f6e73546f52656d6f76650000000000000000815250613636565b61265d84828151811061265057634e487b7160e01b600052603260045260246000fd5b60200260200101516136aa565b61268d84828151811061268057634e487b7160e01b600052603260045260246000fd5b6020026020010151610c02565b9150600a60008583815181106126b357634e487b7160e01b600052603260045260246000fd5b602002602001015181526020019081526020016000206000808201600080820160006126df91906147c8565b5050505060005b82518110156127455761273283828151811061271257634e487b7160e01b600052603260045260246000fd5b60209081029190910181015160008981526009909252604082209161418f565b508061273d816155c1565b9150506126e6565b5080612750816155c1565b9150506125e6565b50600c546040516315ddc53560e01b81526001600160a01b03909116906315ddc5359061278d9030908990879060040161511d565b600060405180830381600087803b1580156127a757600080fd5b505af11580156127bb573d6000803e3d6000fd5b505050505050505050565b6128046040518060400160405280601481526020017f696e736964652072656d6f7665206c616c6e6473000000000000000000000000815250613636565b815160005b818110156129d15761283484828151811061265057634e487b7160e01b600052603260045260246000fd5b60008061288386848151811061285a57634e487b7160e01b600052603260045260246000fd5b6020026020010151600960008b81526020019081526020016000206141a490919063ffffffff16565b915091506128c56040518060400160405280600c81526020017f52656d6f7665206c616e64730000000000000000000000000000000000000000815250613636565b6128ce816136aa565b84806128d8575080155b6129245760405162461bcd60e51b815260206004820152601760248201527f47414d455f5354494c4c5f484f4c44535f415f4c414e44000000000000000000604482015260640161074b565b61297086848151811061294757634e487b7160e01b600052603260045260246000fd5b6020026020010151600960008b81526020019081526020016000206141b390919063ffffffff16565b6129bc5760405162461bcd60e51b815260206004820152601360248201527f4c414e445f444f45535f4e4f545f455849535400000000000000000000000000604482015260640161074b565b505080806129c9906155c1565b915050612809565b50600b546040516315ddc53560e01b81526001600160a01b03909116906315ddc5359061278d9030908890889060040161511d565b6000612a106123c2565b90506000866001600160a01b0316826001600160a01b03161480612a4c57506001600160a01b03821660009081526001602052604090205460ff165b80612a7c57506001600160a01b0380881660009081526005602090815260408083209386168352929052205460ff165b90506001600160a01b038716612ad45760405162461bcd60e51b815260206004820152601460248201527f4e4f545f46524f4d5f5a45524f41444452455353000000000000000000000000604482015260640161074b565b6001600160a01b038616612b2a5760405162461bcd60e51b815260206004820152601260248201527f4e4f545f544f5f5a45524f414444524553530000000000000000000000000000604482015260640161074b565b845160005b8651811015612ce8576000878281518110612b5a57634e487b7160e01b600052603260045260246000fd5b602002602001015190508060001415612b805782612b7781615588565b93505050612cd6565b600080612b8c83612324565b915091508b6001600160a01b0316826001600160a01b031614612bf15760405162461bcd60e51b815260206004820152601b60248201527f42415443485452414e5346455246524f4d5f4e4f545f4f574e45520000000000604482015260640161074b565b8580612c1e5750808015612c1e57506000838152600660205260409020546001600160a01b038881169116145b612c6a5760405162461bcd60e51b815260206004820152600e60248201527f4e4f545f415554484f52495a4544000000000000000000000000000000000000604482015260640161074b565b612c91836004600063ffffffff1983168152602001908152602001600020548d60006140ed565b828b6001600160a01b03168d6001600160a01b03167fddf252ad1be2c89b69c2b068fc378daa952ba7f163c4a11628f55a4df523b3ef60405160405180910390a45050505b80612ce0816155c1565b915050612b2f565b50866001600160a01b0316886001600160a01b031614612d5d576001600160a01b03881660009081526003602052604081208054839290612d2a908490615545565b90915550506001600160a01b03871660009081526003602052604081208054839290612d579084906153e3565b90915550505b6001600160a01b0387163b15158015612da257508380612da25750612da2877f5e8bf644000000000000000000000000000000000000000000000000000000006130fd565b15612e0057612db483898989896141bf565b612e005760405162461bcd60e51b815260206004820152601e60248201527f4552433732315f42415443485f5452414e534645525f52454a45435445440000604482015260640161074b565b5050505050505050565b60006106a6825490565b6000612026838361427e565b6000806000612e2e84612324565b915091506000612e3c6123c2565b90506001600160a01b038316612e945760405162461bcd60e51b815260206004820152601160248201527f4e4f4e4558495354454e545f544f4b454e000000000000000000000000000000604482015260640161074b565b866001600160a01b0316836001600160a01b031614612ef55760405162461bcd60e51b815260206004820152601760248201527f434845434b5452414e534645525f4e4f545f4f574e4552000000000000000000604482015260640161074b565b6001600160a01b038616612f4b5760405162461bcd60e51b815260206004820152601260248201527f4e4f545f544f5f5a45524f414444524553530000000000000000000000000000604482015260640161074b565b826001600160a01b0316816001600160a01b03161480612f8357506001600160a01b03811660009081526001602052604090205460ff165b80612fb357506001600160a01b0380881660009081526005602090815260408083209385168352929052205460ff165b80612fdf5750818015612fdf57506000858152600660205260409020546001600160a01b038281169116145b61302b5760405162461bcd60e51b815260206004820152601560248201527f554e415554484f52495a45445f5452414e534645520000000000000000000000604482015260640161074b565b5060019695505050505050565b6001600160a01b038316600090815260036020526040812080549161305c83615588565b90915550506001600160a01b0382166000908152600360205260408120805491613085836155c1565b91905055506130b781600460006130a08563ffffffff191690565b8152602001908152602001600020548460006140ed565b80826001600160a01b0316846001600160a01b03167fddf252ad1be2c89b69c2b068fc378daa952ba7f163c4a11628f55a4df523b3ef60405160405180910390a4505050565b604080516001600160e01b031983166024808301919091528251808303909101815260449091018252602080820180517bffffffffffffffffffffffffffffffffffffffffffffffffffffffff167f01ffc9a7000000000000000000000000000000000000000000000000000000001781528251935160008082529485948594909392908183858c612710fa955080519450505050609e5a116131b057634e487b7160e01b600052600160045260246000fd5b8280156131ba5750815b9695505050505050565b600080846001600160a01b031663150b7a02888887876040518563ffffffff1660e01b81526004016131f99493929190615161565b602060405180830381600087803b15801561321357600080fd5b505af1158015613227573d6000803e3d6000fd5b505050506040513d601f19601f8201168201806040525081019061324b9190614ec3565b6001600160e01b0319167f150b7a02000000000000000000000000000000000000000000000000000000001491505095945050505050565b6001600160a01b0382166132d95760405162461bcd60e51b815260206004820152601660248201527f53454e4445525f49535f5a45524f5f4144445245535300000000000000000000604482015260640161074b565b60006132e36123c2565b905060ff821660011415613379576007546001600160a01b03630100000090910481169082168114806133275750836001600160a01b0316826001600160a01b0316145b6133735760405162461bcd60e51b815260206004820152601060248201527f554e415554484f52495a45445f41444400000000000000000000000000000000604482015260640161074b565b50610db5565b826001600160a01b0316816001600160a01b031614610db55760405162461bcd60e51b815260206004820152600e60248201527f4e4f545f415554484f52495a4544000000000000000000000000000000000000604482015260640161074b565b6000806133e683612324565b90925090506001600160a01b0382166134415760405162461bcd60e51b815260206004820152601460248201527f544f4b454e5f444f45535f4e4f545f4558495354000000000000000000000000604482015260640161074b565b600061344b6123c2565b9050846001600160a01b0316836001600160a01b0316148061348557506001600160a01b03811660009081526001602052604090205460ff165b806134b557506001600160a01b0380861660009081526005602090815260408083209385168352929052205460ff165b806134e157508180156134e157506000848152600660205260409020546001600160a01b038281169116145b6108c95760405162461bcd60e51b815260206004820152600c60248201527f4e4f545f415050524f5645440000000000000000000000000000000000000000604482015260640161074b565b816001600160a01b0316836001600160a01b03161461358e5760405162461bcd60e51b815260206004820152600960248201527f4e4f545f4f574e45520000000000000000000000000000000000000000000000604482015260640161074b565b63ffffffff198116600160a01b6135aa6001600160ff1b615545565b6000838152600460209081526040808320805494909416949094179092556001600160a01b038716815260039091529081208054916135e883615588565b909155505060405182906000906001600160a01b038716907fddf252ad1be2c89b69c2b068fc378daa952ba7f163c4a11628f55a4df523b3ef908390a450505050565b60006106a68261432d565b6136a78160405160240161364a91906151a6565b60408051601f198184030181529190526020810180517bffffffffffffffffffffffffffffffffffffffffffffffffffffffff167f41304fac00000000000000000000000000000000000000000000000000000000179052614338565b50565b6136a7816040516024016136c091815260200190565b60408051601f198184030181529190526020810180517bffffffffffffffffffffffffffffffffffffffffffffffffffffffff167ff5b1bba900000000000000000000000000000000000000000000000000000000179052614338565b600080808061372c8686614359565b909450925050505b9250929050565b805160005b8181101561379e5761378b83828151811061376b57634e487b7160e01b600052603260045260246000fd5b60209081029190910181015160008881526009909252604082209161418f565b5080613796816155c1565b915050613740565b50600b546040516315ddc53560e01b81526001600160a01b03909116906315ddc535906137d39086903090879060040161511d565b600060405180830381600087803b1580156137ed57600080fd5b505af1158015612e00573d6000803e3d6000fd5b6000815167ffffffffffffffff81111561382b57634e487b7160e01b600052604160045260246000fd5b604051908082528060200260200182016040528015613854578160200160208202803683370190505b50905060005b8351811015613bc157600083828151811061388557634e487b7160e01b600052603260045260246000fd5b602002602001015190506000806138b587858151811061285a57634e487b7160e01b600052603260045260246000fd5b915091506138c2816136aa565b80156139105760405162461bcd60e51b815260206004820152601560248201527f4c414e445f414c52454144595f4f434355504945440000000000000000000000604482015260640161074b565b61395e87858151811061393357634e487b7160e01b600052603260045260246000fd5b602002602001015184600960008c815260200190815260200160002061418f9092919063ffffffff16565b506139ab87858151811061398257634e487b7160e01b600052603260045260246000fd5b6020026020010151600a600086815260200190815260200160002061438490919063ffffffff16565b508215613bab57600186511115613ada578315806139fa5750856139d0600186615545565b815181106139ee57634e487b7160e01b600052603260045260246000fd5b60200260200101518314155b8015613aa25750600c546040517f6352211e0000000000000000000000000000000000000000000000000000000081526004810185905230916001600160a01b031690636352211e9060240160206040518083038186803b158015613a5e57600080fd5b505afa158015613a72573d6000803e3d6000fd5b505050506040513d601f19601f82011682018060405250810190613a969190614927565b6001600160a01b031614155b15613ad55782858581518110613ac857634e487b7160e01b600052603260045260246000fd5b6020026020010181815250505b613bab565b600c546040517f6352211e0000000000000000000000000000000000000000000000000000000081526004810185905230916001600160a01b031690636352211e9060240160206040518083038186803b158015613b3757600080fd5b505afa158015613b4b573d6000803e3d6000fd5b505050506040513d601f19601f82011682018060405250810190613b6f9190614927565b6001600160a01b031614613bab5782858581518110613b9e57634e487b7160e01b600052603260045260246000fd5b6020026020010181815250505b5050508080613bb9906155c1565b91505061385a565b508051156108c957613bea60405180606001604052806021815260200161569d60219139613636565b60005b8151811015613c2b57613c1982828151811061265057634e487b7160e01b600052603260045260246000fd5b80613c23816155c1565b915050613bed565b50600c546040516315ddc53560e01b81526001600160a01b03909116906315ddc5359061278d9088903090869060040161511d565b600080613c6f60606002615455565b613c7990846153fb565b90506000613c8960206002615455565b613c9390856153fb565b90508380613ca08161559f565b9150506000613cae86612369565b9050806001600160a01b0316876001600160a01b03161415613cd557613cd587828861352d565b6000613ce5858386866000613e69565b5090506000613cf382612369565b9050806001600160a01b0316836001600160a01b031614613d565760405162461bcd60e51b815260206004820152600960248201527f4e4f545f4f574e45520000000000000000000000000000000000000000000000604482015260640161074b565b50979650505050505050565b6001600160a01b03821660009081526001602052604090205460ff1615613dcb5760405162461bcd60e51b815260206004820152601760248201527f494e56414c49445f415050524f56414c5f4348414e4745000000000000000000604482015260640161074b565b6001600160a01b03838116600081815260056020908152604080832094871680845294825291829020805460ff191686151590811790915591519182527f17307eab39ab6107e8899845ad3d59bd9653f200f220920489ca2b5937696c31910160405180910390a3505050565b6060613e4382614390565b604051602001613e539190615042565b6040516020818303038152906040529050919050565b6000806001600160a01b038616613ec25760405162461bcd60e51b815260206004820152601a60248201527f43414e27545f53454e445f544f5f5a45524f5f41444452455353000000000000604482015260640161074b565b60008060008515613f535760075460019350613ee5908b908a9060ff1686614533565b915063ffffffff19821660008181526004602052604090205490915015613f4e5760405162461bcd60e51b815260206004820152601a60248201527f53544f524147455f49445f52455553455f464f5242494444454e000000000000604482015260640161074b565b613f76565b600754879350613f6a908b908a9060ff1686614533565b91505063ffffffff1981165b613faa6001600160a01b038a167affff0000000000000000000000000000000000000000000000000060c886901b166153e3565b6000828152600460209081526040808320939093556001600160a01b038c16825260039052908120805491613fde836155c1565b909155505060405182906001600160a01b038b16906000907fddf252ad1be2c89b69c2b068fc378daa952ba7f163c4a11628f55a4df523b3ef908290a490999098509650505050505050565b600082511161407b5760405162461bcd60e51b815260206004820152601460248201527f454d5054595f4c414e445f4944535f4152524159000000000000000000000000604482015260640161074b565b600b546040516315ddc53560e01b81526001600160a01b03909116906315ddc535906140af9087903090879060040161511d565b600060405180830381600087803b1580156140c957600080fd5b505af11580156140dd573d6000803e3d6000fd5b50505050611f9c84848484613801565b80156141395763ffffffff1984166000908152600460205260409020600160ff1b6001600160a01b03841673ffffffffffffffffffffffffffffffffffffffff19861617179055611f9c565b6001600160a01b0382166141526001600160ff1b615545565b841673ffffffffffffffffffffffffffffffffffffffff1916176004600063ffffffff198716815260208101919091526040016000205550505050565b600061419c8484846145b9565b949350505050565b600080808061372c86866145d6565b6000612026838361460f565b600080846001600160a01b0316634b808c46888887876040518563ffffffff1660e01b81526004016141f494939291906150d4565b602060405180830381600087803b15801561420e57600080fd5b505af1158015614222573d6000803e3d6000fd5b505050506040513d601f19601f820116820180604052508101906142469190614ec3565b6001600160e01b0319167f4b808c46000000000000000000000000000000000000000000000000000000001491505095945050505050565b815460009082106142f75760405162461bcd60e51b815260206004820152602260248201527f456e756d657261626c655365743a20696e646578206f7574206f6620626f756e60448201527f6473000000000000000000000000000000000000000000000000000000000000606482015260840161074b565b82600001828154811061431a57634e487b7160e01b600052603260045260246000fd5b9060005260206000200154905092915050565b60006106a682612e0a565b80516a636f6e736f6c652e6c6f67602083016000808483855afa5050505050565b600080806143678585612e14565b600081815260029690960160205260409095205494959350505050565b6000612026838361462c565b60408051603480825260608281019093528391600090826020820181803683370190505090507f6162636465666768696a6b6c6d6e6f707172737475767778797a32333435363760026143e46008866155fa565b901b60ff166020811061440757634e487b7160e01b600052603260045260246000fd5b1a60f81b8161441584615588565b9350838151811061443657634e487b7160e01b600052603260045260246000fd5b60200101907effffffffffffffffffffffffffffffffffffffffffffffffffffffffffffff1916908160001a9053506144706008846153fb565b92505b811561419c577f6162636465666768696a6b6c6d6e6f707172737475767778797a3233343536376144a56020856155fa565b602081106144c357634e487b7160e01b600052603260045260246000fd5b1a60f81b816144d184615588565b935083815181106144f257634e487b7160e01b600052603260045260246000fd5b60200101907effffffffffffffffffffffffffffffffffffffffffffffffffffffffffffff1916908160001a90535061452c6020846153fb565b9250614473565b600061ffff821661454660106002615455565b6145539060ff8616615526565b61455f60206002615455565b6145739067ffffffffffffffff8816615526565b61457f60606002615455565b614592906001600160a01b038a16615526565b61459c91906153e3565b6145a691906153e3565b6145b091906153e3565b95945050505050565b6000828152600284016020526040812082905561419c8484614384565b6000818152600283016020526040812054819080614604576145f8858561467b565b60009250925050613734565b600192509050613734565b600081815260028301602052604081208190556120268383614687565b6000818152600183016020526040812054614673575081546001818101845560008481526020808220909301849055845484825282860190935260409020919091556117e7565b5060006117e7565b60006120268383614693565b600061202683836146ab565b60008181526001830160205260408120541515612026565b600081815260018301602052604081205480156147be5760006146cf600183615545565b85549091506000906146e390600190615545565b9050600086600001828154811061470a57634e487b7160e01b600052603260045260246000fd5b906000526020600020015490508087600001848154811061473b57634e487b7160e01b600052603260045260246000fd5b6000918252602090912001556147528360016153e3565b6000828152600189016020526040902055865487908061478257634e487b7160e01b600052603160045260246000fd5b600190038181906000526020600020016000905590558660010160008781526020019081526020016000206000905560019450505050506117e7565b60009150506117e7565b50805460008255906000526020600020908101906136a791905b808211156147f657600081556001016147e2565b5090565b600082601f83011261480a578081fd5b8135602061481f61481a83615377565b615346565b82815281810190858301855b8581101561485457614842898684358b0101614861565b8452928401929084019060010161482b565b5090979650505050505050565b600082601f830112614871578081fd5b8135602061488161481a83615377565b828152818101908583018385028701840188101561489d578586fd5b855b858110156148545781358452928401929084019060010161489f565b803580151581146106a957600080fd5b60008083601f8401126148dc578182fd5b50813567ffffffffffffffff8111156148f3578182fd5b60208301915083602082850101111561373457600080fd5b60006020828403121561491c578081fd5b813561202681615650565b600060208284031215614938578081fd5b815161202681615650565b60008060408385031215614955578081fd5b823561496081615650565b9150602083013561497081615650565b809150509250929050565b60008060008060008060808789031215614993578182fd5b863561499e81615650565b955060208701356149ae81615650565b9450604087013567ffffffffffffffff808211156149ca578384fd5b818901915089601f8301126149dd578384fd5b8135818111156149eb578485fd5b8a602080830285010111156149fe578485fd5b602083019650809550506060890135915080821115614a1b578384fd5b50614a2889828a016148cb565b979a9699509497509295939492505050565b600080600060608486031215614a4e578283fd5b8335614a5981615650565b92506020840135614a6981615650565b9150614a77604085016148bb565b90509250925092565b600080600060608486031215614a94578081fd5b8335614a9f81615650565b92506020840135614aaf81615650565b9150604084013567ffffffffffffffff811115614aca578182fd5b840160608187031215614adb578182fd5b809150509250925092565b600080600060608486031215614afa578081fd5b8335614b0581615650565b92506020840135614b1581615650565b929592945050506040919091013590565b600080600080600060808688031215614b3d578283fd5b8535614b4881615650565b94506020860135614b5881615650565b935060408601359250606086013567ffffffffffffffff811115614b7a578182fd5b614b86888289016148cb565b969995985093965092949392505050565b60008060008060808587031215614bac578182fd5b8435614bb781615650565b9350602085810135614bc881615650565b935060408601359250606086013567ffffffffffffffff80821115614beb578384fd5b818801915088601f830112614bfe578384fd5b813581811115614c1057614c1061563a565b614c2284601f19601f84011601615346565b91508082528984828501011115614c37578485fd5b8084840185840137810190920192909252939692955090935050565b60008060008060808587031215614c68578182fd5b8435614c7381615650565b93506020850135614c8381615650565b925060408501359150606085013567ffffffffffffffff811115614ca5578182fd5b850160408188031215614cb6578182fd5b939692955090935050565b60008060008060808587031215614cd6578182fd5b8435614ce181615650565b93506020850135614cf181615650565b925060408501359150606085013567ffffffffffffffff80821115614d14578283fd5b9086019060c08289031215614d27578283fd5b614d3160c0615346565b823582811115614d3f578485fd5b614d4b8a8286016147fa565b825250602083013582811115614d5f578485fd5b614d6b8a8286016147fa565b602083015250604083013582811115614d82578485fd5b614d8e8a828601614861565b604083015250606083013582811115614da5578485fd5b614db18a828601614861565b606083015250608083013582811115614dc8578485fd5b614dd48a828601614861565b60808301525060a083013560a082015280935050505092959194509250565b60008060408385031215614e05578182fd5b8235614e1081615650565b9150614e1e602084016148bb565b90509250929050565b60008060008060808587031215614e3c578182fd5b8435614e4781615650565b93506020850135614e5781615650565b92506040850135614e6781615650565b9150606085013560ff81168114614cb6578182fd5b60008060408385031215614e8e578182fd5b8235614e9981615650565b946020939093013593505050565b600060208284031215614eb8578081fd5b813561202681615665565b600060208284031215614ed4578081fd5b815161202681615665565b600060208284031215614ef0578081fd5b5035919050565b60008060408385031215614f09578182fd5b82359150602083013567ffffffffffffffff811115614f26578182fd5b614f3285828601614861565b9150509250929050565b6000815180845260208085018081965082840281019150828601855b85811015614f82578284038952614f70848351614fdc565b98850198935090840190600101614f58565b5091979650505050505050565b60008284527f07ffffffffffffffffffffffffffffffffffffffffffffffffffffffffffffff831115614fc0578081fd5b6020830280836020870137939093016020019283525090919050565b6000815180845260208085019450808401835b8381101561500b57815187529582019590820190600101614fef565b509495945050505050565b6000815180845261502e81602086016020860161555c565b601f01601f19169290920160200192915050565b60007f697066733a2f2f626166796265690000000000000000000000000000000000008252825161507a81600e85016020870161555c565b7f2f00000000000000000000000000000000000000000000000000000000000000600e9390910192830152507f6573746174652e6a736f6e000000000000000000000000000000000000000000600f820152601a01919050565b60006001600160a01b038087168352808616602084015250608060408301526151006080830185614fdc565b82810360608401526151128185615016565b979650505050505050565b60006001600160a01b038086168352808516602084015250608060408301526151496080830184614fdc565b82810360609093019290925281526020019392505050565b60006001600160a01b038087168352808616602084015250836040830152608060608301526131ba6080830184615016565b6000602082526120266020830184614fdc565b6000602082526120266020830184615016565b6000602082526151c9838461539b565b606060208501526151de608085018284614f8f565b9150506151ee602085018561539b565b601f19858403016040860152615205838284614f8f565b92505050604084013560608401528091505092915050565b6000602082528251604060208401526152396060840182614fdc565b90506020840151601f198483030160408501526145b08282614fdc565b600060208252825160c0602084015261527260e0840182614f3c565b90506020840151601f19808584030160408601526152908383614f3c565b925060408601519150808584030160608601526152ad8383614fdc565b925060608601519150808584030160808601526152ca8383614fdc565b925060808601519150808584030160a0860152506152e88282614fdc565b91505060a084015160c08401528091505092915050565b6000808335601e19843603018112615315578283fd5b83018035915067ffffffffffffffff82111561532f578283fd5b602090810192508102360382131561373457600080fd5b604051601f8201601f1916810167ffffffffffffffff8111828210171561536f5761536f61563a565b604052919050565b600067ffffffffffffffff8211156153915761539161563a565b5060209081020190565b6000808335601e198436030181126153b1578283fd5b830160208101925035905067ffffffffffffffff8111156153d157600080fd5b60208102360383131561373457600080fd5b600082198211156153f6576153f661560e565b500190565b60008261540a5761540a615624565b500490565b80825b6001808611615421575061544c565b8187048211156154335761543361560e565b8086161561544057918102915b9490941c938002615412565b94509492505050565b600061202660001960ff85168460008261547157506001612026565b8161547e57506000612026565b8160018114615494576002811461549e576154cb565b6001915050612026565b60ff8411156154af576154af61560e565b6001841b9150848211156154c5576154c561560e565b50612026565b5060208310610133831016604e8410600b84101617156154fe575081810a838111156154f9576154f961560e565b612026565b61550b848484600161540f565b80860482111561551d5761551d61560e565b02949350505050565b60008160001904831182151516156155405761554061560e565b500290565b6000828210156155575761555761560e565b500390565b60005b8381101561557757818101518382015260200161555f565b83811115611f9c5750506000910152565b6000816155975761559761560e565b506000190190565b600061ffff808316818114156155b7576155b761560e565b6001019392505050565b60006000198214156155d5576155d561560e565b5060010190565b600067ffffffffffffffff808316818114156155b7576155b761560e565b60008261560957615609615624565b500690565b634e487b7160e01b600052601160045260246000fd5b634e487b7160e01b600052601260045260246000fd5b634e487b7160e01b600052604160045260246000fd5b6001600160a01b03811681146136a757600080fd5b6001600160e01b0319811681146136a757600080fdfe686572652077652073686f756c6420656e7465722072656d6f7665206c616e6473696e73696465205f6164644c616e647347616d65734173736f63696174696f6e20a2646970667358221220f64d16ce02fccde93746938834820c9818288e8fba9f420a1573d87fa922faf664736f6c63430008020033",
  "devdoc": {
    "kind": "dev",
    "methods": {
      "approve(address,uint256)": {
        "params": {
          "id": "The id of the token.",
          "operator": "The address receiving the approval."
        }
      },
      "approveFor(address,address,uint256)": {
        "params": {
          "id": "The id of the token.",
          "operator": "The address receiving the approval.",
          "sender": "The address giving the approval."
        }
      },
      "balanceOf(address)": {
        "params": {
          "owner": "The address to look for."
        },
        "returns": {
          "_0": "The number of tokens owned by the address."
        }
      },
      "batchTransferFrom(address,address,uint256[],bytes)": {
        "params": {
          "data": "Additional data.",
          "from": "The sender of the token.",
          "ids": "The ids of the tokens.",
          "to": "The recipient of the token."
        }
      },
      "burn(uint256)": {
        "params": {
          "id": "The token which will be burnt."
        }
      },
      "burnFrom(address,uint256)": {
        "params": {
          "from": "address whose token is to be burnt.",
          "id": "The token which will be burnt."
        }
      },
      "changeAdmin(address)": {
        "details": "Change the administrator to be `newAdmin`.",
        "params": {
          "newAdmin": "The address of the new administrator."
        }
      },
      "changeMinter(address)": {
        "details": "Change the minter to be `newMinter`.",
        "params": {
          "newMinter": "The address of the new minter."
        }
      },
      "createEstate(address,address,(uint256[],uint256[],bytes32))": {
        "params": {
          "creation": "The data to use to create the estate.",
          "from": "The address of the one creating the estate.",
          "to": "The address that will own the estate."
        }
      },
      "getAdmin()": {
        "details": "Get the current administrator of this contract.",
        "returns": {
          "_0": "The current administrator of this contract."
        }
      },
      "getApproved(uint256)": {
        "params": {
          "id": "The id of the token."
        },
        "returns": {
          "_0": "The address of the operator."
        }
      },
      "getMinter()": {
        "details": "Get the current minter of this contract.",
        "returns": {
          "_0": "The current minter of this contract."
        }
      },
      "getStorageId(uint256)": {
        "params": {
          "tokenId": "The tokenId for which to find the first token Id."
        },
        "returns": {
          "_0": "The storage id for this token."
        }
      },
      "isApprovedForAll(address,address)": {
        "params": {
          "operator": "The address of the operator.",
          "owner": "The address of the owner."
        },
        "returns": {
          "isOperator": "The status of the approval."
        }
      },
      "isSuperOperator(address)": {
        "params": {
          "who": "The address to query."
        },
        "returns": {
          "_0": "whether the address has superOperator rights."
        }
      },
      "name()": {
        "returns": {
          "_0": "The name of the token contract."
        }
      },
      "ownerOf(uint256)": {
        "params": {
          "id": "The id of the token."
        },
        "returns": {
          "owner": "The address of the token owner."
        }
      },
      "safeBatchTransferFrom(address,address,uint256[],bytes)": {
        "params": {
          "data": "Additional data.",
          "from": "The sender of the token.",
          "ids": "The ids of the tokens.",
          "to": "The recipient of the token."
        }
      },
      "safeTransferFrom(address,address,uint256)": {
        "params": {
          "from": "The send of the token.",
          "id": "The id of the token.",
          "to": "The recipient of the token."
        }
      },
      "safeTransferFrom(address,address,uint256,bytes)": {
        "params": {
          "data": "Additional data.",
          "from": "The sender of the token.",
          "id": "The id of the token.",
          "to": "The recipient of the token."
        }
      },
      "setApprovalForAll(address,bool)": {
        "params": {
          "approved": "The determination of the approval.",
          "operator": "The address receiving the approval."
        }
      },
      "setApprovalForAllFor(address,address,bool)": {
        "params": {
          "approved": "The determination of the approval.",
          "operator": "The address receiving the approval.",
          "sender": "The address giving the approval."
        }
      },
      "setSuperOperator(address,bool)": {
        "params": {
          "enabled": "set whether the superOperator is enabled or disabled.",
          "superOperator": "address that will be given/removed superOperator right."
        }
      },
      "supportsInterface(bytes4)": {
        "params": {
          "id": "The id of the interface."
        },
        "returns": {
          "_0": "Whether the interface is supported."
        }
      },
      "symbol()": {
        "returns": {
          "_0": "the symbol of the token contract."
        }
      },
      "tokenURI(uint256)": {
        "params": {
          "id": "The id of the token."
        },
        "returns": {
          "uri": "The URI of the token metadata."
        }
      },
      "transferFrom(address,address,uint256)": {
        "params": {
          "from": "The sender of the token.",
          "id": "The id of the token.",
          "to": "The recipient of the token."
        }
      },
      "transferFromBurnedEstate(address,address,uint256,(uint256[],uint256[]))": {
        "params": {
          "estateId": "The estate to recover lands from."
        }
      }
    },
    "version": 1
  },
  "userdoc": {
    "kind": "user",
    "methods": {
      "approve(address,uint256)": {
        "notice": "Approve an operator to spend tokens on the senders behalf."
      },
      "approveFor(address,address,uint256)": {
        "notice": "Approve an operator to spend tokens on the sender behalf."
      },
      "balanceOf(address)": {
        "notice": "Get the number of tokens owned by an address."
      },
      "batchTransferFrom(address,address,uint256[],bytes)": {
        "notice": "Transfer many tokens between 2 addresses."
      },
      "burn(uint256)": {
        "notice": "Burns token `id`."
      },
      "burnFrom(address,uint256)": {
        "notice": "Burn token`id` from `from`."
      },
      "createEstate(address,address,(uint256[],uint256[],bytes32))": {
        "notice": "Create a new estate token with lands."
      },
      "getApproved(uint256)": {
        "notice": "Get the approved operator for a specific token."
      },
      "getStorageId(uint256)": {
        "notice": "Get the storageID (no chainIndex or version data), which is constant for a given token."
      },
      "isApprovedForAll(address,address)": {
        "notice": "Check if the sender approved the operator."
      },
      "isSuperOperator(address)": {
        "notice": "check whether address `who` is given superOperator rights."
      },
      "name()": {
        "notice": "Return the name of the token contract."
      },
      "ownerOf(uint256)": {
        "notice": "Get the owner of a token."
      },
      "safeBatchTransferFrom(address,address,uint256[],bytes)": {
        "notice": "Transfer many tokens between 2 addresses, while ensuring the receiving contract has a receiver method."
      },
      "safeTransferFrom(address,address,uint256)": {
        "notice": "Transfer a token between 2 addresses letting the receiver know of the transfer."
      },
      "safeTransferFrom(address,address,uint256,bytes)": {
        "notice": "Transfer a token between 2 addresses letting the receiver knows of the transfer."
      },
      "setApprovalForAll(address,bool)": {
        "notice": "Set the approval for an operator to manage all the tokens of the sender."
      },
      "setApprovalForAllFor(address,address,bool)": {
        "notice": "Set the approval for an operator to manage all the tokens of the sender."
      },
      "setSuperOperator(address,bool)": {
        "notice": "Enable or disable the ability of `superOperator` to transfer tokens of all (superOperator rights)."
      },
      "supportsInterface(bytes4)": {
        "notice": "Check if the contract supports an interface. 0x01ffc9a7 is ERC-165. 0x80ac58cd is ERC-721"
      },
      "symbol()": {
        "notice": "Get the symbol of the token contract."
      },
      "tokenURI(uint256)": {
        "notice": "Return the URI of a specific token."
      },
      "transferFrom(address,address,uint256)": {
        "notice": "Transfer a token between 2 addresses."
      }
    },
    "version": 1
  },
  "storageLayout": {
    "storage": [
      {
        "astId": 31849,
        "contract": "src/solc_0.8/polygon/child/ChildEstateTokenV1.sol:ChildEstateTokenV1",
        "label": "_admin",
        "offset": 0,
        "slot": "0",
        "type": "t_address"
      },
      {
        "astId": 32081,
        "contract": "src/solc_0.8/polygon/child/ChildEstateTokenV1.sol:ChildEstateTokenV1",
        "label": "_superOperators",
        "offset": 0,
        "slot": "1",
        "type": "t_mapping(t_address,t_bool)"
      },
      {
        "astId": 29950,
        "contract": "src/solc_0.8/polygon/child/ChildEstateTokenV1.sol:ChildEstateTokenV1",
        "label": "_trustedForwarder",
        "offset": 0,
        "slot": "2",
        "type": "t_address"
      },
      {
        "astId": 30134,
        "contract": "src/solc_0.8/polygon/child/ChildEstateTokenV1.sol:ChildEstateTokenV1",
        "label": "_numNFTPerAddress",
        "offset": 0,
        "slot": "3",
        "type": "t_mapping(t_address,t_uint256)"
      },
      {
        "astId": 30138,
        "contract": "src/solc_0.8/polygon/child/ChildEstateTokenV1.sol:ChildEstateTokenV1",
        "label": "_owners",
        "offset": 0,
        "slot": "4",
        "type": "t_mapping(t_uint256,t_uint256)"
      },
      {
        "astId": 30144,
        "contract": "src/solc_0.8/polygon/child/ChildEstateTokenV1.sol:ChildEstateTokenV1",
        "label": "_operatorsForAll",
        "offset": 0,
        "slot": "5",
        "type": "t_mapping(t_address,t_mapping(t_address,t_bool))"
      },
      {
        "astId": 30148,
        "contract": "src/solc_0.8/polygon/child/ChildEstateTokenV1.sol:ChildEstateTokenV1",
        "label": "_operators",
        "offset": 0,
        "slot": "6",
        "type": "t_mapping(t_uint256,t_address)"
      },
      {
        "astId": 30150,
        "contract": "src/solc_0.8/polygon/child/ChildEstateTokenV1.sol:ChildEstateTokenV1",
        "label": "_chainIndex",
        "offset": 0,
        "slot": "7",
        "type": "t_uint8"
      },
      {
        "astId": 2675,
        "contract": "src/solc_0.8/polygon/child/ChildEstateTokenV1.sol:ChildEstateTokenV1",
        "label": "_initialized",
        "offset": 1,
        "slot": "7",
        "type": "t_bool"
      },
      {
        "astId": 2678,
        "contract": "src/solc_0.8/polygon/child/ChildEstateTokenV1.sol:ChildEstateTokenV1",
        "label": "_initializing",
        "offset": 2,
        "slot": "7",
        "type": "t_bool"
      },
      {
        "astId": 31909,
        "contract": "src/solc_0.8/polygon/child/ChildEstateTokenV1.sol:ChildEstateTokenV1",
        "label": "_minter",
        "offset": 3,
        "slot": "7",
        "type": "t_address"
      },
      {
        "astId": 34782,
        "contract": "src/solc_0.8/polygon/child/ChildEstateTokenV1.sol:ChildEstateTokenV1",
        "label": "_nextId",
        "offset": 23,
        "slot": "7",
        "type": "t_uint64"
      },
      {
        "astId": 34786,
        "contract": "src/solc_0.8/polygon/child/ChildEstateTokenV1.sol:ChildEstateTokenV1",
        "label": "_metaData",
        "offset": 0,
        "slot": "8",
        "type": "t_mapping(t_uint256,t_bytes32)"
      },
      {
        "astId": 34791,
        "contract": "src/solc_0.8/polygon/child/ChildEstateTokenV1.sol:ChildEstateTokenV1",
        "label": "estates",
        "offset": 0,
        "slot": "9",
        "type": "t_mapping(t_uint256,t_struct(UintToUintMap)33199_storage)"
      },
      {
        "astId": 34796,
        "contract": "src/solc_0.8/polygon/child/ChildEstateTokenV1.sol:ChildEstateTokenV1",
        "label": "gamesToLands",
        "offset": 0,
        "slot": "10",
        "type": "t_mapping(t_uint256,t_struct(UintSet)2158_storage)"
      },
      {
        "astId": 34799,
        "contract": "src/solc_0.8/polygon/child/ChildEstateTokenV1.sol:ChildEstateTokenV1",
        "label": "_land",
        "offset": 0,
        "slot": "11",
        "type": "t_contract(LandToken)34700"
      },
      {
        "astId": 34802,
        "contract": "src/solc_0.8/polygon/child/ChildEstateTokenV1.sol:ChildEstateTokenV1",
        "label": "_gameToken",
        "offset": 0,
        "slot": "12",
        "type": "t_contract(GameBaseToken)16197"
      }
    ],
    "types": {
      "t_address": {
        "encoding": "inplace",
        "label": "address",
        "numberOfBytes": "20"
      },
      "t_array(t_bytes32)dyn_storage": {
        "base": "t_bytes32",
        "encoding": "dynamic_array",
        "label": "bytes32[]",
        "numberOfBytes": "32"
      },
      "t_bool": {
        "encoding": "inplace",
        "label": "bool",
        "numberOfBytes": "1"
      },
      "t_bytes32": {
        "encoding": "inplace",
        "label": "bytes32",
        "numberOfBytes": "32"
      },
      "t_contract(GameBaseToken)16197": {
        "encoding": "inplace",
        "label": "contract GameBaseToken",
        "numberOfBytes": "20"
      },
      "t_contract(LandToken)34700": {
        "encoding": "inplace",
        "label": "contract LandToken",
        "numberOfBytes": "20"
      },
      "t_mapping(t_address,t_bool)": {
        "encoding": "mapping",
        "key": "t_address",
        "label": "mapping(address => bool)",
        "numberOfBytes": "32",
        "value": "t_bool"
      },
      "t_mapping(t_address,t_mapping(t_address,t_bool))": {
        "encoding": "mapping",
        "key": "t_address",
        "label": "mapping(address => mapping(address => bool))",
        "numberOfBytes": "32",
        "value": "t_mapping(t_address,t_bool)"
      },
      "t_mapping(t_address,t_uint256)": {
        "encoding": "mapping",
        "key": "t_address",
        "label": "mapping(address => uint256)",
        "numberOfBytes": "32",
        "value": "t_uint256"
      },
      "t_mapping(t_bytes32,t_uint256)": {
        "encoding": "mapping",
        "key": "t_bytes32",
        "label": "mapping(bytes32 => uint256)",
        "numberOfBytes": "32",
        "value": "t_uint256"
      },
      "t_mapping(t_uint256,t_address)": {
        "encoding": "mapping",
        "key": "t_uint256",
        "label": "mapping(uint256 => address)",
        "numberOfBytes": "32",
        "value": "t_address"
      },
      "t_mapping(t_uint256,t_bytes32)": {
        "encoding": "mapping",
        "key": "t_uint256",
        "label": "mapping(uint256 => bytes32)",
        "numberOfBytes": "32",
        "value": "t_bytes32"
      },
      "t_mapping(t_uint256,t_struct(UintSet)2158_storage)": {
        "encoding": "mapping",
        "key": "t_uint256",
        "label": "mapping(uint256 => struct EnumerableSet.UintSet)",
        "numberOfBytes": "32",
        "value": "t_struct(UintSet)2158_storage"
      },
      "t_mapping(t_uint256,t_struct(UintToUintMap)33199_storage)": {
        "encoding": "mapping",
        "key": "t_uint256",
        "label": "mapping(uint256 => struct EnumerableMap.UintToUintMap)",
        "numberOfBytes": "32",
        "value": "t_struct(UintToUintMap)33199_storage"
      },
      "t_mapping(t_uint256,t_uint256)": {
        "encoding": "mapping",
        "key": "t_uint256",
        "label": "mapping(uint256 => uint256)",
        "numberOfBytes": "32",
        "value": "t_uint256"
      },
      "t_struct(Map)32969_storage": {
        "encoding": "inplace",
        "label": "struct EnumerableMap.Map",
        "members": [
          {
            "astId": 32964,
            "contract": "src/solc_0.8/polygon/child/ChildEstateTokenV1.sol:ChildEstateTokenV1",
            "label": "_keys",
            "offset": 0,
            "slot": "0",
            "type": "t_struct(UintSet)2158_storage"
          },
          {
            "astId": 32968,
            "contract": "src/solc_0.8/polygon/child/ChildEstateTokenV1.sol:ChildEstateTokenV1",
            "label": "_values",
            "offset": 0,
            "slot": "2",
            "type": "t_mapping(t_uint256,t_uint256)"
          }
        ],
        "numberOfBytes": "96"
      },
      "t_struct(Set)1754_storage": {
        "encoding": "inplace",
        "label": "struct EnumerableSet.Set",
        "members": [
          {
            "astId": 1749,
            "contract": "src/solc_0.8/polygon/child/ChildEstateTokenV1.sol:ChildEstateTokenV1",
            "label": "_values",
            "offset": 0,
            "slot": "0",
            "type": "t_array(t_bytes32)dyn_storage"
          },
          {
            "astId": 1753,
            "contract": "src/solc_0.8/polygon/child/ChildEstateTokenV1.sol:ChildEstateTokenV1",
            "label": "_indexes",
            "offset": 0,
            "slot": "1",
            "type": "t_mapping(t_bytes32,t_uint256)"
          }
        ],
        "numberOfBytes": "64"
      },
      "t_struct(UintSet)2158_storage": {
        "encoding": "inplace",
        "label": "struct EnumerableSet.UintSet",
        "members": [
          {
            "astId": 2157,
            "contract": "src/solc_0.8/polygon/child/ChildEstateTokenV1.sol:ChildEstateTokenV1",
            "label": "_inner",
            "offset": 0,
            "slot": "0",
            "type": "t_struct(Set)1754_storage"
          }
        ],
        "numberOfBytes": "64"
      },
      "t_struct(UintToUintMap)33199_storage": {
        "encoding": "inplace",
        "label": "struct EnumerableMap.UintToUintMap",
        "members": [
          {
            "astId": 33198,
            "contract": "src/solc_0.8/polygon/child/ChildEstateTokenV1.sol:ChildEstateTokenV1",
            "label": "_inner",
            "offset": 0,
            "slot": "0",
            "type": "t_struct(Map)32969_storage"
          }
        ],
        "numberOfBytes": "96"
      },
      "t_uint256": {
        "encoding": "inplace",
        "label": "uint256",
        "numberOfBytes": "32"
      },
      "t_uint64": {
        "encoding": "inplace",
        "label": "uint64",
        "numberOfBytes": "8"
      },
      "t_uint8": {
        "encoding": "inplace",
        "label": "uint8",
        "numberOfBytes": "1"
      }
    }
  }
}