{
  "address": "0xCd5695Ab4EFE1e5f4EFCD05957Ca80C5d6feF2A3",
  "abi": [
    {
      "inputs": [
        {
          "internalType": "contract GameBaseToken",
          "name": "gameTokenContract",
          "type": "address"
        },
        {
          "internalType": "address",
          "name": "trustedForwarder",
          "type": "address"
        },
        {
          "internalType": "uint256",
          "name": "gameMintingFee",
          "type": "uint256"
        },
        {
          "internalType": "uint256",
          "name": "gameUpdateFee",
          "type": "uint256"
        },
        {
          "internalType": "address",
          "name": "feeBeneficiary",
          "type": "address"
        },
        {
          "internalType": "contract IERC20",
          "name": "sand",
          "type": "address"
        }
      ],
      "stateMutability": "nonpayable",
      "type": "constructor"
    },
    {
      "inputs": [
        {
          "internalType": "address",
          "name": "to",
          "type": "address"
        },
        {
          "components": [
            {
              "internalType": "uint256[]",
              "name": "assetIdsToRemove",
              "type": "uint256[]"
            },
            {
              "internalType": "uint256[]",
              "name": "assetAmountsToRemove",
              "type": "uint256[]"
            },
            {
              "internalType": "uint256[]",
              "name": "assetIdsToAdd",
              "type": "uint256[]"
            },
            {
              "internalType": "uint256[]",
              "name": "assetAmountsToAdd",
              "type": "uint256[]"
            },
            {
              "internalType": "bytes32",
              "name": "uri",
              "type": "bytes32"
            },
            {
              "internalType": "uint256",
              "name": "exactNumOfLandsRequired",
              "type": "uint256"
            }
          ],
          "internalType": "struct IGameToken.GameData",
          "name": "creation",
          "type": "tuple"
        },
        {
          "internalType": "address",
          "name": "editor",
          "type": "address"
        },
        {
          "internalType": "uint64",
          "name": "subId",
          "type": "uint64"
        }
      ],
      "name": "createGame",
      "outputs": [
        {
          "internalType": "uint256",
          "name": "gameId",
          "type": "uint256"
        }
      ],
      "stateMutability": "nonpayable",
      "type": "function"
    },
    {
      "inputs": [],
      "name": "getTrustedForwarder",
      "outputs": [
        {
          "internalType": "address",
          "name": "trustedForwarder",
          "type": "address"
        }
      ],
      "stateMutability": "view",
      "type": "function"
    },
    {
      "inputs": [
        {
          "internalType": "address",
          "name": "forwarder",
          "type": "address"
        }
      ],
      "name": "isTrustedForwarder",
      "outputs": [
        {
          "internalType": "bool",
          "name": "",
          "type": "bool"
        }
      ],
      "stateMutability": "view",
      "type": "function"
    },
    {
      "inputs": [
        {
          "internalType": "uint256",
          "name": "gameId",
          "type": "uint256"
        },
        {
          "components": [
            {
              "internalType": "uint256[]",
              "name": "assetIdsToRemove",
              "type": "uint256[]"
            },
            {
              "internalType": "uint256[]",
              "name": "assetAmountsToRemove",
              "type": "uint256[]"
            },
            {
              "internalType": "uint256[]",
              "name": "assetIdsToAdd",
              "type": "uint256[]"
            },
            {
              "internalType": "uint256[]",
              "name": "assetAmountsToAdd",
              "type": "uint256[]"
            },
            {
              "internalType": "bytes32",
              "name": "uri",
              "type": "bytes32"
            },
            {
              "internalType": "uint256",
              "name": "exactNumOfLandsRequired",
              "type": "uint256"
            }
          ],
          "internalType": "struct IGameToken.GameData",
          "name": "update",
          "type": "tuple"
        }
      ],
      "name": "updateGame",
      "outputs": [
        {
          "internalType": "uint256",
          "name": "newId",
          "type": "uint256"
        }
      ],
      "stateMutability": "nonpayable",
      "type": "function"
    }
  ],
  "transactionHash": "0xd6bc0706797784c52a04b56fb4763ad6857e0cd9ee500ff8bf290931b798c97f",
  "args": [
    "0x6bDCA93BE8f547A11058F720FEfd51827Ff81c77",
    "0x9399BB24DBB5C4b782C70c2969F58716Ebbd6a3b",
    300,
    100,
    "0xa5Eb9C9Eb4F4c35B9Be8cFaAA7909F9ebe6Cb609",
    "0x592daadC9eA7F56A81De1FD27A723Bd407709c46"
  ],
  "solcInputHash": "c98e50b6aaa9e2d9246638fbda3bd3e3",
  "bytecode": "0x61012060405234801561001157600080fd5b50604051610e33380380610e33833981016040819052610030916100a0565b606086811b6001600160601b031990811660805260a086905260c085905283821b811660e0529082901b16610100526100738561007e602090811b6104dd17901c565b50505050505061012b565b600080546001600160a01b0319166001600160a01b0392909216919091179055565b60008060008060008060c087890312156100b8578182fd5b86516100c381610113565b60208801519096506100d481610113565b80955050604087015193506060870151925060808701516100f481610113565b60a088015190925061010581610113565b809150509295509295509295565b6001600160a01b038116811461012857600080fd5b50565b60805160601c60a05160c05160e05160601c6101005160601c610ca0610193600039600061060201526000818161056101526105d3015260006103f50152600060ff015260008181610153015281816102280152818161030b01526104490152610ca06000f3fe608060405234801561001057600080fd5b506004361061004c5760003560e01c8063572b6c0514610051578063ce1b815f14610088578063cfd99db7146100a8578063ebb31f7d146100c9575b600080fd5b61007361005f366004610706565b6000546001600160a01b0390811691161490565b60405190151581526020015b60405180910390f35b6100906100dc565b6040516001600160a01b03909116815260200161007f565b6100bb6100b6366004610745565b6100ec565b60405190815260200161007f565b6100bb6100d7366004610800565b6101ec565b6000546001600160a01b03165b90565b6000806100f7610517565b9050610123817f000000000000000000000000000000000000000000000000000000000000000061055f565b6040517fa313a4640000000000000000000000000000000000000000000000000000000081526001600160a01b037f0000000000000000000000000000000000000000000000000000000000000000169063a313a464906101909084908a908a908a908a9060040161097b565b602060405180830381600087803b1580156101aa57600080fd5b505af11580156101be573d6000803e3d6000fd5b505050506040513d601f19601f820116820180604052508101906101e291906107e8565b9695505050505050565b6040517f6352211e0000000000000000000000000000000000000000000000000000000081526004810183905260009081906001600160a01b037f00000000000000000000000000000000000000000000000000000000000000001690636352211e9060240160206040518083038186803b15801561026a57600080fd5b505afa15801561027e573d6000803e3d6000fd5b505050506040513d601f19601f820116820180604052508101906102a29190610729565b905060006102ae610517565b9050816001600160a01b0316816001600160a01b0316148061038557506040517fa776b8820000000000000000000000000000000000000000000000000000000081526001600160a01b03838116600483015282811660248301527f0000000000000000000000000000000000000000000000000000000000000000169063a776b8829060440160206040518083038186803b15801561034d57600080fd5b505afa158015610361573d6000803e3d6000fd5b505050506040513d601f19601f8201168201806040525081019061038591906107c8565b6103ef576040517f08c379a000000000000000000000000000000000000000000000000000000000815260206004820152601260248201527f415554485f4143434553535f44454e4945440000000000000000000000000000604482015260640160405180910390fd5b610419817f000000000000000000000000000000000000000000000000000000000000000061055f565b6040517f03e97cb20000000000000000000000000000000000000000000000000000000081526001600160a01b037f000000000000000000000000000000000000000000000000000000000000000016906303e97cb29061048290849089908990600401610a9a565b602060405180830381600087803b15801561049c57600080fd5b505af11580156104b0573d6000803e3d6000fd5b505050506040513d601f19601f820116820180604052508101906104d491906107e8565b95945050505050565b600080547fffffffffffffffffffffffff0000000000000000000000000000000000000000166001600160a01b0392909216919091179055565b600080546001600160a01b031633141561055857507fffffffffffffffffffffffffffffffffffffffffffffffffffffffffffffffec36013560601c6100e9565b50336100e9565b7f00000000000000000000000000000000000000000000000000000000000000006001600160a01b03161580159061059657508015155b15610680576040517f23b872dd0000000000000000000000000000000000000000000000000000000081526001600160a01b0383811660048301527f000000000000000000000000000000000000000000000000000000000000000081166024830152604482018390527f000000000000000000000000000000000000000000000000000000000000000016906323b872dd90606401602060405180830381600087803b15801561064657600080fd5b505af115801561065a573d6000803e3d6000fd5b505050506040513d601f19601f8201168201806040525081019061067e91906107c8565b505b5050565b600082601f830112610694578081fd5b8135602067ffffffffffffffff8211156106b0576106b0610c23565b8082026106be828201610b67565b8381528281019086840183880185018910156106d8578687fd5b8693505b858410156106fa5780358352600193909301929184019184016106dc565b50979650505050505050565b600060208284031215610717578081fd5b813561072281610c52565b9392505050565b60006020828403121561073a578081fd5b815161072281610c52565b6000806000806080858703121561075a578283fd5b843561076581610c52565b9350602085013567ffffffffffffffff80821115610781578485fd5b9086019060c08289031215610794578485fd5b9093506040860135906107a682610c52565b90925060608601359080821682146107bc578283fd5b50939692955090935050565b6000602082840312156107d9578081fd5b81518015158114610722578182fd5b6000602082840312156107f9578081fd5b5051919050565b60008060408385031215610812578182fd5b82359150602083013567ffffffffffffffff80821115610830578283fd5b9084019060c08287031215610843578283fd5b61084d60c0610b67565b82358281111561085b578485fd5b61086788828601610684565b82525060208301358281111561087b578485fd5b61088788828601610684565b60208301525060408301358281111561089e578485fd5b6108aa88828601610684565b6040830152506060830135828111156108c1578485fd5b6108cd88828601610684565b6060830152506080830135608082015260a083013560a08201528093505050509250929050565b60008284527f07ffffffffffffffffffffffffffffffffffffffffffffffffffffffffffffff831115610925578081fd5b6020830280836020870137939093016020019283525090919050565b6000815180845260208085019450808401835b8381101561097057815187529582019590820190600101610954565b509495945050505050565b6001600160a01b0386811682528516602082015260a0604082015260006109a28580610bb6565b60c060a08501526109b8610160850182846108f4565b9150506109c86020870187610bb6565b7fffffffffffffffffffffffffffffffffffffffffffffffffffffffffffffff60808685030160c08701526109fe8483856108f4565b9350610a0d60408a018a610bb6565b93509150808685030160e0870152610a268484846108f4565b9350610a3560608a018a610bb6565b93509150808685030161010087015250610a508383836108f4565b608089013561012087015260a08901356101408701526001600160a01b03881660608701529350610a8092505050565b67ffffffffffffffff831660808301529695505050505050565b60006001600160a01b038516825283602083015260606040830152825160c06060840152610acc610120840182610941565b905060208401517fffffffffffffffffffffffffffffffffffffffffffffffffffffffffffffffa080858403016080860152610b088383610941565b925060408601519150808584030160a0860152610b258383610941565b925060608601519150808584030160c086015250610b438282610941565b915050608084015160e084015260a084015161010084015280915050949350505050565b604051601f82017fffffffffffffffffffffffffffffffffffffffffffffffffffffffffffffffe016810167ffffffffffffffff81118282101715610bae57610bae610c23565b604052919050565b60008083357fffffffffffffffffffffffffffffffffffffffffffffffffffffffffffffffe1843603018112610bea578283fd5b830160208101925035905067ffffffffffffffff811115610c0a57600080fd5b602081023603831315610c1c57600080fd5b9250929050565b7f4e487b7100000000000000000000000000000000000000000000000000000000600052604160045260246000fd5b6001600160a01b0381168114610c6757600080fd5b5056fea2646970667358221220588f16bd4fa00e7bade82c3c72e073728d0b56a9c484244c4e780eb915967e9364736f6c63430008020033",
  "devdoc": {
    "kind": "dev",
    "methods": {
      "createGame(address,(uint256[],uint256[],uint256[],uint256[],bytes32,uint256),address,uint64)": {
        "params": {
          "creation": "The struct containing ids & ammounts of assets to add to this game, along with the uri to set.",
          "editor": "The address to allow to edit (can also be set later).",
          "subId": "A random id created on the backend.",
          "to": "The address who will be assigned ownership of this game."
        },
        "returns": {
          "gameId": "The id of the new GAME token (erc721)"
        }
      },
      "updateGame(uint256,(uint256[],uint256[],uint256[],uint256[],bytes32,uint256))": {
        "params": {
          "gameId": "The current id of the GAME token.",
          "update": "The values to use for the update."
        },
        "returns": {
          "newId": "The new gameId."
        }
      }
    },
    "version": 1
  },
  "userdoc": {
    "kind": "user",
    "methods": {
      "createGame(address,(uint256[],uint256[],uint256[],uint256[],bytes32,uint256),address,uint64)": {
        "notice": "Function to create a new GAME token"
      },
      "updateGame(uint256,(uint256[],uint256[],uint256[],uint256[],bytes32,uint256))": {
        "notice": "Update an existing GAME token.This actually burns old token and mints new token with same basId & incremented version."
      }
    },
    "version": 1
  },
  "storageLayout": {
    "storage": [
      {
        "astId": 29950,
        "contract": "src/solc_0.8/Game/GameMinter.sol:GameMinter",
        "label": "_trustedForwarder",
        "offset": 0,
        "slot": "0",
        "type": "t_address"
      }
    ],
    "types": {
      "t_address": {
        "encoding": "inplace",
        "label": "address",
        "numberOfBytes": "20"
      }
    }
  }
}