{
  "address": "0x087Dd461A259227821BEF4B23ccd68E3dA6B770F",
  "abi": [
    {
      "anonymous": false,
      "inputs": [
        {
          "indexed": true,
          "internalType": "bytes32",
          "name": "role",
          "type": "bytes32"
        },
        {
          "indexed": true,
          "internalType": "bytes32",
          "name": "previousAdminRole",
          "type": "bytes32"
        },
        {
          "indexed": true,
          "internalType": "bytes32",
          "name": "newAdminRole",
          "type": "bytes32"
        }
      ],
      "name": "RoleAdminChanged",
      "type": "event"
    },
    {
      "anonymous": false,
      "inputs": [
        {
          "indexed": true,
          "internalType": "bytes32",
          "name": "role",
          "type": "bytes32"
        },
        {
          "indexed": true,
          "internalType": "address",
          "name": "account",
          "type": "address"
        },
        {
          "indexed": true,
          "internalType": "address",
          "name": "sender",
          "type": "address"
        }
      ],
      "name": "RoleGranted",
      "type": "event"
    },
    {
      "anonymous": false,
      "inputs": [
        {
          "indexed": true,
          "internalType": "bytes32",
          "name": "role",
          "type": "bytes32"
        },
        {
          "indexed": true,
          "internalType": "address",
          "name": "account",
          "type": "address"
        },
        {
          "indexed": true,
          "internalType": "address",
          "name": "sender",
          "type": "address"
        }
      ],
      "name": "RoleRevoked",
      "type": "event"
    },
    {
      "inputs": [],
      "name": "DEFAULT_ADMIN_ROLE",
      "outputs": [
        {
          "internalType": "bytes32",
          "name": "",
          "type": "bytes32"
        }
      ],
      "stateMutability": "view",
      "type": "function"
    },
    {
      "inputs": [],
      "name": "MINT_TYPEHASH",
      "outputs": [
        {
          "internalType": "bytes32",
          "name": "",
          "type": "bytes32"
        }
      ],
      "stateMutability": "view",
      "type": "function"
    },
    {
      "inputs": [],
      "name": "SELLER_ROLE",
      "outputs": [
        {
          "internalType": "bytes32",
          "name": "",
          "type": "bytes32"
        }
      ],
      "stateMutability": "view",
      "type": "function"
    },
    {
      "inputs": [],
      "name": "SIGNER_ROLE",
      "outputs": [
        {
          "internalType": "bytes32",
          "name": "",
          "type": "bytes32"
        }
      ],
      "stateMutability": "view",
      "type": "function"
    },
    {
      "inputs": [],
      "name": "avatarTokenAddress",
      "outputs": [
        {
          "internalType": "contract IAvatarMinter",
          "name": "",
          "type": "address"
        }
      ],
      "stateMutability": "view",
      "type": "function"
    },
    {
      "inputs": [],
      "name": "domainSeparator",
      "outputs": [
        {
          "internalType": "bytes32",
          "name": "",
          "type": "bytes32"
        }
      ],
      "stateMutability": "view",
      "type": "function"
    },
    {
      "inputs": [
        {
          "internalType": "uint8",
          "name": "v",
          "type": "uint8"
        },
        {
          "internalType": "bytes32",
          "name": "r",
          "type": "bytes32"
        },
        {
          "internalType": "bytes32",
          "name": "s",
          "type": "bytes32"
        },
        {
          "internalType": "address",
          "name": "signer",
          "type": "address"
        },
        {
          "internalType": "address",
          "name": "buyer",
          "type": "address"
        },
        {
          "internalType": "uint256",
          "name": "id",
          "type": "uint256"
        },
        {
          "internalType": "address",
          "name": "seller",
          "type": "address"
        },
        {
          "internalType": "uint256",
          "name": "price",
          "type": "uint256"
        }
      ],
      "name": "execute",
      "outputs": [],
      "stateMutability": "nonpayable",
      "type": "function"
    },
    {
      "inputs": [],
      "name": "getChainId",
      "outputs": [
        {
          "internalType": "uint256",
          "name": "",
          "type": "uint256"
        }
      ],
      "stateMutability": "view",
      "type": "function"
    },
    {
      "inputs": [
        {
          "internalType": "bytes32",
          "name": "role",
          "type": "bytes32"
        }
      ],
      "name": "getRoleAdmin",
      "outputs": [
        {
          "internalType": "bytes32",
          "name": "",
          "type": "bytes32"
        }
      ],
      "stateMutability": "view",
      "type": "function"
    },
    {
      "inputs": [],
      "name": "getTrustedForwarder",
      "outputs": [
        {
          "internalType": "address",
          "name": "trustedForwarder",
          "type": "address"
        }
      ],
      "stateMutability": "view",
      "type": "function"
    },
    {
      "inputs": [
        {
          "internalType": "bytes32",
          "name": "role",
          "type": "bytes32"
        },
        {
          "internalType": "address",
          "name": "account",
          "type": "address"
        }
      ],
      "name": "grantRole",
      "outputs": [],
      "stateMutability": "nonpayable",
      "type": "function"
    },
    {
      "inputs": [
        {
          "internalType": "bytes32",
          "name": "role",
          "type": "bytes32"
        },
        {
          "internalType": "address",
          "name": "account",
          "type": "address"
        }
      ],
      "name": "hasRole",
      "outputs": [
        {
          "internalType": "bool",
          "name": "",
          "type": "bool"
        }
      ],
      "stateMutability": "view",
      "type": "function"
    },
    {
      "inputs": [
        {
          "internalType": "contract IAvatarMinter",
          "name": "avatarTokenAddress_",
          "type": "address"
        },
        {
          "internalType": "contract IERC20Upgradeable",
          "name": "sandTokenContractAddress_",
          "type": "address"
        },
        {
          "internalType": "address",
          "name": "trustedForwarder_",
          "type": "address"
        },
        {
          "internalType": "address",
          "name": "defaultAdmin_",
          "type": "address"
        }
      ],
      "name": "initialize",
      "outputs": [],
      "stateMutability": "nonpayable",
      "type": "function"
    },
    {
      "inputs": [
        {
          "internalType": "address",
          "name": "forwarder",
          "type": "address"
        }
      ],
      "name": "isTrustedForwarder",
      "outputs": [
        {
          "internalType": "bool",
          "name": "",
          "type": "bool"
        }
      ],
      "stateMutability": "view",
      "type": "function"
    },
    {
      "inputs": [],
      "name": "name",
      "outputs": [
        {
          "internalType": "string",
          "name": "",
          "type": "string"
        }
      ],
      "stateMutability": "view",
      "type": "function"
    },
    {
      "inputs": [
        {
          "internalType": "bytes32",
          "name": "role",
          "type": "bytes32"
        },
        {
          "internalType": "address",
          "name": "account",
          "type": "address"
        }
      ],
      "name": "renounceRole",
      "outputs": [],
      "stateMutability": "nonpayable",
      "type": "function"
    },
    {
      "inputs": [
        {
          "internalType": "bytes32",
          "name": "role",
          "type": "bytes32"
        },
        {
          "internalType": "address",
          "name": "account",
          "type": "address"
        }
      ],
      "name": "revokeRole",
      "outputs": [],
      "stateMutability": "nonpayable",
      "type": "function"
    },
    {
      "inputs": [],
      "name": "sandTokenAddress",
      "outputs": [
        {
          "internalType": "contract IERC20Upgradeable",
          "name": "",
          "type": "address"
        }
      ],
      "stateMutability": "view",
      "type": "function"
    },
    {
      "inputs": [
        {
          "internalType": "bytes4",
          "name": "interfaceId",
          "type": "bytes4"
        }
      ],
      "name": "supportsInterface",
      "outputs": [
        {
          "internalType": "bool",
          "name": "",
          "type": "bool"
        }
      ],
      "stateMutability": "view",
      "type": "function"
    },
    {
      "inputs": [
        {
          "internalType": "uint8",
          "name": "v",
          "type": "uint8"
        },
        {
          "internalType": "bytes32",
          "name": "r",
          "type": "bytes32"
        },
        {
          "internalType": "bytes32",
          "name": "s",
          "type": "bytes32"
        },
        {
          "internalType": "address",
          "name": "signer",
          "type": "address"
        },
        {
          "internalType": "address",
          "name": "buyer",
          "type": "address"
        },
        {
          "internalType": "uint256",
          "name": "id",
          "type": "uint256"
        },
        {
          "internalType": "address",
          "name": "seller",
          "type": "address"
        },
        {
          "internalType": "uint256",
          "name": "price",
          "type": "uint256"
        }
      ],
      "name": "verify",
      "outputs": [
        {
          "internalType": "bool",
          "name": "",
          "type": "bool"
        }
      ],
      "stateMutability": "view",
      "type": "function"
    },
    {
      "inputs": [],
      "name": "version",
      "outputs": [
        {
          "internalType": "string",
          "name": "",
          "type": "string"
        }
      ],
      "stateMutability": "view",
      "type": "function"
    }
  ],
  "transactionHash": "0x5716ed5477f2bebf6f6a416b648b82a50dfa0f3cf04eafdc69405537a5137a1b",
  "args": [],
  "solcInputHash": "58d8583bcf7c0b810a4aea41f8436dfb",
  "bytecode": "0x608060405234801561001057600080fd5b50611561806100206000396000f3fe608060405234801561001057600080fd5b50600436106101775760003560e01c8063a217fddf116100d8578063d88e33941161008c578063f698da2511610066578063f698da25146103bf578063f76fc35e146103c7578063f8c8765e146103ee57610177565b8063d88e339414610372578063dbe4613d14610385578063e2c6af34146103ac57610177565b8063ce1b815f116100bd578063ce1b815f14610327578063d3f9ce721461034c578063d547741f1461035f57610177565b8063a217fddf1461030c578063c7130dfa1461031457610177565b806336568abe1161012f578063572b6c0511610114578063572b6c051461028a57806391d14854146102ac578063a1ebf35d146102e557610177565b806336568abe1461023b57806354fd4d501461024e57610177565b8063248a9ca311610160578063248a9ca3146101ed5780632f2ff15d1461021e5780633408e4701461023357610177565b806301ffc9a71461017c57806306fdde03146101a4575b600080fd5b61018f61018a36600461139f565b610401565b60405190151581526020015b60405180910390f35b6101e06040518060400160405280601381526020017f53616e64626f78204176617461722053616c650000000000000000000000000081525081565b60405161019b91906114c3565b6102106101fb366004611358565b60009081526065602052604090206001015490565b60405190815260200161019b565b61023161022c366004611370565b610412565b005b6102106104b6565b610231610249366004611370565b6104bb565b6101e06040518060400160405280600381526020017f312e30000000000000000000000000000000000000000000000000000000000081525081565b61018f610298366004611315565b60cb546001600160a01b0390811691161490565b61018f6102ba366004611370565b60009182526065602090815260408084206001600160a01b0393909316845291905290205460ff1690565b6102107fe2f4eaae4a9751e85a3e4a7b9587827a877f29914755229b07a7b2da98285f7081565b610210600081565b61023161032236600461143a565b610553565b60cb546001600160a01b03165b6040516001600160a01b03909116815260200161019b565b60cc54610334906001600160a01b031681565b61023161036d366004611370565b610922565b61018f61038036600461143a565b6109af565b6102107f43f25613eb2f15fb17222a5d424ca2655743e71265d98e4b93c05e5fb589ecde81565b60cd54610334906001600160a01b031681565b6102106109ce565b6102107f98e52ae7b216575c556134aab595fa5cdcc7c952ee58f9799b406ab291361c2281565b6102316103fc3660046113df565b6109dd565b600061040c82610bbe565b92915050565b600082815260656020526040902060010154610431905b6102ba610c55565b6104a85760405162461bcd60e51b815260206004820152602f60248201527f416363657373436f6e74726f6c3a2073656e646572206d75737420626520616e60448201527f2061646d696e20746f206772616e74000000000000000000000000000000000060648201526084015b60405180910390fd5b6104b28282610c5f565b5050565b465b90565b6104c3610c55565b6001600160a01b0316816001600160a01b0316146105495760405162461bcd60e51b815260206004820152602f60248201527f416363657373436f6e74726f6c3a2063616e206f6e6c792072656e6f756e636560448201527f20726f6c657320666f722073656c660000000000000000000000000000000000606482015260840161049f565b6104b28282610d02565b6105638888888888888888610da3565b6105af5760405162461bcd60e51b815260206004820152601160248201527f496e76616c6964207369676e6174757265000000000000000000000000000000604482015260640161049f565b6001600160a01b03851660009081527faf3903565d7a1d14a95e05584c510eeb7e248bb499a4a9e312d9936425d70843602052604090205460ff166106365760405162461bcd60e51b815260206004820152600e60248201527f496e76616c6964207369676e6572000000000000000000000000000000000000604482015260640161049f565b6001600160a01b03821660009081527f36b0d94f097c5b4dd8f448723e0c30390c5b2244f87b092ccfcdcfe5a2942d71602052604090205460ff166106bd5760405162461bcd60e51b815260206004820152600e60248201527f496e76616c69642073656c6c6572000000000000000000000000000000000000604482015260640161049f565b60cc546040517f40c10f190000000000000000000000000000000000000000000000000000000081526001600160a01b03868116600483015260248201869052909116906340c10f1990604401600060405180830381600087803b15801561072457600080fd5b505af1158015610738573d6000803e3d6000fd5b505060cd546040517f23b872dd0000000000000000000000000000000000000000000000000000000081526001600160a01b0388811660048301523060248301526044820186905290911692506323b872dd9150606401602060405180830381600087803b1580156107a957600080fd5b505af11580156107bd573d6000803e3d6000fd5b505050506040513d601f19601f820116820180604052508101906107e19190611338565b61082d5760405162461bcd60e51b815260206004820152601360248201527f5472616e7366657246726f6d206661696c656400000000000000000000000000604482015260640161049f565b60cd546040517fa9059cbb0000000000000000000000000000000000000000000000000000000081526001600160a01b038481166004830152602482018490529091169063a9059cbb90604401602060405180830381600087803b15801561089457600080fd5b505af11580156108a8573d6000803e3d6000fd5b505050506040513d601f19601f820116820180604052508101906108cc9190611338565b6109185760405162461bcd60e51b815260206004820152600f60248201527f5472616e73666572206661696c65640000000000000000000000000000000000604482015260640161049f565b5050505050505050565b60008281526065602052604090206001015461093d90610429565b6105495760405162461bcd60e51b815260206004820152603060248201527f416363657373436f6e74726f6c3a2073656e646572206d75737420626520616e60448201527f2061646d696e20746f207265766f6b6500000000000000000000000000000000606482015260840161049f565b60006109c18989898989898989610da3565b9998505050505050505050565b60006109d8610e53565b905090565b600054610100900460ff16806109f6575060005460ff16155b610a685760405162461bcd60e51b815260206004820152602e60248201527f496e697469616c697a61626c653a20636f6e747261637420697320616c72656160448201527f647920696e697469616c697a6564000000000000000000000000000000000000606482015260840161049f565b600054610100900460ff16158015610a93576000805460ff1961ff0019909116610100171660011790555b610a9b610ece565b610aa3610ece565b610aab610ece565b610b1f6040518060400160405280601381526020017f53616e64626f78204176617461722053616c65000000000000000000000000008152506040518060400160405280600381526020017f312e300000000000000000000000000000000000000000000000000000000000815250610f99565b60cb80547fffffffffffffffffffffffff0000000000000000000000000000000000000000166001600160a01b038516179055610b5d6000836104a8565b60cc80546001600160a01b038088167fffffffffffffffffffffffff00000000000000000000000000000000000000009283161790925560cd8054928716929091169190911790558015610bb7576000805461ff00191690555b5050505050565b60007fffffffff0000000000000000000000000000000000000000000000000000000082167f7965db0b00000000000000000000000000000000000000000000000000000000148061040c57507f01ffc9a7000000000000000000000000000000000000000000000000000000007fffffffff0000000000000000000000000000000000000000000000000000000083161461040c565b60006109d8611083565b60008281526065602090815260408083206001600160a01b038516845290915290205460ff166104b25760008281526065602090815260408083206001600160a01b03851684529091529020805460ff19166001179055610cbe610c55565b6001600160a01b0316816001600160a01b0316837f2f8788117e7eff1d82e926ec794901d17c78024a50270940304540a733656f0d60405160405180910390a45050565b60008281526065602090815260408083206001600160a01b038516845290915290205460ff16156104b25760008281526065602090815260408083206001600160a01b03851684529091529020805460ff19169055610d5f610c55565b6001600160a01b0316816001600160a01b0316837ff6391f5c32d9c69d2a47ea670b442974b53935d1edc7fd64eb21e047a839171b60405160405180910390a45050565b604080517f98e52ae7b216575c556134aab595fa5cdcc7c952ee58f9799b406ab291361c2260208201526001600160a01b038088169282019290925281861660608201526080810185905290831660a082015260c081018290526000908190610e249060e001604051602081830303815290604052805190602001206110cd565b90506000610e34828c8c8c611136565b6001600160a01b03908116908916149250505098975050505050505050565b60006109d87f8b73c3c69bb8fe3d512ecc4cf759cc79239f7b179b0ffacaa9a75d522b39400f610e8260975490565b6098546040805160208101859052908101839052606081018290524660808201523060a082015260009060c0016040516020818303038152906040528051906020012090509392505050565b600054610100900460ff1680610ee7575060005460ff16155b610f595760405162461bcd60e51b815260206004820152602e60248201527f496e697469616c697a61626c653a20636f6e747261637420697320616c72656160448201527f647920696e697469616c697a6564000000000000000000000000000000000000606482015260840161049f565b600054610100900460ff16158015610f84576000805460ff1961ff0019909116610100171660011790555b8015610f96576000805461ff00191690555b50565b600054610100900460ff1680610fb2575060005460ff16155b6110245760405162461bcd60e51b815260206004820152602e60248201527f496e697469616c697a61626c653a20636f6e747261637420697320616c72656160448201527f647920696e697469616c697a6564000000000000000000000000000000000000606482015260840161049f565b600054610100900460ff1615801561104f576000805460ff1961ff0019909116610100171660011790555b8251602080850191909120835191840191909120609791909155609855801561107e576000805461ff00191690555b505050565b60cb546000906001600160a01b03163314156110c657507fffffffffffffffffffffffffffffffffffffffffffffffffffffffffffffffec36013560601c6104b8565b50336104b8565b600061040c6110da610e53565b836040517f19010000000000000000000000000000000000000000000000000000000000006020820152602281018390526042810182905260009060620160405160208183030381529060405280519060200120905092915050565b60007f7fffffffffffffffffffffffffffffff5d576e7357a4501ddfe92f46681b20a08211156111ce5760405162461bcd60e51b815260206004820152602260248201527f45434453413a20696e76616c6964207369676e6174757265202773272076616c60448201527f7565000000000000000000000000000000000000000000000000000000000000606482015260840161049f565b8360ff16601b14806111e357508360ff16601c145b6112555760405162461bcd60e51b815260206004820152602260248201527f45434453413a20696e76616c6964207369676e6174757265202776272076616c60448201527f7565000000000000000000000000000000000000000000000000000000000000606482015260840161049f565b6040805160008082526020820180845288905260ff871692820192909252606081018590526080810184905260019060a0016020604051602081039080840390855afa1580156112a9573d6000803e3d6000fd5b5050604051601f1901519150506001600160a01b03811661130c5760405162461bcd60e51b815260206004820152601860248201527f45434453413a20696e76616c6964207369676e61747572650000000000000000604482015260640161049f565b95945050505050565b600060208284031215611326578081fd5b813561133181611516565b9392505050565b600060208284031215611349578081fd5b81518015158114611331578182fd5b600060208284031215611369578081fd5b5035919050565b60008060408385031215611382578081fd5b82359150602083013561139481611516565b809150509250929050565b6000602082840312156113b0578081fd5b81357fffffffff0000000000000000000000000000000000000000000000000000000081168114611331578182fd5b600080600080608085870312156113f4578182fd5b84356113ff81611516565b9350602085013561140f81611516565b9250604085013561141f81611516565b9150606085013561142f81611516565b939692955090935050565b600080600080600080600080610100898b031215611456578384fd5b883560ff81168114611466578485fd5b97506020890135965060408901359550606089013561148481611516565b9450608089013561149481611516565b935060a0890135925060c08901356114ab81611516565b8092505060e089013590509295985092959890939650565b6000602080835283518082850152825b818110156114ef578581018301518582016040015282016114d3565b818111156115005783604083870101525b50601f01601f1916929092016040019392505050565b6001600160a01b0381168114610f9657600080fdfea2646970667358221220caff12ddb127cfc124f04eb54ff4e2377ba59000017baad77eebd289fd4d732564736f6c63430008020033",
  "devdoc": {
    "details": "This contract support meta transactions.This contract is final, don't inherit form it.",
    "kind": "dev",
    "methods": {
      "execute(uint8,bytes32,bytes32,address,address,uint256,address,uint256)": {
        "params": {
          "buyer": "the buyer of the NFT, sand is taken from him.",
          "id": "NFT Id",
          "price": "price in Sand of the NFT",
          "r": "signature part",
          "s": "signature part",
          "seller": "the seller of the NFT, must be whitelisted in the seller role, sand are sent to him",
          "signer": "the address of the signer, must be part of the signer role",
          "v": "signature part"
        }
      },
      "getRoleAdmin(bytes32)": {
        "details": "Returns the admin role that controls `role`. See {grantRole} and {revokeRole}. To change a role's admin, use {_setRoleAdmin}."
      },
      "grantRole(bytes32,address)": {
        "details": "Grants `role` to `account`. If `account` had not been already granted `role`, emits a {RoleGranted} event. Requirements: - the caller must have ``role``'s admin role."
      },
      "hasRole(bytes32,address)": {
        "details": "Returns `true` if `account` has been granted `role`."
      },
      "renounceRole(bytes32,address)": {
        "details": "Revokes `role` from the calling account. Roles are often managed via {grantRole} and {revokeRole}: this function's purpose is to provide a mechanism for accounts to lose their privileges if they are compromised (such as when a trusted device is misplaced). If the calling account had been granted `role`, emits a {RoleRevoked} event. Requirements: - the caller must be `account`."
      },
      "revokeRole(bytes32,address)": {
        "details": "Revokes `role` from `account`. If `account` had been granted `role`, emits a {RoleRevoked} event. Requirements: - the caller must have ``role``'s admin role."
      },
      "supportsInterface(bytes4)": {
        "details": "See {IERC165-supportsInterface}."
      },
      "verify(uint8,bytes32,bytes32,address,address,uint256,address,uint256)": {
        "params": {
          "buyer": "the buyer of the NFT, sand is taken from him.",
          "id": "NFT Id",
          "price": "price in Sand of the NFT",
          "r": "signature part",
          "s": "signature part",
          "seller": "the seller of the NFT, must be whitelisted in the seller role, sand are sent to him",
          "signer": "the address of the signer, must be part of the signer role",
          "v": "signature part"
        },
        "returns": {
          "_0": "true if the signature is valid"
        }
      }
    },
    "title": "This contract is in charge calling Avatar.mint.minting is done by sending messages signed by a user in the signer role, the contract takes the buyersand and send it to a whitelisted seller.",
    "version": 1
  },
  "userdoc": {
    "kind": "user",
    "methods": {
      "execute(uint8,bytes32,bytes32,address,address,uint256,address,uint256)": {
        "notice": "verifies a ERC712 signature and mint a new NFT for the buyer."
      },
      "verify(uint8,bytes32,bytes32,address,address,uint256,address,uint256)": {
        "notice": "verifies a ERC712 signature for the Mint data type."
      }
    },
    "version": 1
  },
  "storageLayout": {
    "storage": [
      {
        "astId": 2119,
        "contract": "src/solc_0.8/avatar/AvatarSale.sol:AvatarSale",
        "label": "_initialized",
        "offset": 0,
        "slot": "0",
        "type": "t_bool"
      },
      {
        "astId": 2122,
        "contract": "src/solc_0.8/avatar/AvatarSale.sol:AvatarSale",
        "label": "_initializing",
        "offset": 1,
        "slot": "0",
        "type": "t_bool"
      },
      {
        "astId": 3568,
        "contract": "src/solc_0.8/avatar/AvatarSale.sol:AvatarSale",
        "label": "__gap",
        "offset": 0,
        "slot": "1",
        "type": "t_array(t_uint256)50_storage"
      },
      {
        "astId": 4102,
        "contract": "src/solc_0.8/avatar/AvatarSale.sol:AvatarSale",
        "label": "__gap",
        "offset": 0,
        "slot": "51",
        "type": "t_array(t_uint256)50_storage"
      },
      {
        "astId": 1847,
        "contract": "src/solc_0.8/avatar/AvatarSale.sol:AvatarSale",
        "label": "_roles",
        "offset": 0,
        "slot": "101",
        "type": "t_mapping(t_bytes32,t_struct(RoleData)1842_storage)"
      },
      {
        "astId": 2111,
        "contract": "src/solc_0.8/avatar/AvatarSale.sol:AvatarSale",
        "label": "__gap",
        "offset": 0,
        "slot": "102",
        "type": "t_array(t_uint256)49_storage"
      },
      {
        "astId": 3917,
        "contract": "src/solc_0.8/avatar/AvatarSale.sol:AvatarSale",
        "label": "_HASHED_NAME",
        "offset": 0,
        "slot": "151",
        "type": "t_bytes32"
      },
      {
        "astId": 3919,
        "contract": "src/solc_0.8/avatar/AvatarSale.sol:AvatarSale",
        "label": "_HASHED_VERSION",
        "offset": 0,
        "slot": "152",
        "type": "t_bytes32"
      },
      {
        "astId": 4056,
        "contract": "src/solc_0.8/avatar/AvatarSale.sol:AvatarSale",
        "label": "__gap",
        "offset": 0,
        "slot": "153",
        "type": "t_array(t_uint256)50_storage"
      },
      {
        "astId": 17854,
        "contract": "src/solc_0.8/avatar/AvatarSale.sol:AvatarSale",
        "label": "_trustedForwarder",
        "offset": 0,
        "slot": "203",
        "type": "t_address"
      },
      {
        "astId": 12905,
        "contract": "src/solc_0.8/avatar/AvatarSale.sol:AvatarSale",
        "label": "avatarTokenAddress",
        "offset": 0,
        "slot": "204",
        "type": "t_contract(IAvatarMinter)21031"
      },
      {
        "astId": 12908,
        "contract": "src/solc_0.8/avatar/AvatarSale.sol:AvatarSale",
        "label": "sandTokenAddress",
        "offset": 0,
        "slot": "205",
        "type": "t_contract(IERC20Upgradeable)2237"
      }
    ],
    "types": {
      "t_address": {
        "encoding": "inplace",
        "label": "address",
        "numberOfBytes": "20"
      },
      "t_array(t_uint256)49_storage": {
        "base": "t_uint256",
        "encoding": "inplace",
        "label": "uint256[49]",
        "numberOfBytes": "1568"
      },
      "t_array(t_uint256)50_storage": {
        "base": "t_uint256",
        "encoding": "inplace",
        "label": "uint256[50]",
        "numberOfBytes": "1600"
      },
      "t_bool": {
        "encoding": "inplace",
        "label": "bool",
        "numberOfBytes": "1"
      },
      "t_bytes32": {
        "encoding": "inplace",
        "label": "bytes32",
        "numberOfBytes": "32"
      },
      "t_contract(IAvatarMinter)21031": {
        "encoding": "inplace",
        "label": "contract IAvatarMinter",
        "numberOfBytes": "20"
      },
      "t_contract(IERC20Upgradeable)2237": {
        "encoding": "inplace",
        "label": "contract IERC20Upgradeable",
        "numberOfBytes": "20"
      },
      "t_mapping(t_address,t_bool)": {
        "encoding": "mapping",
        "key": "t_address",
        "label": "mapping(address => bool)",
        "numberOfBytes": "32",
        "value": "t_bool"
      },
      "t_mapping(t_bytes32,t_struct(RoleData)1842_storage)": {
        "encoding": "mapping",
        "key": "t_bytes32",
        "label": "mapping(bytes32 => struct AccessControlUpgradeable.RoleData)",
        "numberOfBytes": "32",
        "value": "t_struct(RoleData)1842_storage"
      },
      "t_struct(RoleData)1842_storage": {
        "encoding": "inplace",
        "label": "struct AccessControlUpgradeable.RoleData",
        "members": [
          {
            "astId": 1839,
            "contract": "src/solc_0.8/avatar/AvatarSale.sol:AvatarSale",
            "label": "members",
            "offset": 0,
            "slot": "0",
            "type": "t_mapping(t_address,t_bool)"
          },
          {
            "astId": 1841,
            "contract": "src/solc_0.8/avatar/AvatarSale.sol:AvatarSale",
            "label": "adminRole",
            "offset": 0,
            "slot": "1",
            "type": "t_bytes32"
          }
        ],
        "numberOfBytes": "64"
      },
      "t_uint256": {
        "encoding": "inplace",
        "label": "uint256",
        "numberOfBytes": "32"
      }
    }
  }
}