{
  "address": "0x6db400c5523e9BB8fe1B517ef42278e97fF75ACA",
  "abi": [
    {
      "anonymous": false,
      "inputs": [
        {
          "indexed": true,
          "internalType": "address",
          "name": "owner",
          "type": "address"
        },
        {
          "indexed": true,
          "internalType": "address",
          "name": "approved",
          "type": "address"
        },
        {
          "indexed": true,
          "internalType": "uint256",
          "name": "tokenId",
          "type": "uint256"
        }
      ],
      "name": "Approval",
      "type": "event"
    },
    {
      "anonymous": false,
      "inputs": [
        {
          "indexed": true,
          "internalType": "address",
          "name": "owner",
          "type": "address"
        },
        {
          "indexed": true,
          "internalType": "address",
          "name": "operator",
          "type": "address"
        },
        {
          "indexed": false,
          "internalType": "bool",
          "name": "approved",
          "type": "bool"
        }
      ],
      "name": "ApprovalForAll",
      "type": "event"
    },
    {
      "anonymous": false,
      "inputs": [
        {
          "indexed": true,
          "internalType": "address",
          "name": "from",
          "type": "address"
        },
        {
          "indexed": false,
          "internalType": "uint256[]",
          "name": "tokenIds",
          "type": "uint256[]"
        }
      ],
      "name": "DepositBatch",
      "type": "event"
    },
    {
      "anonymous": false,
      "inputs": [
        {
          "indexed": true,
          "internalType": "bytes32",
          "name": "role",
          "type": "bytes32"
        },
        {
          "indexed": true,
          "internalType": "bytes32",
          "name": "previousAdminRole",
          "type": "bytes32"
        },
        {
          "indexed": true,
          "internalType": "bytes32",
          "name": "newAdminRole",
          "type": "bytes32"
        }
      ],
      "name": "RoleAdminChanged",
      "type": "event"
    },
    {
      "anonymous": false,
      "inputs": [
        {
          "indexed": true,
          "internalType": "bytes32",
          "name": "role",
          "type": "bytes32"
        },
        {
          "indexed": true,
          "internalType": "address",
          "name": "account",
          "type": "address"
        },
        {
          "indexed": true,
          "internalType": "address",
          "name": "sender",
          "type": "address"
        }
      ],
      "name": "RoleGranted",
      "type": "event"
    },
    {
      "anonymous": false,
      "inputs": [
        {
          "indexed": true,
          "internalType": "bytes32",
          "name": "role",
          "type": "bytes32"
        },
        {
          "indexed": true,
          "internalType": "address",
          "name": "account",
          "type": "address"
        },
        {
          "indexed": true,
          "internalType": "address",
          "name": "sender",
          "type": "address"
        }
      ],
      "name": "RoleRevoked",
      "type": "event"
    },
    {
      "anonymous": false,
      "inputs": [
        {
          "indexed": true,
          "internalType": "address",
          "name": "from",
          "type": "address"
        },
        {
          "indexed": true,
          "internalType": "address",
          "name": "to",
          "type": "address"
        },
        {
          "indexed": true,
          "internalType": "uint256",
          "name": "tokenId",
          "type": "uint256"
        }
      ],
      "name": "Transfer",
      "type": "event"
    },
    {
      "anonymous": false,
      "inputs": [
        {
          "indexed": true,
          "internalType": "address",
          "name": "user",
          "type": "address"
        },
        {
          "indexed": false,
          "internalType": "uint256[]",
          "name": "tokenIds",
          "type": "uint256[]"
        }
      ],
      "name": "WithdrawnBatch",
      "type": "event"
    },
    {
      "inputs": [],
      "name": "CHILD_MANAGER_ROLE",
      "outputs": [
        {
          "internalType": "bytes32",
          "name": "",
          "type": "bytes32"
        }
      ],
      "stateMutability": "view",
      "type": "function"
    },
    {
      "inputs": [],
      "name": "DEFAULT_ADMIN_ROLE",
      "outputs": [
        {
          "internalType": "bytes32",
          "name": "",
          "type": "bytes32"
        }
      ],
      "stateMutability": "view",
      "type": "function"
    },
    {
      "inputs": [],
      "name": "MINTER_ROLE",
      "outputs": [
        {
          "internalType": "bytes32",
          "name": "",
          "type": "bytes32"
        }
      ],
      "stateMutability": "view",
      "type": "function"
    },
    {
      "inputs": [
        {
          "internalType": "address",
          "name": "to",
          "type": "address"
        },
        {
          "internalType": "uint256",
          "name": "tokenId",
          "type": "uint256"
        }
      ],
      "name": "approve",
      "outputs": [],
      "stateMutability": "nonpayable",
      "type": "function"
    },
    {
      "inputs": [
        {
          "internalType": "address",
          "name": "owner",
          "type": "address"
        }
      ],
      "name": "balanceOf",
      "outputs": [
        {
          "internalType": "uint256",
          "name": "",
          "type": "uint256"
        }
      ],
      "stateMutability": "view",
      "type": "function"
    },
    {
      "inputs": [],
      "name": "baseTokenURI",
      "outputs": [
        {
          "internalType": "string",
          "name": "",
          "type": "string"
        }
      ],
      "stateMutability": "view",
      "type": "function"
    },
    {
      "inputs": [
        {
          "internalType": "address",
          "name": "user",
          "type": "address"
        },
        {
          "internalType": "bytes",
          "name": "depositData",
          "type": "bytes"
        }
      ],
      "name": "deposit",
      "outputs": [],
      "stateMutability": "nonpayable",
      "type": "function"
    },
    {
      "inputs": [
        {
          "internalType": "uint256",
          "name": "tokenId",
          "type": "uint256"
        }
      ],
      "name": "exists",
      "outputs": [
        {
          "internalType": "bool",
          "name": "",
          "type": "bool"
        }
      ],
      "stateMutability": "view",
      "type": "function"
    },
    {
      "inputs": [
        {
          "internalType": "uint256",
          "name": "tokenId",
          "type": "uint256"
        }
      ],
      "name": "getApproved",
      "outputs": [
        {
          "internalType": "address",
          "name": "",
          "type": "address"
        }
      ],
      "stateMutability": "view",
      "type": "function"
    },
    {
      "inputs": [
        {
          "internalType": "bytes32",
          "name": "role",
          "type": "bytes32"
        }
      ],
      "name": "getRoleAdmin",
      "outputs": [
        {
          "internalType": "bytes32",
          "name": "",
          "type": "bytes32"
        }
      ],
      "stateMutability": "view",
      "type": "function"
    },
    {
      "inputs": [],
      "name": "getTrustedForwarder",
      "outputs": [
        {
          "internalType": "address",
          "name": "trustedForwarder",
          "type": "address"
        }
      ],
      "stateMutability": "view",
      "type": "function"
    },
    {
      "inputs": [
        {
          "internalType": "bytes32",
          "name": "role",
          "type": "bytes32"
        },
        {
          "internalType": "address",
          "name": "account",
          "type": "address"
        }
      ],
      "name": "grantRole",
      "outputs": [],
      "stateMutability": "nonpayable",
      "type": "function"
    },
    {
      "inputs": [
        {
          "internalType": "bytes32",
          "name": "role",
          "type": "bytes32"
        },
        {
          "internalType": "address",
          "name": "account",
          "type": "address"
        }
      ],
      "name": "hasRole",
      "outputs": [
        {
          "internalType": "bool",
          "name": "",
          "type": "bool"
        }
      ],
      "stateMutability": "view",
      "type": "function"
    },
    {
      "inputs": [
        {
          "internalType": "string",
          "name": "name_",
          "type": "string"
        },
        {
          "internalType": "string",
          "name": "symbol_",
          "type": "string"
        },
        {
          "internalType": "string",
          "name": "baseTokenURI_",
          "type": "string"
        },
        {
          "internalType": "address",
          "name": "trustedForwarder_",
          "type": "address"
        },
        {
          "internalType": "address",
          "name": "defaultAdmin_",
          "type": "address"
        }
      ],
      "name": "initialize",
      "outputs": [],
      "stateMutability": "nonpayable",
      "type": "function"
    },
    {
      "inputs": [
        {
          "internalType": "address",
          "name": "owner",
          "type": "address"
        },
        {
          "internalType": "address",
          "name": "operator",
          "type": "address"
        }
      ],
      "name": "isApprovedForAll",
      "outputs": [
        {
          "internalType": "bool",
          "name": "",
          "type": "bool"
        }
      ],
      "stateMutability": "view",
      "type": "function"
    },
    {
      "inputs": [
        {
          "internalType": "address",
          "name": "forwarder",
          "type": "address"
        }
      ],
      "name": "isTrustedForwarder",
      "outputs": [
        {
          "internalType": "bool",
          "name": "",
          "type": "bool"
        }
      ],
      "stateMutability": "view",
      "type": "function"
    },
    {
      "inputs": [
        {
          "internalType": "address",
          "name": "to",
          "type": "address"
        },
        {
          "internalType": "uint256",
          "name": "id",
          "type": "uint256"
        }
      ],
      "name": "mint",
      "outputs": [],
      "stateMutability": "nonpayable",
      "type": "function"
    },
    {
      "inputs": [],
      "name": "name",
      "outputs": [
        {
          "internalType": "string",
          "name": "",
          "type": "string"
        }
      ],
      "stateMutability": "view",
      "type": "function"
    },
    {
      "inputs": [
        {
          "internalType": "uint256",
          "name": "tokenId",
          "type": "uint256"
        }
      ],
      "name": "ownerOf",
      "outputs": [
        {
          "internalType": "address",
          "name": "",
          "type": "address"
        }
      ],
      "stateMutability": "view",
      "type": "function"
    },
    {
      "inputs": [
        {
          "internalType": "bytes32",
          "name": "role",
          "type": "bytes32"
        },
        {
          "internalType": "address",
          "name": "account",
          "type": "address"
        }
      ],
      "name": "renounceRole",
      "outputs": [],
      "stateMutability": "nonpayable",
      "type": "function"
    },
    {
      "inputs": [
        {
          "internalType": "bytes32",
          "name": "role",
          "type": "bytes32"
        },
        {
          "internalType": "address",
          "name": "account",
          "type": "address"
        }
      ],
      "name": "revokeRole",
      "outputs": [],
      "stateMutability": "nonpayable",
      "type": "function"
    },
    {
      "inputs": [
        {
          "internalType": "address",
          "name": "from",
          "type": "address"
        },
        {
          "internalType": "address",
          "name": "to",
          "type": "address"
        },
        {
          "internalType": "uint256",
          "name": "tokenId",
          "type": "uint256"
        }
      ],
      "name": "safeTransferFrom",
      "outputs": [],
      "stateMutability": "nonpayable",
      "type": "function"
    },
    {
      "inputs": [
        {
          "internalType": "address",
          "name": "from",
          "type": "address"
        },
        {
          "internalType": "address",
          "name": "to",
          "type": "address"
        },
        {
          "internalType": "uint256",
          "name": "tokenId",
          "type": "uint256"
        },
        {
          "internalType": "bytes",
          "name": "_data",
          "type": "bytes"
        }
      ],
      "name": "safeTransferFrom",
      "outputs": [],
      "stateMutability": "nonpayable",
      "type": "function"
    },
    {
      "inputs": [
        {
          "internalType": "address",
          "name": "operator",
          "type": "address"
        },
        {
          "internalType": "bool",
          "name": "approved",
          "type": "bool"
        }
      ],
      "name": "setApprovalForAll",
      "outputs": [],
      "stateMutability": "nonpayable",
      "type": "function"
    },
    {
      "inputs": [
        {
          "internalType": "string",
          "name": "baseUri_",
          "type": "string"
        }
      ],
      "name": "setBaseUrl",
      "outputs": [],
      "stateMutability": "nonpayable",
      "type": "function"
    },
    {
      "inputs": [
        {
          "internalType": "address",
          "name": "trustedForwarder_",
          "type": "address"
        }
      ],
      "name": "setTrustedForwarder",
      "outputs": [],
      "stateMutability": "nonpayable",
      "type": "function"
    },
    {
      "inputs": [
        {
          "internalType": "bytes4",
          "name": "interfaceId",
          "type": "bytes4"
        }
      ],
      "name": "supportsInterface",
      "outputs": [
        {
          "internalType": "bool",
          "name": "",
          "type": "bool"
        }
      ],
      "stateMutability": "view",
      "type": "function"
    },
    {
      "inputs": [],
      "name": "symbol",
      "outputs": [
        {
          "internalType": "string",
          "name": "",
          "type": "string"
        }
      ],
      "stateMutability": "view",
      "type": "function"
    },
    {
      "inputs": [
        {
          "internalType": "uint256",
          "name": "tokenId",
          "type": "uint256"
        }
      ],
      "name": "tokenURI",
      "outputs": [
        {
          "internalType": "string",
          "name": "",
          "type": "string"
        }
      ],
      "stateMutability": "view",
      "type": "function"
    },
    {
      "inputs": [
        {
          "internalType": "address",
          "name": "from",
          "type": "address"
        },
        {
          "internalType": "address",
          "name": "to",
          "type": "address"
        },
        {
          "internalType": "uint256",
          "name": "tokenId",
          "type": "uint256"
        }
      ],
      "name": "transferFrom",
      "outputs": [],
      "stateMutability": "nonpayable",
      "type": "function"
    },
    {
      "inputs": [
        {
          "internalType": "uint256",
          "name": "tokenId",
          "type": "uint256"
        }
      ],
      "name": "withdraw",
      "outputs": [],
      "stateMutability": "nonpayable",
      "type": "function"
    },
    {
      "inputs": [
        {
          "internalType": "uint256[]",
          "name": "tokenIds",
          "type": "uint256[]"
        }
      ],
      "name": "withdrawBatch",
      "outputs": [],
      "stateMutability": "nonpayable",
      "type": "function"
    },
    {
      "inputs": [
        {
          "internalType": "uint256",
          "name": "",
          "type": "uint256"
        }
      ],
      "name": "withdrawnTokens",
      "outputs": [
        {
          "internalType": "bool",
          "name": "",
          "type": "bool"
        }
      ],
      "stateMutability": "view",
      "type": "function"
    }
  ],
  "transactionHash": "0xdc905c1bb8d8561417226a97e3317b129575d0174c8655f602c76b4ac3f424d9",
  "args": [],
  "solcInputHash": "e4d9ef29cc84a5978074952a5664e1e0",
  "bytecode": "0x608060405234801561001057600080fd5b50612c40806100206000396000f3fe608060405234801561001057600080fd5b506004361061020b5760003560e01c806370a082311161012a578063c87b56dd116100bd578063d547741f1161008c578063d6d0faee11610071578063d6d0faee146104e3578063da742228146104f6578063e985e9c5146105095761020b565b8063d547741f146104c8578063d547cfb7146104db5761020b565b8063c87b56dd1461046a578063ce1b815f1461047d578063cf2c52cb1461048e578063d5391393146104a15761020b565b8063a217fddf116100f9578063a217fddf14610429578063a22cb46514610431578063b88d4fde14610444578063c7c3268b146104575761020b565b806370a08231146103c257806391d14854146103d557806395d89b411461040e5780639c8d4156146104165761020b565b80632e1a7d4d116101a257806342842e0e1161017157806342842e0e146103675780634f558e791461037a578063572b6c051461038d5780636352211e146103af5761020b565b80632e1a7d4d1461031b5780632f2ff15d1461032e57806336568abe1461034157806340c10f19146103545761020b565b8063095ea7b3116101de578063095ea7b31461029b57806315b519bb146102b057806323b872dd146102e5578063248a9ca3146102f85761020b565b806301ffc9a71461021057806306fdde031461023857806307a974fc1461024d578063081812fc14610270575b600080fd5b61022361021e366004612813565b610545565b60405190151581526020015b60405180910390f35b610240610558565b60405161022f9190612a5f565b61022361025b3660046127d9565b60fd6020526000908152604090205460ff1681565b61028361027e3660046127d9565b6105eb565b6040516001600160a01b03909116815260200161022f565b6102ae6102a936600461269a565b610696565b005b6102d77f52ce7cc866a5c081a13d91df9e500ecb9221474bb334cfc5dc104980c08df64c81565b60405190815260200161022f565b6102ae6102f336600461255b565b6107da565b6102d76103063660046127d9565b60009081526065602052604090206001015490565b6102ae6103293660046127d9565b610868565b6102ae61033c3660046127f1565b610874565b6102ae61034f3660046127f1565b610913565b6102ae61036236600461269a565b6109ab565b6102ae61037536600461255b565b610a8c565b6102236103883660046127d9565b610aa7565b61022361039b36600461250f565b60c9546001600160a01b0390811691161490565b6102836103bd3660046127d9565b610ac6565b6102d76103d036600461250f565b610b51565b6102236103e33660046127f1565b60009182526065602090815260408084206001600160a01b0393909316845291905290205460ff1690565b610240610beb565b6102ae6104243660046126c3565b610bfa565b6102d7600081565b6102ae61043f36600461260f565b610c95565b6102ae610452366004612596565b610d97565b6102ae61046536600461284b565b610e2c565b6102406104783660046127d9565b610e91565b60c9546001600160a01b0316610283565b6102ae61049c366004612649565b610f7a565b6102d77f9f2df0fed2c77648de5860a4cc508cd0818c85b8b8a1ab4ceeef8d981c8956a681565b6102ae6104d63660046127f1565b611118565b6102406111a5565b6102ae6104f136600461288b565b611233565b6102ae61050436600461250f565b611357565b610223610517366004612529565b6001600160a01b039182166000908152609c6020908152604080832093909416825291909152205460ff1690565b6000610550826113df565b90505b919050565b60606097805461056790612b12565b80601f016020809104026020016040519081016040528092919081815260200182805461059390612b12565b80156105e05780601f106105b5576101008083540402835291602001916105e0565b820191906000526020600020905b8154815290600101906020018083116105c357829003601f168201915b505050505090505b90565b6000818152609960205260408120546001600160a01b031661067a5760405162461bcd60e51b815260206004820152602c60248201527f4552433732313a20617070726f76656420717565727920666f72206e6f6e657860448201527f697374656e7420746f6b656e000000000000000000000000000000000000000060648201526084015b60405180910390fd5b506000908152609b60205260409020546001600160a01b031690565b60006106a182610ac6565b9050806001600160a01b0316836001600160a01b0316141561072b5760405162461bcd60e51b815260206004820152602160248201527f4552433732313a20617070726f76616c20746f2063757272656e74206f776e6560448201527f72000000000000000000000000000000000000000000000000000000000000006064820152608401610671565b806001600160a01b031661073d611481565b6001600160a01b03161480610759575061075981610517611481565b6107cb5760405162461bcd60e51b815260206004820152603860248201527f4552433732313a20617070726f76652063616c6c6572206973206e6f74206f7760448201527f6e6572206e6f7220617070726f76656420666f7220616c6c00000000000000006064820152608401610671565b6107d58383611490565b505050565b6107eb6107e5611481565b8261150b565b61085d5760405162461bcd60e51b815260206004820152603160248201527f4552433732313a207472616e736665722063616c6c6572206973206e6f74206f60448201527f776e6572206e6f7220617070726f7665640000000000000000000000000000006064820152608401610671565b6107d5838383611613565b610871816117ed565b50565b600082815260656020526040902060010154610893905b6103e3611481565b6109055760405162461bcd60e51b815260206004820152602f60248201527f416363657373436f6e74726f6c3a2073656e646572206d75737420626520616e60448201527f2061646d696e20746f206772616e7400000000000000000000000000000000006064820152608401610671565b61090f828261187f565b5050565b61091b611481565b6001600160a01b0316816001600160a01b0316146109a15760405162461bcd60e51b815260206004820152602f60248201527f416363657373436f6e74726f6c3a2063616e206f6e6c792072656e6f756e636560448201527f20726f6c657320666f722073656c6600000000000000000000000000000000006064820152608401610671565b61090f8282611922565b6109d77f9f2df0fed2c77648de5860a4cc508cd0818c85b8b8a1ab4ceeef8d981c8956a66103e3611481565b610a235760405162461bcd60e51b815260206004820152601560248201527f6d7573742068617665206d696e74657220726f6c6500000000000000000000006044820152606401610671565b600081815260fd602052604090205460ff1615610a825760405162461bcd60e51b815260206004820152601a60248201527f544f4b454e5f4558495354535f4f4e5f524f4f545f434841494e0000000000006044820152606401610671565b61090f82826119c3565b6107d583838360405180602001604052806000815250610d97565b6000818152609960205260408120546001600160a01b03161515610550565b6000818152609960205260408120546001600160a01b0316806105505760405162461bcd60e51b815260206004820152602960248201527f4552433732313a206f776e657220717565727920666f72206e6f6e657869737460448201527f656e7420746f6b656e00000000000000000000000000000000000000000000006064820152608401610671565b60006001600160a01b038216610bcf5760405162461bcd60e51b815260206004820152602a60248201527f4552433732313a2062616c616e636520717565727920666f7220746865207a6560448201527f726f2061646472657373000000000000000000000000000000000000000000006064820152608401610671565b506001600160a01b03166000908152609a602052604090205490565b60606098805461056790612b12565b60005b81811015610c4657610c34838383818110610c2857634e487b7160e01b600052603260045260246000fd5b905060200201356117ed565b80610c3e81612b4d565b915050610bfd565b50610c4f611481565b6001600160a01b03167ff871896b17e9cb7a64941c62c188a4f5c621b86800e3d15452ece01ce56073df8383604051610c899291906129c8565b60405180910390a25050565b610c9d611481565b6001600160a01b0316826001600160a01b03161415610cfe5760405162461bcd60e51b815260206004820152601960248201527f4552433732313a20617070726f766520746f2063616c6c6572000000000000006044820152606401610671565b80609c6000610d0b611481565b6001600160a01b03908116825260208083019390935260409182016000908120918716808252919093529120805460ff191692151592909217909155610d4f611481565b6001600160a01b03167f17307eab39ab6107e8899845ad3d59bd9653f200f220920489ca2b5937696c3183604051610d8b911515815260200190565b60405180910390a35050565b610da8610da2611481565b8361150b565b610e1a5760405162461bcd60e51b815260206004820152603160248201527f4552433732313a207472616e736665722063616c6c6572206973206e6f74206f60448201527f776e6572206e6f7220617070726f7665640000000000000000000000000000006064820152608401610671565b610e2684848484611b12565b50505050565b610e3960006103e3611481565b610e855760405162461bcd60e51b815260206004820152601460248201527f6d75737420686176652061646d696e20726f6c650000000000000000000000006044820152606401610671565b6107d560ca838361232d565b6000818152609960205260409020546060906001600160a01b0316610f1e5760405162461bcd60e51b815260206004820152602f60248201527f4552433732314d657461646174613a2055524920717565727920666f72206e6f60448201527f6e6578697374656e7420746f6b656e00000000000000000000000000000000006064820152608401610671565b6000610f28611b9b565b90506000815111610f485760405180602001604052806000815250610f73565b80610f5284611baa565b604051602001610f6392919061295d565b6040516020818303038152906040525b9392505050565b610fa67f52ce7cc866a5c081a13d91df9e500ecb9221474bb334cfc5dc104980c08df64c6103e3611481565b610ff25760405162461bcd60e51b815260206004820152601360248201527f214348494c445f4d414e414745525f524f4c45000000000000000000000000006044820152606401610671565b6001600160a01b0383166110485760405162461bcd60e51b815260206004820152600c60248201527f696e76616c6964207573657200000000000000000000000000000000000000006044820152606401610671565b602081141561107157600061105f828401846127d9565b905061106b8482611cf9565b506107d5565b600061107f82840184612732565b905060005b81518110156110d0576110be858383815181106110b157634e487b7160e01b600052603260045260246000fd5b6020026020010151611cf9565b806110c881612b4d565b915050611084565b50836001600160a01b03167f2e84a5d8378beeb845fb3f3b68b382a45980f7dba87516fd95b8093dda2307cd8260405161110a9190612a1b565b60405180910390a250505050565b6000828152606560205260409020600101546111339061088b565b6109a15760405162461bcd60e51b815260206004820152603060248201527f416363657373436f6e74726f6c3a2073656e646572206d75737420626520616e60448201527f2061646d696e20746f207265766f6b65000000000000000000000000000000006064820152608401610671565b60ca80546111b290612b12565b80601f01602080910402602001604051908101604052809291908181526020018280546111de90612b12565b801561122b5780601f106112005761010080835404028352916020019161122b565b820191906000526020600020905b81548152906001019060200180831161120e57829003601f168201915b505050505081565b600054610100900460ff168061124c575060005460ff16155b6112be5760405162461bcd60e51b815260206004820152602e60248201527f496e697469616c697a61626c653a20636f6e747261637420697320616c72656160448201527f647920696e697469616c697a65640000000000000000000000000000000000006064820152608401610671565b600054610100900460ff161580156112e9576000805460ff1961ff0019909116610100171660011790555b6112f1611d77565b6112f9611d77565b611301611d77565b61130b8285611e41565b6113158686611f2c565b60c9805473ffffffffffffffffffffffffffffffffffffffff19166001600160a01b038516179055801561134f576000805461ff00191690555b505050505050565b61136460006103e3611481565b6113b05760405162461bcd60e51b815260206004820152601460248201527f6d75737420686176652061646d696e20726f6c650000000000000000000000006044820152606401610671565b60c9805473ffffffffffffffffffffffffffffffffffffffff19166001600160a01b0392909216919091179055565b60007fffffffff0000000000000000000000000000000000000000000000000000000082167f80ac58cd00000000000000000000000000000000000000000000000000000000148061147257507fffffffff0000000000000000000000000000000000000000000000000000000082167f5b5e139f00000000000000000000000000000000000000000000000000000000145b80610550575061055082612009565b600061148b6120a0565b905090565b6000818152609b60205260409020805473ffffffffffffffffffffffffffffffffffffffff19166001600160a01b03841690811790915581906114d282610ac6565b6001600160a01b03167f8c5be1e5ebec7d5bd14f71427d1e84f3dd0314c0f7b2291e5b200ac8c7c3b92560405160405180910390a45050565b6000818152609960205260408120546001600160a01b03166115955760405162461bcd60e51b815260206004820152602c60248201527f4552433732313a206f70657261746f7220717565727920666f72206e6f6e657860448201527f697374656e7420746f6b656e00000000000000000000000000000000000000006064820152608401610671565b60006115a083610ac6565b9050806001600160a01b0316846001600160a01b031614806115db5750836001600160a01b03166115d0846105eb565b6001600160a01b0316145b8061160b57506001600160a01b038082166000908152609c602090815260408083209388168352929052205460ff165b949350505050565b826001600160a01b031661162682610ac6565b6001600160a01b0316146116a25760405162461bcd60e51b815260206004820152602960248201527f4552433732313a207472616e73666572206f6620746f6b656e2074686174206960448201527f73206e6f74206f776e00000000000000000000000000000000000000000000006064820152608401610671565b6001600160a01b03821661171d5760405162461bcd60e51b8152602060048201526024808201527f4552433732313a207472616e7366657220746f20746865207a65726f2061646460448201527f72657373000000000000000000000000000000000000000000000000000000006064820152608401610671565b611728600082611490565b6001600160a01b0383166000908152609a60205260408120805460019290611751908490612acf565b90915550506001600160a01b0382166000908152609a6020526040812080546001929061177f908490612aa3565b9091555050600081815260996020526040808220805473ffffffffffffffffffffffffffffffffffffffff19166001600160a01b0386811691821790925591518493918716917fddf252ad1be2c89b69c2b068fc378daa952ba7f163c4a11628f55a4df523b3ef91a4505050565b6117f5611481565b6001600160a01b031661180782610ac6565b6001600160a01b03161461185d5760405162461bcd60e51b815260206004820152600960248201527f4e6f74206f776e657200000000000000000000000000000000000000000000006044820152606401610671565b600081815260fd60205260409020805460ff19166001179055610871816120ea565b60008281526065602090815260408083206001600160a01b038516845290915290205460ff1661090f5760008281526065602090815260408083206001600160a01b03851684529091529020805460ff191660011790556118de611481565b6001600160a01b0316816001600160a01b0316837f2f8788117e7eff1d82e926ec794901d17c78024a50270940304540a733656f0d60405160405180910390a45050565b60008281526065602090815260408083206001600160a01b038516845290915290205460ff161561090f5760008281526065602090815260408083206001600160a01b03851684529091529020805460ff1916905561197f611481565b6001600160a01b0316816001600160a01b0316837ff6391f5c32d9c69d2a47ea670b442974b53935d1edc7fd64eb21e047a839171b60405160405180910390a45050565b6001600160a01b038216611a195760405162461bcd60e51b815260206004820181905260248201527f4552433732313a206d696e7420746f20746865207a65726f20616464726573736044820152606401610671565b6000818152609960205260409020546001600160a01b031615611a7e5760405162461bcd60e51b815260206004820152601c60248201527f4552433732313a20746f6b656e20616c7265616479206d696e746564000000006044820152606401610671565b6001600160a01b0382166000908152609a60205260408120805460019290611aa7908490612aa3565b9091555050600081815260996020526040808220805473ffffffffffffffffffffffffffffffffffffffff19166001600160a01b03861690811790915590518392907fddf252ad1be2c89b69c2b068fc378daa952ba7f163c4a11628f55a4df523b3ef908290a45050565b611b1d848484611613565b611b2984848484612192565b610e265760405162461bcd60e51b815260206004820152603260248201527f4552433732313a207472616e7366657220746f206e6f6e20455243373231526560448201527f63656976657220696d706c656d656e74657200000000000000000000000000006064820152608401610671565b606060ca805461056790612b12565b606081611beb575060408051808201909152600181527f30000000000000000000000000000000000000000000000000000000000000006020820152610553565b8160005b8115611c155780611bff81612b4d565b9150611c0e9050600a83612abb565b9150611bef565b60008167ffffffffffffffff811115611c3e57634e487b7160e01b600052604160045260246000fd5b6040519080825280601f01601f191660200182016040528015611c68576020820181803683370190505b5090505b841561160b57611c7d600183612acf565b9150611c8a600a86612b86565b611c95906030612aa3565b60f81b818381518110611cb857634e487b7160e01b600052603260045260246000fd5b60200101907effffffffffffffffffffffffffffffffffffffffffffffffffffffffffffff1916908160001a905350611cf2600a86612abb565b9450611c6c565b600081815260fd602052604090205460ff16611d575760405162461bcd60e51b815260206004820152601e60248201527f544f4b454e5f4e4f545f4558495354535f4f4e5f524f4f545f434841494e00006044820152606401610671565b600081815260fd60205260409020805460ff1916905561090f82826119c3565b600054610100900460ff1680611d90575060005460ff16155b611e025760405162461bcd60e51b815260206004820152602e60248201527f496e697469616c697a61626c653a20636f6e747261637420697320616c72656160448201527f647920696e697469616c697a65640000000000000000000000000000000000006064820152608401610671565b600054610100900460ff16158015611e2d576000805460ff1961ff0019909116610100171660011790555b8015610871576000805461ff001916905550565b600054610100900460ff1680611e5a575060005460ff16155b611ecc5760405162461bcd60e51b815260206004820152602e60248201527f496e697469616c697a61626c653a20636f6e747261637420697320616c72656160448201527f647920696e697469616c697a65640000000000000000000000000000000000006064820152608401610671565b600054610100900460ff16158015611ef7576000805460ff1961ff0019909116610100171660011790555b611f02600084610905565b8151611f159060ca9060208501906123b1565b5080156107d5576000805461ff0019169055505050565b600054610100900460ff1680611f45575060005460ff16155b611fb75760405162461bcd60e51b815260206004820152602e60248201527f496e697469616c697a61626c653a20636f6e747261637420697320616c72656160448201527f647920696e697469616c697a65640000000000000000000000000000000000006064820152608401610671565b600054610100900460ff16158015611fe2576000805460ff1961ff0019909116610100171660011790555b8251611ff59060979060208601906123b1565b508151611f159060989060208501906123b1565b60007fffffffff0000000000000000000000000000000000000000000000000000000082167f7965db0b00000000000000000000000000000000000000000000000000000000148061055057507f01ffc9a7000000000000000000000000000000000000000000000000000000007fffffffff00000000000000000000000000000000000000000000000000000000831614610550565b60c9546000906001600160a01b03163314156120e357507fffffffffffffffffffffffffffffffffffffffffffffffffffffffffffffffec36013560601c6105e8565b50336105e8565b60006120f582610ac6565b9050612102600083611490565b6001600160a01b0381166000908152609a6020526040812080546001929061212b908490612acf565b9091555050600082815260996020526040808220805473ffffffffffffffffffffffffffffffffffffffff19169055518391906001600160a01b038416907fddf252ad1be2c89b69c2b068fc378daa952ba7f163c4a11628f55a4df523b3ef908390a45050565b60006001600160a01b0384163b1561232257836001600160a01b031663150b7a026121bb611481565b8786866040518563ffffffff1660e01b81526004016121dd949392919061298c565b602060405180830381600087803b1580156121f757600080fd5b505af1925050508015612227575060408051601f3d908101601f191682019092526122249181019061282f565b60015b6122d7573d808015612255576040519150601f19603f3d011682016040523d82523d6000602084013e61225a565b606091505b5080516122cf5760405162461bcd60e51b815260206004820152603260248201527f4552433732313a207472616e7366657220746f206e6f6e20455243373231526560448201527f63656976657220696d706c656d656e74657200000000000000000000000000006064820152608401610671565b805181602001fd5b7fffffffff00000000000000000000000000000000000000000000000000000000167f150b7a020000000000000000000000000000000000000000000000000000000014905061160b565b506001949350505050565b82805461233990612b12565b90600052602060002090601f01602090048101928261235b57600085556123a1565b82601f106123745782800160ff198235161785556123a1565b828001600101855582156123a1579182015b828111156123a1578235825591602001919060010190612386565b506123ad929150612425565b5090565b8280546123bd90612b12565b90600052602060002090601f0160209004810192826123df57600085556123a1565b82601f106123f857805160ff19168380011785556123a1565b828001600101855582156123a1579182015b828111156123a157825182559160200191906001019061240a565b5b808211156123ad5760008155600101612426565b600067ffffffffffffffff83111561245457612454612bc6565b6124676020601f19601f86011601612a72565b905082815283838301111561247b57600080fd5b828260208301376000602084830101529392505050565b80356001600160a01b038116811461055357600080fd5b60008083601f8401126124ba578182fd5b50813567ffffffffffffffff8111156124d1578182fd5b6020830191508360208285010111156124e957600080fd5b9250929050565b600082601f830112612500578081fd5b610f738383356020850161243a565b600060208284031215612520578081fd5b610f7382612492565b6000806040838503121561253b578081fd5b61254483612492565b915061255260208401612492565b90509250929050565b60008060006060848603121561256f578081fd5b61257884612492565b925061258660208501612492565b9150604084013590509250925092565b600080600080608085870312156125ab578081fd5b6125b485612492565b93506125c260208601612492565b925060408501359150606085013567ffffffffffffffff8111156125e4578182fd5b8501601f810187136125f4578182fd5b6126038782356020840161243a565b91505092959194509250565b60008060408385031215612621578182fd5b61262a83612492565b91506020830135801515811461263e578182fd5b809150509250929050565b60008060006040848603121561265d578283fd5b61266684612492565b9250602084013567ffffffffffffffff811115612681578283fd5b61268d868287016124a9565b9497909650939450505050565b600080604083850312156126ac578182fd5b6126b583612492565b946020939093013593505050565b600080602083850312156126d5578182fd5b823567ffffffffffffffff808211156126ec578384fd5b818501915085601f8301126126ff578384fd5b81358181111561270d578485fd5b8660208083028501011115612720578485fd5b60209290920196919550909350505050565b60006020808385031215612744578182fd5b823567ffffffffffffffff8082111561275b578384fd5b818501915085601f83011261276e578384fd5b81358181111561278057612780612bc6565b8381029150612790848301612a72565b8181528481019084860184860187018a10156127aa578788fd5b8795505b838610156127cc5780358352600195909501949186019186016127ae565b5098975050505050505050565b6000602082840312156127ea578081fd5b5035919050565b60008060408385031215612803578182fd5b8235915061255260208401612492565b600060208284031215612824578081fd5b8135610f7381612bdc565b600060208284031215612840578081fd5b8151610f7381612bdc565b6000806020838503121561285d578182fd5b823567ffffffffffffffff811115612873578283fd5b61287f858286016124a9565b90969095509350505050565b600080600080600060a086880312156128a2578283fd5b853567ffffffffffffffff808211156128b9578485fd5b6128c589838a016124f0565b965060208801359150808211156128da578485fd5b6128e689838a016124f0565b955060408801359150808211156128fb578485fd5b50612908888289016124f0565b93505061291760608701612492565b915061292560808701612492565b90509295509295909350565b60008151808452612949816020860160208601612ae6565b601f01601f19169290920160200192915050565b6000835161296f818460208801612ae6565b835190830190612983818360208801612ae6565b01949350505050565b60006001600160a01b038087168352808616602084015250836040830152608060608301526129be6080830184612931565b9695505050505050565b6000602082528260208301527f07ffffffffffffffffffffffffffffffffffffffffffffffffffffffffffffff831115612a00578081fd5b60208302808560408501379190910160400190815292915050565b6020808252825182820181905260009190848201906040850190845b81811015612a5357835183529284019291840191600101612a37565b50909695505050505050565b600060208252610f736020830184612931565b604051601f8201601f1916810167ffffffffffffffff81118282101715612a9b57612a9b612bc6565b604052919050565b60008219821115612ab657612ab6612b9a565b500190565b600082612aca57612aca612bb0565b500490565b600082821015612ae157612ae1612b9a565b500390565b60005b83811015612b01578181015183820152602001612ae9565b83811115610e265750506000910152565b600281046001821680612b2657607f821691505b60208210811415612b4757634e487b7160e01b600052602260045260246000fd5b50919050565b60007fffffffffffffffffffffffffffffffffffffffffffffffffffffffffffffffff821415612b7f57612b7f612b9a565b5060010190565b600082612b9557612b95612bb0565b500690565b634e487b7160e01b600052601160045260246000fd5b634e487b7160e01b600052601260045260246000fd5b634e487b7160e01b600052604160045260246000fd5b7fffffffff000000000000000000000000000000000000000000000000000000008116811461087157600080fdfea26469706673582212202afe761190d5b8208864e3ef1509d0a4f12151955fac35d2da841851287b4a5164736f6c63430008020033",
  "devdoc": {
    "details": "This contract support meta transactions.Avatar will be minted only on L2 (using the sale contract) and can be transferred to L1 but not minted on L1.This contract is final, don't inherit form it.",
    "kind": "dev",
    "methods": {
      "approve(address,uint256)": {
        "details": "See {IERC721-approve}."
      },
      "balanceOf(address)": {
        "details": "See {IERC721-balanceOf}."
      },
      "deposit(address,bytes)": {
        "details": "Should be callable only by ChildChainManager Should handle deposit by minting the required tokenId(s) for user Should set `withdrawnTokens` mapping to `false` for the tokenId being deposited Minting can also be done by other functions",
        "params": {
          "depositData": "abi encoded tokenIds. Batch deposit also supported.",
          "user": "user address for whom deposit is being done"
        }
      },
      "exists(uint256)": {
        "details": "We don't implement {IMintableERC721-exists} but this one is a nice to have."
      },
      "getApproved(uint256)": {
        "details": "See {IERC721-getApproved}."
      },
      "getRoleAdmin(bytes32)": {
        "details": "Returns the admin role that controls `role`. See {grantRole} and {revokeRole}. To change a role's admin, use {_setRoleAdmin}."
      },
      "grantRole(bytes32,address)": {
        "details": "Grants `role` to `account`. If `account` had not been already granted `role`, emits a {RoleGranted} event. Requirements: - the caller must have ``role``'s admin role."
      },
      "hasRole(bytes32,address)": {
        "details": "Returns `true` if `account` has been granted `role`."
      },
      "isApprovedForAll(address,address)": {
        "details": "See {IERC721-isApprovedForAll}."
      },
      "mint(address,uint256)": {
        "details": "Creates a new token for `to`. Its token ID will be automatically assigned (and available on the emitted {IERC721-Transfer} event), and the token URI autogenerated based on the base URI passed at construction. See {ERC721-_mint}. Requirements: - the caller must have the `MINTER_ROLE`."
      },
      "name()": {
        "details": "See {IERC721Metadata-name}."
      },
      "ownerOf(uint256)": {
        "details": "See {IERC721-ownerOf}."
      },
      "renounceRole(bytes32,address)": {
        "details": "Revokes `role` from the calling account. Roles are often managed via {grantRole} and {revokeRole}: this function's purpose is to provide a mechanism for accounts to lose their privileges if they are compromised (such as when a trusted device is misplaced). If the calling account had been granted `role`, emits a {RoleRevoked} event. Requirements: - the caller must be `account`."
      },
      "revokeRole(bytes32,address)": {
        "details": "Revokes `role` from `account`. If `account` had been granted `role`, emits a {RoleRevoked} event. Requirements: - the caller must have ``role``'s admin role."
      },
      "safeTransferFrom(address,address,uint256)": {
        "details": "See {IERC721-safeTransferFrom}."
      },
      "safeTransferFrom(address,address,uint256,bytes)": {
        "details": "See {IERC721-safeTransferFrom}."
      },
      "setApprovalForAll(address,bool)": {
        "details": "See {IERC721-setApprovalForAll}."
      },
      "setBaseUrl(string)": {
        "details": "Change the base url for token metadata",
        "params": {
          "baseUri_": "The new base Url."
        }
      },
      "setTrustedForwarder(address)": {
        "details": "Change the address of the trusted forwarder for meta-TX",
        "params": {
          "trustedForwarder_": "The new trustedForwarder"
        }
      },
      "supportsInterface(bytes4)": {
        "details": "See {IERC165-supportsInterface}. We must implement supportsInterface here because ERC721Upgradeable is not abstract."
      },
      "symbol()": {
        "details": "See {IERC721Metadata-symbol}."
      },
      "tokenURI(uint256)": {
        "details": "See {IERC721Metadata-tokenURI}."
      },
      "transferFrom(address,address,uint256)": {
        "details": "See {IERC721-transferFrom}."
      },
      "withdraw(uint256)": {
        "params": {
          "tokenId": "tokenId of the token to be withdrawn"
        }
      },
      "withdrawBatch(uint256[])": {
        "details": "Should burn user's tokens. This transaction will be verified when exiting on root chain",
        "params": {
          "tokenIds": "tokenId list to withdraw"
        }
      }
    },
    "title": "This contract is a erc 721 compatible NFT token that represents an avatar and can be minted by a minter role.",
    "version": 1
  },
  "userdoc": {
    "kind": "user",
    "methods": {
      "deposit(address,bytes)": {
        "notice": "called when token is deposited on root chain"
      },
      "withdraw(uint256)": {
        "notice": "Withdraw tokens"
      },
      "withdrawBatch(uint256[])": {
        "notice": "called when user wants to withdraw multiple tokens back to root chain"
      }
    },
    "version": 1
  },
  "storageLayout": {
    "storage": [
      {
        "astId": 2119,
        "contract": "src/solc_0.8/polygon/child/avatar/PolygonAvatar.sol:PolygonAvatar",
        "label": "_initialized",
        "offset": 0,
        "slot": "0",
        "type": "t_bool"
      },
      {
        "astId": 2122,
        "contract": "src/solc_0.8/polygon/child/avatar/PolygonAvatar.sol:PolygonAvatar",
        "label": "_initializing",
        "offset": 1,
        "slot": "0",
        "type": "t_bool"
      },
      {
        "astId": 3568,
        "contract": "src/solc_0.8/polygon/child/avatar/PolygonAvatar.sol:PolygonAvatar",
        "label": "__gap",
        "offset": 0,
        "slot": "1",
        "type": "t_array(t_uint256)50_storage"
      },
      {
        "astId": 4102,
        "contract": "src/solc_0.8/polygon/child/avatar/PolygonAvatar.sol:PolygonAvatar",
        "label": "__gap",
        "offset": 0,
        "slot": "51",
        "type": "t_array(t_uint256)50_storage"
      },
      {
        "astId": 1847,
        "contract": "src/solc_0.8/polygon/child/avatar/PolygonAvatar.sol:PolygonAvatar",
        "label": "_roles",
        "offset": 0,
        "slot": "101",
        "type": "t_mapping(t_bytes32,t_struct(RoleData)1842_storage)"
      },
      {
        "astId": 2111,
        "contract": "src/solc_0.8/polygon/child/avatar/PolygonAvatar.sol:PolygonAvatar",
        "label": "__gap",
        "offset": 0,
        "slot": "102",
        "type": "t_array(t_uint256)49_storage"
      },
      {
        "astId": 2267,
        "contract": "src/solc_0.8/polygon/child/avatar/PolygonAvatar.sol:PolygonAvatar",
        "label": "_name",
        "offset": 0,
        "slot": "151",
        "type": "t_string_storage"
      },
      {
        "astId": 2269,
        "contract": "src/solc_0.8/polygon/child/avatar/PolygonAvatar.sol:PolygonAvatar",
        "label": "_symbol",
        "offset": 0,
        "slot": "152",
        "type": "t_string_storage"
      },
      {
        "astId": 2273,
        "contract": "src/solc_0.8/polygon/child/avatar/PolygonAvatar.sol:PolygonAvatar",
        "label": "_owners",
        "offset": 0,
        "slot": "153",
        "type": "t_mapping(t_uint256,t_address)"
      },
      {
        "astId": 2277,
        "contract": "src/solc_0.8/polygon/child/avatar/PolygonAvatar.sol:PolygonAvatar",
        "label": "_balances",
        "offset": 0,
        "slot": "154",
        "type": "t_mapping(t_address,t_uint256)"
      },
      {
        "astId": 2281,
        "contract": "src/solc_0.8/polygon/child/avatar/PolygonAvatar.sol:PolygonAvatar",
        "label": "_tokenApprovals",
        "offset": 0,
        "slot": "155",
        "type": "t_mapping(t_uint256,t_address)"
      },
      {
        "astId": 2287,
        "contract": "src/solc_0.8/polygon/child/avatar/PolygonAvatar.sol:PolygonAvatar",
        "label": "_operatorApprovals",
        "offset": 0,
        "slot": "156",
        "type": "t_mapping(t_address,t_mapping(t_address,t_bool))"
      },
      {
        "astId": 3087,
        "contract": "src/solc_0.8/polygon/child/avatar/PolygonAvatar.sol:PolygonAvatar",
        "label": "__gap",
        "offset": 0,
        "slot": "157",
        "type": "t_array(t_uint256)44_storage"
      },
      {
        "astId": 17409,
        "contract": "src/solc_0.8/polygon/child/avatar/PolygonAvatar.sol:PolygonAvatar",
        "label": "_trustedForwarder",
        "offset": 0,
        "slot": "201",
        "type": "t_address"
      },
      {
        "astId": 12287,
        "contract": "src/solc_0.8/polygon/child/avatar/PolygonAvatar.sol:PolygonAvatar",
        "label": "baseTokenURI",
        "offset": 0,
        "slot": "202",
        "type": "t_string_storage"
      },
      {
        "astId": 12402,
        "contract": "src/solc_0.8/polygon/child/avatar/PolygonAvatar.sol:PolygonAvatar",
        "label": "__gap",
        "offset": 0,
        "slot": "203",
        "type": "t_array(t_uint256)50_storage"
      },
      {
        "astId": 24897,
        "contract": "src/solc_0.8/polygon/child/avatar/PolygonAvatar.sol:PolygonAvatar",
        "label": "withdrawnTokens",
        "offset": 0,
        "slot": "253",
        "type": "t_mapping(t_uint256,t_bool)"
      }
    ],
    "types": {
      "t_address": {
        "encoding": "inplace",
        "label": "address",
        "numberOfBytes": "20"
      },
      "t_array(t_uint256)44_storage": {
        "base": "t_uint256",
        "encoding": "inplace",
        "label": "uint256[44]",
        "numberOfBytes": "1408"
      },
      "t_array(t_uint256)49_storage": {
        "base": "t_uint256",
        "encoding": "inplace",
        "label": "uint256[49]",
        "numberOfBytes": "1568"
      },
      "t_array(t_uint256)50_storage": {
        "base": "t_uint256",
        "encoding": "inplace",
        "label": "uint256[50]",
        "numberOfBytes": "1600"
      },
      "t_bool": {
        "encoding": "inplace",
        "label": "bool",
        "numberOfBytes": "1"
      },
      "t_bytes32": {
        "encoding": "inplace",
        "label": "bytes32",
        "numberOfBytes": "32"
      },
      "t_mapping(t_address,t_bool)": {
        "encoding": "mapping",
        "key": "t_address",
        "label": "mapping(address => bool)",
        "numberOfBytes": "32",
        "value": "t_bool"
      },
      "t_mapping(t_address,t_mapping(t_address,t_bool))": {
        "encoding": "mapping",
        "key": "t_address",
        "label": "mapping(address => mapping(address => bool))",
        "numberOfBytes": "32",
        "value": "t_mapping(t_address,t_bool)"
      },
      "t_mapping(t_address,t_uint256)": {
        "encoding": "mapping",
        "key": "t_address",
        "label": "mapping(address => uint256)",
        "numberOfBytes": "32",
        "value": "t_uint256"
      },
      "t_mapping(t_bytes32,t_struct(RoleData)1842_storage)": {
        "encoding": "mapping",
        "key": "t_bytes32",
        "label": "mapping(bytes32 => struct AccessControlUpgradeable.RoleData)",
        "numberOfBytes": "32",
        "value": "t_struct(RoleData)1842_storage"
      },
      "t_mapping(t_uint256,t_address)": {
        "encoding": "mapping",
        "key": "t_uint256",
        "label": "mapping(uint256 => address)",
        "numberOfBytes": "32",
        "value": "t_address"
      },
      "t_mapping(t_uint256,t_bool)": {
        "encoding": "mapping",
        "key": "t_uint256",
        "label": "mapping(uint256 => bool)",
        "numberOfBytes": "32",
        "value": "t_bool"
      },
      "t_string_storage": {
        "encoding": "bytes",
        "label": "string",
        "numberOfBytes": "32"
      },
      "t_struct(RoleData)1842_storage": {
        "encoding": "inplace",
        "label": "struct AccessControlUpgradeable.RoleData",
        "members": [
          {
            "astId": 1839,
            "contract": "src/solc_0.8/polygon/child/avatar/PolygonAvatar.sol:PolygonAvatar",
            "label": "members",
            "offset": 0,
            "slot": "0",
            "type": "t_mapping(t_address,t_bool)"
          },
          {
            "astId": 1841,
            "contract": "src/solc_0.8/polygon/child/avatar/PolygonAvatar.sol:PolygonAvatar",
            "label": "adminRole",
            "offset": 0,
            "slot": "1",
            "type": "t_bytes32"
          }
        ],
        "numberOfBytes": "64"
      },
      "t_uint256": {
        "encoding": "inplace",
        "label": "uint256",
        "numberOfBytes": "32"
      }
    }
  }
}