{
  "address": "0x0FD84DC19e76da50ae97A49D8f5B936c6CA8448D",
  "abi": [
    {
      "anonymous": false,
      "inputs": [
        {
          "indexed": true,
          "internalType": "address",
          "name": "owner",
          "type": "address"
        },
        {
          "indexed": true,
          "internalType": "address",
          "name": "approved",
          "type": "address"
        },
        {
          "indexed": true,
          "internalType": "uint256",
          "name": "tokenId",
          "type": "uint256"
        }
      ],
      "name": "Approval",
      "type": "event"
    },
    {
      "anonymous": false,
      "inputs": [
        {
          "indexed": true,
          "internalType": "address",
          "name": "owner",
          "type": "address"
        },
        {
          "indexed": true,
          "internalType": "address",
          "name": "operator",
          "type": "address"
        },
        {
          "indexed": false,
          "internalType": "bool",
          "name": "approved",
          "type": "bool"
        }
      ],
      "name": "ApprovalForAll",
      "type": "event"
    },
    {
      "anonymous": false,
      "inputs": [
        {
          "indexed": true,
          "internalType": "bytes32",
          "name": "role",
          "type": "bytes32"
        },
        {
          "indexed": true,
          "internalType": "bytes32",
          "name": "previousAdminRole",
          "type": "bytes32"
        },
        {
          "indexed": true,
          "internalType": "bytes32",
          "name": "newAdminRole",
          "type": "bytes32"
        }
      ],
      "name": "RoleAdminChanged",
      "type": "event"
    },
    {
      "anonymous": false,
      "inputs": [
        {
          "indexed": true,
          "internalType": "bytes32",
          "name": "role",
          "type": "bytes32"
        },
        {
          "indexed": true,
          "internalType": "address",
          "name": "account",
          "type": "address"
        },
        {
          "indexed": true,
          "internalType": "address",
          "name": "sender",
          "type": "address"
        }
      ],
      "name": "RoleGranted",
      "type": "event"
    },
    {
      "anonymous": false,
      "inputs": [
        {
          "indexed": true,
          "internalType": "bytes32",
          "name": "role",
          "type": "bytes32"
        },
        {
          "indexed": true,
          "internalType": "address",
          "name": "account",
          "type": "address"
        },
        {
          "indexed": true,
          "internalType": "address",
          "name": "sender",
          "type": "address"
        }
      ],
      "name": "RoleRevoked",
      "type": "event"
    },
    {
      "anonymous": false,
      "inputs": [
        {
          "indexed": true,
          "internalType": "address",
          "name": "from",
          "type": "address"
        },
        {
          "indexed": true,
          "internalType": "address",
          "name": "to",
          "type": "address"
        },
        {
          "indexed": true,
          "internalType": "uint256",
          "name": "tokenId",
          "type": "uint256"
        }
      ],
      "name": "Transfer",
      "type": "event"
    },
    {
      "inputs": [],
      "name": "DEFAULT_ADMIN_ROLE",
      "outputs": [
        {
          "internalType": "bytes32",
          "name": "",
          "type": "bytes32"
        }
      ],
      "stateMutability": "view",
      "type": "function"
    },
    {
      "inputs": [],
      "name": "MINTER_ROLE",
      "outputs": [
        {
          "internalType": "bytes32",
          "name": "",
          "type": "bytes32"
        }
      ],
      "stateMutability": "view",
      "type": "function"
    },
    {
      "inputs": [
        {
          "internalType": "address",
          "name": "to",
          "type": "address"
        },
        {
          "internalType": "uint256",
          "name": "tokenId",
          "type": "uint256"
        }
      ],
      "name": "approve",
      "outputs": [],
      "stateMutability": "nonpayable",
      "type": "function"
    },
    {
      "inputs": [
        {
          "internalType": "address",
          "name": "owner",
          "type": "address"
        }
      ],
      "name": "balanceOf",
      "outputs": [
        {
          "internalType": "uint256",
          "name": "",
          "type": "uint256"
        }
      ],
      "stateMutability": "view",
      "type": "function"
    },
    {
      "inputs": [],
      "name": "baseTokenURI",
      "outputs": [
        {
          "internalType": "string",
          "name": "",
          "type": "string"
        }
      ],
      "stateMutability": "view",
      "type": "function"
    },
    {
      "inputs": [
        {
          "internalType": "uint256",
          "name": "tokenId",
          "type": "uint256"
        }
      ],
      "name": "exists",
      "outputs": [
        {
          "internalType": "bool",
          "name": "",
          "type": "bool"
        }
      ],
      "stateMutability": "view",
      "type": "function"
    },
    {
      "inputs": [
        {
          "internalType": "uint256",
          "name": "tokenId",
          "type": "uint256"
        }
      ],
      "name": "getApproved",
      "outputs": [
        {
          "internalType": "address",
          "name": "",
          "type": "address"
        }
      ],
      "stateMutability": "view",
      "type": "function"
    },
    {
      "inputs": [
        {
          "internalType": "bytes32",
          "name": "role",
          "type": "bytes32"
        }
      ],
      "name": "getRoleAdmin",
      "outputs": [
        {
          "internalType": "bytes32",
          "name": "",
          "type": "bytes32"
        }
      ],
      "stateMutability": "view",
      "type": "function"
    },
    {
      "inputs": [],
      "name": "getTrustedForwarder",
      "outputs": [
        {
          "internalType": "address",
          "name": "trustedForwarder",
          "type": "address"
        }
      ],
      "stateMutability": "view",
      "type": "function"
    },
    {
      "inputs": [
        {
          "internalType": "bytes32",
          "name": "role",
          "type": "bytes32"
        },
        {
          "internalType": "address",
          "name": "account",
          "type": "address"
        }
      ],
      "name": "grantRole",
      "outputs": [],
      "stateMutability": "nonpayable",
      "type": "function"
    },
    {
      "inputs": [
        {
          "internalType": "bytes32",
          "name": "role",
          "type": "bytes32"
        },
        {
          "internalType": "address",
          "name": "account",
          "type": "address"
        }
      ],
      "name": "hasRole",
      "outputs": [
        {
          "internalType": "bool",
          "name": "",
          "type": "bool"
        }
      ],
      "stateMutability": "view",
      "type": "function"
    },
    {
      "inputs": [
        {
          "internalType": "string",
          "name": "name_",
          "type": "string"
        },
        {
          "internalType": "string",
          "name": "symbol_",
          "type": "string"
        },
        {
          "internalType": "string",
          "name": "baseTokenURI_",
          "type": "string"
        },
        {
          "internalType": "address",
          "name": "trustedForwarder_",
          "type": "address"
        },
        {
          "internalType": "address",
          "name": "defaultAdmin_",
          "type": "address"
        }
      ],
      "name": "initialize",
      "outputs": [],
      "stateMutability": "nonpayable",
      "type": "function"
    },
    {
      "inputs": [
        {
          "internalType": "address",
          "name": "owner",
          "type": "address"
        },
        {
          "internalType": "address",
          "name": "operator",
          "type": "address"
        }
      ],
      "name": "isApprovedForAll",
      "outputs": [
        {
          "internalType": "bool",
          "name": "",
          "type": "bool"
        }
      ],
      "stateMutability": "view",
      "type": "function"
    },
    {
      "inputs": [
        {
          "internalType": "address",
          "name": "forwarder",
          "type": "address"
        }
      ],
      "name": "isTrustedForwarder",
      "outputs": [
        {
          "internalType": "bool",
          "name": "",
          "type": "bool"
        }
      ],
      "stateMutability": "view",
      "type": "function"
    },
    {
      "inputs": [
        {
          "internalType": "address",
          "name": "to",
          "type": "address"
        },
        {
          "internalType": "uint256",
          "name": "id",
          "type": "uint256"
        }
      ],
      "name": "mint",
      "outputs": [],
      "stateMutability": "nonpayable",
      "type": "function"
    },
    {
      "inputs": [
        {
          "internalType": "address",
          "name": "user",
          "type": "address"
        },
        {
          "internalType": "uint256",
          "name": "tokenId",
          "type": "uint256"
        },
        {
          "internalType": "bytes",
          "name": "metaData",
          "type": "bytes"
        }
      ],
      "name": "mint",
      "outputs": [],
      "stateMutability": "nonpayable",
      "type": "function"
    },
    {
      "inputs": [],
      "name": "name",
      "outputs": [
        {
          "internalType": "string",
          "name": "",
          "type": "string"
        }
      ],
      "stateMutability": "view",
      "type": "function"
    },
    {
      "inputs": [
        {
          "internalType": "uint256",
          "name": "tokenId",
          "type": "uint256"
        }
      ],
      "name": "ownerOf",
      "outputs": [
        {
          "internalType": "address",
          "name": "",
          "type": "address"
        }
      ],
      "stateMutability": "view",
      "type": "function"
    },
    {
      "inputs": [
        {
          "internalType": "bytes32",
          "name": "role",
          "type": "bytes32"
        },
        {
          "internalType": "address",
          "name": "account",
          "type": "address"
        }
      ],
      "name": "renounceRole",
      "outputs": [],
      "stateMutability": "nonpayable",
      "type": "function"
    },
    {
      "inputs": [
        {
          "internalType": "bytes32",
          "name": "role",
          "type": "bytes32"
        },
        {
          "internalType": "address",
          "name": "account",
          "type": "address"
        }
      ],
      "name": "revokeRole",
      "outputs": [],
      "stateMutability": "nonpayable",
      "type": "function"
    },
    {
      "inputs": [
        {
          "internalType": "address",
          "name": "from",
          "type": "address"
        },
        {
          "internalType": "address",
          "name": "to",
          "type": "address"
        },
        {
          "internalType": "uint256",
          "name": "tokenId",
          "type": "uint256"
        }
      ],
      "name": "safeTransferFrom",
      "outputs": [],
      "stateMutability": "nonpayable",
      "type": "function"
    },
    {
      "inputs": [
        {
          "internalType": "address",
          "name": "from",
          "type": "address"
        },
        {
          "internalType": "address",
          "name": "to",
          "type": "address"
        },
        {
          "internalType": "uint256",
          "name": "tokenId",
          "type": "uint256"
        },
        {
          "internalType": "bytes",
          "name": "_data",
          "type": "bytes"
        }
      ],
      "name": "safeTransferFrom",
      "outputs": [],
      "stateMutability": "nonpayable",
      "type": "function"
    },
    {
      "inputs": [
        {
          "internalType": "address",
          "name": "operator",
          "type": "address"
        },
        {
          "internalType": "bool",
          "name": "approved",
          "type": "bool"
        }
      ],
      "name": "setApprovalForAll",
      "outputs": [],
      "stateMutability": "nonpayable",
      "type": "function"
    },
    {
      "inputs": [
        {
          "internalType": "string",
          "name": "baseUri_",
          "type": "string"
        }
      ],
      "name": "setBaseUrl",
      "outputs": [],
      "stateMutability": "nonpayable",
      "type": "function"
    },
    {
      "inputs": [
        {
          "internalType": "address",
          "name": "trustedForwarder_",
          "type": "address"
        }
      ],
      "name": "setTrustedForwarder",
      "outputs": [],
      "stateMutability": "nonpayable",
      "type": "function"
    },
    {
      "inputs": [
        {
          "internalType": "bytes4",
          "name": "interfaceId",
          "type": "bytes4"
        }
      ],
      "name": "supportsInterface",
      "outputs": [
        {
          "internalType": "bool",
          "name": "",
          "type": "bool"
        }
      ],
      "stateMutability": "view",
      "type": "function"
    },
    {
      "inputs": [],
      "name": "symbol",
      "outputs": [
        {
          "internalType": "string",
          "name": "",
          "type": "string"
        }
      ],
      "stateMutability": "view",
      "type": "function"
    },
    {
      "inputs": [
        {
          "internalType": "uint256",
          "name": "tokenId",
          "type": "uint256"
        }
      ],
      "name": "tokenURI",
      "outputs": [
        {
          "internalType": "string",
          "name": "",
          "type": "string"
        }
      ],
      "stateMutability": "view",
      "type": "function"
    },
    {
      "inputs": [
        {
          "internalType": "address",
          "name": "from",
          "type": "address"
        },
        {
          "internalType": "address",
          "name": "to",
          "type": "address"
        },
        {
          "internalType": "uint256",
          "name": "tokenId",
          "type": "uint256"
        }
      ],
      "name": "transferFrom",
      "outputs": [],
      "stateMutability": "nonpayable",
      "type": "function"
    }
  ],
  "transactionHash": "0xea7b6899a87331e1a67549712d1590b29765d95f40a449b9d5c5e7706fe1f7bf",
  "args": [],
  "solcInputHash": "e4d9ef29cc84a5978074952a5664e1e0",
  "bytecode": "0x608060405234801561001057600080fd5b506126cd806100206000396000f3fe608060405234801561001057600080fd5b50600436106101cf5760003560e01c806391d1485411610104578063c87b56dd116100a2578063d547cfb711610071578063d547cfb71461042f578063d6d0faee14610437578063da7422281461044a578063e985e9c51461045d576101cf565b8063c87b56dd146103d1578063ce1b815f146103e4578063d5391393146103f5578063d547741f1461041c576101cf565b8063a217fddf116100de578063a217fddf14610390578063a22cb46514610398578063b88d4fde146103ab578063c7c3268b146103be576101cf565b806391d148541461033c57806394d008ef1461037557806395d89b4114610388576101cf565b806336568abe116101715780634f558e791161014b5780634f558e79146102e1578063572b6c05146102f45780636352211e1461031657806370a0823114610329576101cf565b806336568abe146102a857806340c10f19146102bb57806342842e0e146102ce576101cf565b8063095ea7b3116101ad578063095ea7b31461023c57806323b872dd14610251578063248a9ca3146102645780632f2ff15d14610295576101cf565b806301ffc9a7146101d457806306fdde03146101fc578063081812fc14610211575b600080fd5b6101e76101e2366004612368565b610499565b60405190151581526020015b60405180910390f35b6102046104ac565b6040516101f3919061251d565b61022461021f36600461232e565b61053f565b6040516001600160a01b0390911681526020016101f3565b61024f61024a3660046122ad565b6105ea565b005b61024f61025f3660046121bf565b61072e565b61028761027236600461232e565b60009081526065602052604090206001015490565b6040519081526020016101f3565b61024f6102a3366004612346565b6107bc565b61024f6102b6366004612346565b61085b565b61024f6102c93660046122ad565b6108f3565b61024f6102dc3660046121bf565b610975565b6101e76102ef36600461232e565b610980565b6101e7610302366004612173565b60c9546001600160a01b0390811691161490565b61022461032436600461232e565b61099f565b610287610337366004612173565b610a2a565b6101e761034a366004612346565b60009182526065602090815260408084206001600160a01b0393909316845291905290205460ff1690565b61024f6103833660046122d6565b610ac4565b610204610b83565b610287600081565b61024f6103a6366004612273565b610b92565b61024f6103b93660046121fa565b610c94565b61024f6103cc3660046123a0565b610d23565b6102046103df36600461232e565b610d88565b60c9546001600160a01b0316610224565b6102877f9f2df0fed2c77648de5860a4cc508cd0818c85b8b8a1ab4ceeef8d981c8956a681565b61024f61042a366004612346565b610e71565b610204610efe565b61024f6104453660046123e0565b610f8c565b61024f610458366004612173565b6110b0565b6101e761046b36600461218d565b6001600160a01b039182166000908152609c6020908152604080832093909416825291909152205460ff1690565b60006104a482611138565b90505b919050565b6060609780546104bb9061259f565b80601f01602080910402602001604051908101604052809291908181526020018280546104e79061259f565b80156105345780601f1061050957610100808354040283529160200191610534565b820191906000526020600020905b81548152906001019060200180831161051757829003601f168201915b505050505090505b90565b6000818152609960205260408120546001600160a01b03166105ce5760405162461bcd60e51b815260206004820152602c60248201527f4552433732313a20617070726f76656420717565727920666f72206e6f6e657860448201527f697374656e7420746f6b656e000000000000000000000000000000000000000060648201526084015b60405180910390fd5b506000908152609b60205260409020546001600160a01b031690565b60006105f58261099f565b9050806001600160a01b0316836001600160a01b0316141561067f5760405162461bcd60e51b815260206004820152602160248201527f4552433732313a20617070726f76616c20746f2063757272656e74206f776e6560448201527f720000000000000000000000000000000000000000000000000000000000000060648201526084016105c5565b806001600160a01b03166106916111da565b6001600160a01b031614806106ad57506106ad8161046b6111da565b61071f5760405162461bcd60e51b815260206004820152603860248201527f4552433732313a20617070726f76652063616c6c6572206973206e6f74206f7760448201527f6e6572206e6f7220617070726f76656420666f7220616c6c000000000000000060648201526084016105c5565b61072983836111e9565b505050565b61073f6107396111da565b82611264565b6107b15760405162461bcd60e51b815260206004820152603160248201527f4552433732313a207472616e736665722063616c6c6572206973206e6f74206f60448201527f776e6572206e6f7220617070726f76656400000000000000000000000000000060648201526084016105c5565b61072983838361136c565b6000828152606560205260409020600101546107db905b61034a6111da565b61084d5760405162461bcd60e51b815260206004820152602f60248201527f416363657373436f6e74726f6c3a2073656e646572206d75737420626520616e60448201527f2061646d696e20746f206772616e74000000000000000000000000000000000060648201526084016105c5565b6108578282611546565b5050565b6108636111da565b6001600160a01b0316816001600160a01b0316146108e95760405162461bcd60e51b815260206004820152602f60248201527f416363657373436f6e74726f6c3a2063616e206f6e6c792072656e6f756e636560448201527f20726f6c657320666f722073656c66000000000000000000000000000000000060648201526084016105c5565b61085782826115e9565b61091f7f9f2df0fed2c77648de5860a4cc508cd0818c85b8b8a1ab4ceeef8d981c8956a661034a6111da565b61096b5760405162461bcd60e51b815260206004820152601560248201527f6d7573742068617665206d696e74657220726f6c65000000000000000000000060448201526064016105c5565b610857828261168a565b6107298383836117d9565b6000818152609960205260408120546001600160a01b031615156104a4565b6000818152609960205260408120546001600160a01b0316806104a45760405162461bcd60e51b815260206004820152602960248201527f4552433732313a206f776e657220717565727920666f72206e6f6e657869737460448201527f656e7420746f6b656e000000000000000000000000000000000000000000000060648201526084016105c5565b60006001600160a01b038216610aa85760405162461bcd60e51b815260206004820152602a60248201527f4552433732313a2062616c616e636520717565727920666f7220746865207a6560448201527f726f20616464726573730000000000000000000000000000000000000000000060648201526084016105c5565b506001600160a01b03166000908152609a602052604090205490565b610af07f9f2df0fed2c77648de5860a4cc508cd0818c85b8b8a1ab4ceeef8d981c8956a661034a6111da565b610b3c5760405162461bcd60e51b815260206004820152601560248201527f6d7573742068617665206d696e74657220726f6c65000000000000000000000060448201526064016105c5565b610b7d848484848080601f0160208091040260200160405190810160405280939291908181526020018383808284376000920191909152506117f492505050565b50505050565b6060609880546104bb9061259f565b610b9a6111da565b6001600160a01b0316826001600160a01b03161415610bfb5760405162461bcd60e51b815260206004820152601960248201527f4552433732313a20617070726f766520746f2063616c6c65720000000000000060448201526064016105c5565b80609c6000610c086111da565b6001600160a01b03908116825260208083019390935260409182016000908120918716808252919093529120805460ff191692151592909217909155610c4c6111da565b6001600160a01b03167f17307eab39ab6107e8899845ad3d59bd9653f200f220920489ca2b5937696c3183604051610c88911515815260200190565b60405180910390a35050565b610ca5610c9f6111da565b83611264565b610d175760405162461bcd60e51b815260206004820152603160248201527f4552433732313a207472616e736665722063616c6c6572206973206e6f74206f60448201527f776e6572206e6f7220617070726f76656400000000000000000000000000000060648201526084016105c5565b610b7d8484848461187d565b610d30600061034a6111da565b610d7c5760405162461bcd60e51b815260206004820152601460248201527f6d75737420686176652061646d696e20726f6c6500000000000000000000000060448201526064016105c5565b61072960ca8383611f73565b6000818152609960205260409020546060906001600160a01b0316610e155760405162461bcd60e51b815260206004820152602f60248201527f4552433732314d657461646174613a2055524920717565727920666f72206e6f60448201527f6e6578697374656e7420746f6b656e000000000000000000000000000000000060648201526084016105c5565b6000610e1f611906565b90506000815111610e3f5760405180602001604052806000815250610e6a565b80610e4984611915565b604051602001610e5a9291906124b2565b6040516020818303038152906040525b9392505050565b600082815260656020526040902060010154610e8c906107d3565b6108e95760405162461bcd60e51b815260206004820152603060248201527f416363657373436f6e74726f6c3a2073656e646572206d75737420626520616e60448201527f2061646d696e20746f207265766f6b650000000000000000000000000000000060648201526084016105c5565b60ca8054610f0b9061259f565b80601f0160208091040260200160405190810160405280929190818152602001828054610f379061259f565b8015610f845780601f10610f5957610100808354040283529160200191610f84565b820191906000526020600020905b815481529060010190602001808311610f6757829003601f168201915b505050505081565b600054610100900460ff1680610fa5575060005460ff16155b6110175760405162461bcd60e51b815260206004820152602e60248201527f496e697469616c697a61626c653a20636f6e747261637420697320616c72656160448201527f647920696e697469616c697a656400000000000000000000000000000000000060648201526084016105c5565b600054610100900460ff16158015611042576000805460ff1961ff0019909116610100171660011790555b61104a611a64565b611052611a64565b61105a611a64565b6110648285611b2f565b61106e8686611c1a565b60c9805473ffffffffffffffffffffffffffffffffffffffff19166001600160a01b03851617905580156110a8576000805461ff00191690555b505050505050565b6110bd600061034a6111da565b6111095760405162461bcd60e51b815260206004820152601460248201527f6d75737420686176652061646d696e20726f6c6500000000000000000000000060448201526064016105c5565b60c9805473ffffffffffffffffffffffffffffffffffffffff19166001600160a01b0392909216919091179055565b60007fffffffff0000000000000000000000000000000000000000000000000000000082167f80ac58cd0000000000000000000000000000000000000000000000000000000014806111cb57507fffffffff0000000000000000000000000000000000000000000000000000000082167f5b5e139f00000000000000000000000000000000000000000000000000000000145b806104a457506104a482611cf7565b60006111e4611d8e565b905090565b6000818152609b60205260409020805473ffffffffffffffffffffffffffffffffffffffff19166001600160a01b038416908117909155819061122b8261099f565b6001600160a01b03167f8c5be1e5ebec7d5bd14f71427d1e84f3dd0314c0f7b2291e5b200ac8c7c3b92560405160405180910390a45050565b6000818152609960205260408120546001600160a01b03166112ee5760405162461bcd60e51b815260206004820152602c60248201527f4552433732313a206f70657261746f7220717565727920666f72206e6f6e657860448201527f697374656e7420746f6b656e000000000000000000000000000000000000000060648201526084016105c5565b60006112f98361099f565b9050806001600160a01b0316846001600160a01b031614806113345750836001600160a01b03166113298461053f565b6001600160a01b0316145b8061136457506001600160a01b038082166000908152609c602090815260408083209388168352929052205460ff165b949350505050565b826001600160a01b031661137f8261099f565b6001600160a01b0316146113fb5760405162461bcd60e51b815260206004820152602960248201527f4552433732313a207472616e73666572206f6620746f6b656e2074686174206960448201527f73206e6f74206f776e000000000000000000000000000000000000000000000060648201526084016105c5565b6001600160a01b0382166114765760405162461bcd60e51b8152602060048201526024808201527f4552433732313a207472616e7366657220746f20746865207a65726f2061646460448201527f726573730000000000000000000000000000000000000000000000000000000060648201526084016105c5565b6114816000826111e9565b6001600160a01b0383166000908152609a602052604081208054600192906114aa90849061255c565b90915550506001600160a01b0382166000908152609a602052604081208054600192906114d8908490612530565b9091555050600081815260996020526040808220805473ffffffffffffffffffffffffffffffffffffffff19166001600160a01b0386811691821790925591518493918716917fddf252ad1be2c89b69c2b068fc378daa952ba7f163c4a11628f55a4df523b3ef91a4505050565b60008281526065602090815260408083206001600160a01b038516845290915290205460ff166108575760008281526065602090815260408083206001600160a01b03851684529091529020805460ff191660011790556115a56111da565b6001600160a01b0316816001600160a01b0316837f2f8788117e7eff1d82e926ec794901d17c78024a50270940304540a733656f0d60405160405180910390a45050565b60008281526065602090815260408083206001600160a01b038516845290915290205460ff16156108575760008281526065602090815260408083206001600160a01b03851684529091529020805460ff191690556116466111da565b6001600160a01b0316816001600160a01b0316837ff6391f5c32d9c69d2a47ea670b442974b53935d1edc7fd64eb21e047a839171b60405160405180910390a45050565b6001600160a01b0382166116e05760405162461bcd60e51b815260206004820181905260248201527f4552433732313a206d696e7420746f20746865207a65726f206164647265737360448201526064016105c5565b6000818152609960205260409020546001600160a01b0316156117455760405162461bcd60e51b815260206004820152601c60248201527f4552433732313a20746f6b656e20616c7265616479206d696e7465640000000060448201526064016105c5565b6001600160a01b0382166000908152609a6020526040812080546001929061176e908490612530565b9091555050600081815260996020526040808220805473ffffffffffffffffffffffffffffffffffffffff19166001600160a01b03861690811790915590518392907fddf252ad1be2c89b69c2b068fc378daa952ba7f163c4a11628f55a4df523b3ef908290a45050565b61072983838360405180602001604052806000815250610c94565b6117fe838361168a565b61180b6000848484611dd8565b6107295760405162461bcd60e51b815260206004820152603260248201527f4552433732313a207472616e7366657220746f206e6f6e20455243373231526560448201527f63656976657220696d706c656d656e746572000000000000000000000000000060648201526084016105c5565b61188884848461136c565b61189484848484611dd8565b610b7d5760405162461bcd60e51b815260206004820152603260248201527f4552433732313a207472616e7366657220746f206e6f6e20455243373231526560448201527f63656976657220696d706c656d656e746572000000000000000000000000000060648201526084016105c5565b606060ca80546104bb9061259f565b606081611956575060408051808201909152600181527f300000000000000000000000000000000000000000000000000000000000000060208201526104a7565b8160005b8115611980578061196a816125da565b91506119799050600a83612548565b915061195a565b60008167ffffffffffffffff8111156119a957634e487b7160e01b600052604160045260246000fd5b6040519080825280601f01601f1916602001820160405280156119d3576020820181803683370190505b5090505b8415611364576119e860018361255c565b91506119f5600a86612613565b611a00906030612530565b60f81b818381518110611a2357634e487b7160e01b600052603260045260246000fd5b60200101907effffffffffffffffffffffffffffffffffffffffffffffffffffffffffffff1916908160001a905350611a5d600a86612548565b94506119d7565b600054610100900460ff1680611a7d575060005460ff16155b611aef5760405162461bcd60e51b815260206004820152602e60248201527f496e697469616c697a61626c653a20636f6e747261637420697320616c72656160448201527f647920696e697469616c697a656400000000000000000000000000000000000060648201526084016105c5565b600054610100900460ff16158015611b1a576000805460ff1961ff0019909116610100171660011790555b8015611b2c576000805461ff00191690555b50565b600054610100900460ff1680611b48575060005460ff16155b611bba5760405162461bcd60e51b815260206004820152602e60248201527f496e697469616c697a61626c653a20636f6e747261637420697320616c72656160448201527f647920696e697469616c697a656400000000000000000000000000000000000060648201526084016105c5565b600054610100900460ff16158015611be5576000805460ff1961ff0019909116610100171660011790555b611bf060008461084d565b8151611c039060ca906020850190611ff7565b508015610729576000805461ff0019169055505050565b600054610100900460ff1680611c33575060005460ff16155b611ca55760405162461bcd60e51b815260206004820152602e60248201527f496e697469616c697a61626c653a20636f6e747261637420697320616c72656160448201527f647920696e697469616c697a656400000000000000000000000000000000000060648201526084016105c5565b600054610100900460ff16158015611cd0576000805460ff1961ff0019909116610100171660011790555b8251611ce3906097906020860190611ff7565b508151611c03906098906020850190611ff7565b60007fffffffff0000000000000000000000000000000000000000000000000000000082167f7965db0b0000000000000000000000000000000000000000000000000000000014806104a457507f01ffc9a7000000000000000000000000000000000000000000000000000000007fffffffff000000000000000000000000000000000000000000000000000000008316146104a4565b60c9546000906001600160a01b0316331415611dd157507fffffffffffffffffffffffffffffffffffffffffffffffffffffffffffffffec36013560601c61053c565b503361053c565b60006001600160a01b0384163b15611f6857836001600160a01b031663150b7a02611e016111da565b8786866040518563ffffffff1660e01b8152600401611e2394939291906124e1565b602060405180830381600087803b158015611e3d57600080fd5b505af1925050508015611e6d575060408051601f3d908101601f19168201909252611e6a91810190612384565b60015b611f1d573d808015611e9b576040519150601f19603f3d011682016040523d82523d6000602084013e611ea0565b606091505b508051611f155760405162461bcd60e51b815260206004820152603260248201527f4552433732313a207472616e7366657220746f206e6f6e20455243373231526560448201527f63656976657220696d706c656d656e746572000000000000000000000000000060648201526084016105c5565b805181602001fd5b7fffffffff00000000000000000000000000000000000000000000000000000000167f150b7a0200000000000000000000000000000000000000000000000000000000149050611364565b506001949350505050565b828054611f7f9061259f565b90600052602060002090601f016020900481019282611fa15760008555611fe7565b82601f10611fba5782800160ff19823516178555611fe7565b82800160010185558215611fe7579182015b82811115611fe7578235825591602001919060010190611fcc565b50611ff392915061206b565b5090565b8280546120039061259f565b90600052602060002090601f0160209004810192826120255760008555611fe7565b82601f1061203e57805160ff1916838001178555611fe7565b82800160010185558215611fe7579182015b82811115611fe7578251825591602001919060010190612050565b5b80821115611ff3576000815560010161206c565b600067ffffffffffffffff8084111561209b5761209b612653565b604051601f8501601f19908116603f011681019082821181831017156120c3576120c3612653565b816040528093508581528686860111156120dc57600080fd5b858560208301376000602087830101525050509392505050565b80356001600160a01b03811681146104a757600080fd5b60008083601f84011261211e578182fd5b50813567ffffffffffffffff811115612135578182fd5b60208301915083602082850101111561214d57600080fd5b9250929050565b600082601f830112612164578081fd5b610e6a83833560208501612080565b600060208284031215612184578081fd5b610e6a826120f6565b6000806040838503121561219f578081fd5b6121a8836120f6565b91506121b6602084016120f6565b90509250929050565b6000806000606084860312156121d3578081fd5b6121dc846120f6565b92506121ea602085016120f6565b9150604084013590509250925092565b6000806000806080858703121561220f578081fd5b612218856120f6565b9350612226602086016120f6565b925060408501359150606085013567ffffffffffffffff811115612248578182fd5b8501601f81018713612258578182fd5b61226787823560208401612080565b91505092959194509250565b60008060408385031215612285578182fd5b61228e836120f6565b9150602083013580151581146122a2578182fd5b809150509250929050565b600080604083850312156122bf578182fd5b6122c8836120f6565b946020939093013593505050565b600080600080606085870312156122eb578384fd5b6122f4856120f6565b935060208501359250604085013567ffffffffffffffff811115612316578283fd5b6123228782880161210d565b95989497509550505050565b60006020828403121561233f578081fd5b5035919050565b60008060408385031215612358578182fd5b823591506121b6602084016120f6565b600060208284031215612379578081fd5b8135610e6a81612669565b600060208284031215612395578081fd5b8151610e6a81612669565b600080602083850312156123b2578182fd5b823567ffffffffffffffff8111156123c8578283fd5b6123d48582860161210d565b90969095509350505050565b600080600080600060a086880312156123f7578283fd5b853567ffffffffffffffff8082111561240e578485fd5b61241a89838a01612154565b9650602088013591508082111561242f578485fd5b61243b89838a01612154565b95506040880135915080821115612450578485fd5b5061245d88828901612154565b93505061246c606087016120f6565b915061247a608087016120f6565b90509295509295909350565b6000815180845261249e816020860160208601612573565b601f01601f19169290920160200192915050565b600083516124c4818460208801612573565b8351908301906124d8818360208801612573565b01949350505050565b60006001600160a01b038087168352808616602084015250836040830152608060608301526125136080830184612486565b9695505050505050565b600060208252610e6a6020830184612486565b6000821982111561254357612543612627565b500190565b6000826125575761255761263d565b500490565b60008282101561256e5761256e612627565b500390565b60005b8381101561258e578181015183820152602001612576565b83811115610b7d5750506000910152565b6002810460018216806125b357607f821691505b602082108114156125d457634e487b7160e01b600052602260045260246000fd5b50919050565b60007fffffffffffffffffffffffffffffffffffffffffffffffffffffffffffffffff82141561260c5761260c612627565b5060010190565b6000826126225761262261263d565b500690565b634e487b7160e01b600052601160045260246000fd5b634e487b7160e01b600052601260045260246000fd5b634e487b7160e01b600052604160045260246000fd5b7fffffffff0000000000000000000000000000000000000000000000000000000081168114611b2c57600080fdfea26469706673582212203f928d8f0f88a83568dcf893e7f05cb0e052a0ccdef277ffa558f54a18114d7564736f6c63430008020033",
  "devdoc": {
    "details": "This contract support meta transactions.This contract is final, don't inherit form it.",
    "kind": "dev",
    "methods": {
      "approve(address,uint256)": {
        "details": "See {IERC721-approve}."
      },
      "balanceOf(address)": {
        "details": "See {IERC721-balanceOf}."
      },
      "exists(uint256)": {
        "details": "We don't implement {IMintableERC721-exists} but this one is a nice to have."
      },
      "getApproved(uint256)": {
        "details": "See {IERC721-getApproved}."
      },
      "getRoleAdmin(bytes32)": {
        "details": "Returns the admin role that controls `role`. See {grantRole} and {revokeRole}. To change a role's admin, use {_setRoleAdmin}."
      },
      "grantRole(bytes32,address)": {
        "details": "Grants `role` to `account`. If `account` had not been already granted `role`, emits a {RoleGranted} event. Requirements: - the caller must have ``role``'s admin role."
      },
      "hasRole(bytes32,address)": {
        "details": "Returns `true` if `account` has been granted `role`."
      },
      "isApprovedForAll(address,address)": {
        "details": "See {IERC721-isApprovedForAll}."
      },
      "mint(address,uint256)": {
        "details": "Should be callable only by MintableERC721Predicate Make sure minting is done only by this function",
        "params": {
          "id": "tokenId being minted",
          "to": "user address for whom token is being minted"
        }
      },
      "mint(address,uint256,bytes)": {
        "details": "Should be callable only by MintableERC721Predicate Make sure minting is only done either by this function/ ",
        "params": {
          "metaData": "Associated token metadata, to be decoded & set using `setTokenMetadata` Note : If you're interested in taking token metadata from L2 to L1 during exit, you must implement this method",
          "tokenId": "tokenId being minted",
          "user": "user address for whom token is being minted"
        }
      },
      "name()": {
        "details": "See {IERC721Metadata-name}."
      },
      "ownerOf(uint256)": {
        "details": "See {IERC721-ownerOf}."
      },
      "renounceRole(bytes32,address)": {
        "details": "Revokes `role` from the calling account. Roles are often managed via {grantRole} and {revokeRole}: this function's purpose is to provide a mechanism for accounts to lose their privileges if they are compromised (such as when a trusted device is misplaced). If the calling account had been granted `role`, emits a {RoleRevoked} event. Requirements: - the caller must be `account`."
      },
      "revokeRole(bytes32,address)": {
        "details": "Revokes `role` from `account`. If `account` had been granted `role`, emits a {RoleRevoked} event. Requirements: - the caller must have ``role``'s admin role."
      },
      "safeTransferFrom(address,address,uint256,bytes)": {
        "details": "See {IERC721-safeTransferFrom}."
      },
      "setApprovalForAll(address,bool)": {
        "details": "See {IERC721-setApprovalForAll}."
      },
      "setBaseUrl(string)": {
        "details": "Change the base url for token metadata",
        "params": {
          "baseUri_": "The new base Url."
        }
      },
      "setTrustedForwarder(address)": {
        "details": "Change the address of the trusted forwarder for meta-TX",
        "params": {
          "trustedForwarder_": "The new trustedForwarder"
        }
      },
      "supportsInterface(bytes4)": {
        "details": "See {IERC165-supportsInterface}. We must implement supportsInterface here because ERC721Upgradeable is not abstract."
      },
      "symbol()": {
        "details": "See {IERC721Metadata-symbol}."
      },
      "tokenURI(uint256)": {
        "details": "See {IERC721Metadata-tokenURI}."
      },
      "transferFrom(address,address,uint256)": {
        "details": "See {IERC721-transferFrom}."
      }
    },
    "title": "This contract is a erc 721 compatible NFT token that represents an avatar and can be minted by a minter role.",
    "version": 1
  },
  "userdoc": {
    "kind": "user",
    "methods": {
      "mint(address,uint256)": {
        "notice": "called by predicate contract to mint tokens while withdrawing"
      },
      "mint(address,uint256,bytes)": {
        "notice": "called by predicate contract to mint tokens while withdrawing with metadata from L2"
      }
    },
    "version": 1
  },
  "storageLayout": {
    "storage": [
      {
        "astId": 2119,
        "contract": "src/solc_0.8/avatar/Avatar.sol:Avatar",
        "label": "_initialized",
        "offset": 0,
        "slot": "0",
        "type": "t_bool"
      },
      {
        "astId": 2122,
        "contract": "src/solc_0.8/avatar/Avatar.sol:Avatar",
        "label": "_initializing",
        "offset": 1,
        "slot": "0",
        "type": "t_bool"
      },
      {
        "astId": 3568,
        "contract": "src/solc_0.8/avatar/Avatar.sol:Avatar",
        "label": "__gap",
        "offset": 0,
        "slot": "1",
        "type": "t_array(t_uint256)50_storage"
      },
      {
        "astId": 4102,
        "contract": "src/solc_0.8/avatar/Avatar.sol:Avatar",
        "label": "__gap",
        "offset": 0,
        "slot": "51",
        "type": "t_array(t_uint256)50_storage"
      },
      {
        "astId": 1847,
        "contract": "src/solc_0.8/avatar/Avatar.sol:Avatar",
        "label": "_roles",
        "offset": 0,
        "slot": "101",
        "type": "t_mapping(t_bytes32,t_struct(RoleData)1842_storage)"
      },
      {
        "astId": 2111,
        "contract": "src/solc_0.8/avatar/Avatar.sol:Avatar",
        "label": "__gap",
        "offset": 0,
        "slot": "102",
        "type": "t_array(t_uint256)49_storage"
      },
      {
        "astId": 2267,
        "contract": "src/solc_0.8/avatar/Avatar.sol:Avatar",
        "label": "_name",
        "offset": 0,
        "slot": "151",
        "type": "t_string_storage"
      },
      {
        "astId": 2269,
        "contract": "src/solc_0.8/avatar/Avatar.sol:Avatar",
        "label": "_symbol",
        "offset": 0,
        "slot": "152",
        "type": "t_string_storage"
      },
      {
        "astId": 2273,
        "contract": "src/solc_0.8/avatar/Avatar.sol:Avatar",
        "label": "_owners",
        "offset": 0,
        "slot": "153",
        "type": "t_mapping(t_uint256,t_address)"
      },
      {
        "astId": 2277,
        "contract": "src/solc_0.8/avatar/Avatar.sol:Avatar",
        "label": "_balances",
        "offset": 0,
        "slot": "154",
        "type": "t_mapping(t_address,t_uint256)"
      },
      {
        "astId": 2281,
        "contract": "src/solc_0.8/avatar/Avatar.sol:Avatar",
        "label": "_tokenApprovals",
        "offset": 0,
        "slot": "155",
        "type": "t_mapping(t_uint256,t_address)"
      },
      {
        "astId": 2287,
        "contract": "src/solc_0.8/avatar/Avatar.sol:Avatar",
        "label": "_operatorApprovals",
        "offset": 0,
        "slot": "156",
        "type": "t_mapping(t_address,t_mapping(t_address,t_bool))"
      },
      {
        "astId": 3087,
        "contract": "src/solc_0.8/avatar/Avatar.sol:Avatar",
        "label": "__gap",
        "offset": 0,
        "slot": "157",
        "type": "t_array(t_uint256)44_storage"
      },
      {
        "astId": 17409,
        "contract": "src/solc_0.8/avatar/Avatar.sol:Avatar",
        "label": "_trustedForwarder",
        "offset": 0,
        "slot": "201",
        "type": "t_address"
      },
      {
        "astId": 12287,
        "contract": "src/solc_0.8/avatar/Avatar.sol:Avatar",
        "label": "baseTokenURI",
        "offset": 0,
        "slot": "202",
        "type": "t_string_storage"
      },
      {
        "astId": 12402,
        "contract": "src/solc_0.8/avatar/Avatar.sol:Avatar",
        "label": "__gap",
        "offset": 0,
        "slot": "203",
        "type": "t_array(t_uint256)50_storage"
      }
    ],
    "types": {
      "t_address": {
        "encoding": "inplace",
        "label": "address",
        "numberOfBytes": "20"
      },
      "t_array(t_uint256)44_storage": {
        "base": "t_uint256",
        "encoding": "inplace",
        "label": "uint256[44]",
        "numberOfBytes": "1408"
      },
      "t_array(t_uint256)49_storage": {
        "base": "t_uint256",
        "encoding": "inplace",
        "label": "uint256[49]",
        "numberOfBytes": "1568"
      },
      "t_array(t_uint256)50_storage": {
        "base": "t_uint256",
        "encoding": "inplace",
        "label": "uint256[50]",
        "numberOfBytes": "1600"
      },
      "t_bool": {
        "encoding": "inplace",
        "label": "bool",
        "numberOfBytes": "1"
      },
      "t_bytes32": {
        "encoding": "inplace",
        "label": "bytes32",
        "numberOfBytes": "32"
      },
      "t_mapping(t_address,t_bool)": {
        "encoding": "mapping",
        "key": "t_address",
        "label": "mapping(address => bool)",
        "numberOfBytes": "32",
        "value": "t_bool"
      },
      "t_mapping(t_address,t_mapping(t_address,t_bool))": {
        "encoding": "mapping",
        "key": "t_address",
        "label": "mapping(address => mapping(address => bool))",
        "numberOfBytes": "32",
        "value": "t_mapping(t_address,t_bool)"
      },
      "t_mapping(t_address,t_uint256)": {
        "encoding": "mapping",
        "key": "t_address",
        "label": "mapping(address => uint256)",
        "numberOfBytes": "32",
        "value": "t_uint256"
      },
      "t_mapping(t_bytes32,t_struct(RoleData)1842_storage)": {
        "encoding": "mapping",
        "key": "t_bytes32",
        "label": "mapping(bytes32 => struct AccessControlUpgradeable.RoleData)",
        "numberOfBytes": "32",
        "value": "t_struct(RoleData)1842_storage"
      },
      "t_mapping(t_uint256,t_address)": {
        "encoding": "mapping",
        "key": "t_uint256",
        "label": "mapping(uint256 => address)",
        "numberOfBytes": "32",
        "value": "t_address"
      },
      "t_string_storage": {
        "encoding": "bytes",
        "label": "string",
        "numberOfBytes": "32"
      },
      "t_struct(RoleData)1842_storage": {
        "encoding": "inplace",
        "label": "struct AccessControlUpgradeable.RoleData",
        "members": [
          {
            "astId": 1839,
            "contract": "src/solc_0.8/avatar/Avatar.sol:Avatar",
            "label": "members",
            "offset": 0,
            "slot": "0",
            "type": "t_mapping(t_address,t_bool)"
          },
          {
            "astId": 1841,
            "contract": "src/solc_0.8/avatar/Avatar.sol:Avatar",
            "label": "adminRole",
            "offset": 0,
            "slot": "1",
            "type": "t_bytes32"
          }
        ],
        "numberOfBytes": "64"
      },
      "t_uint256": {
        "encoding": "inplace",
        "label": "uint256",
        "numberOfBytes": "32"
      }
    }
  }
}